{
	"contracts/mod07/Bank.sol": {
		"Bank": {
			"abi": [
				{
					"inputs": [],
					"stateMutability": "nonpayable",
					"type": "constructor"
				},
				{
					"anonymous": false,
					"inputs": [
						{
							"indexed": true,
							"internalType": "address",
							"name": "depositor",
							"type": "address"
						},
						{
							"indexed": false,
							"internalType": "uint256",
							"name": "amount",
							"type": "uint256"
						}
					],
					"name": "Deposited",
					"type": "event"
				},
				{
					"anonymous": false,
					"inputs": [
						{
							"indexed": true,
							"internalType": "address",
							"name": "user",
							"type": "address"
						},
						{
							"indexed": false,
							"internalType": "uint256",
							"name": "amount",
							"type": "uint256"
						}
					],
					"name": "InterestPaid",
					"type": "event"
				},
				{
					"anonymous": false,
					"inputs": [
						{
							"indexed": true,
							"internalType": "address",
							"name": "withdrawal",
							"type": "address"
						},
						{
							"indexed": false,
							"internalType": "uint256",
							"name": "amount",
							"type": "uint256"
						}
					],
					"name": "Withdrawn",
					"type": "event"
				},
				{
					"inputs": [],
					"name": "deposit",
					"outputs": [],
					"stateMutability": "payable",
					"type": "function"
				},
				{
					"inputs": [],
					"name": "getMyBalance",
					"outputs": [
						{
							"internalType": "uint256",
							"name": "",
							"type": "uint256"
						}
					],
					"stateMutability": "view",
					"type": "function"
				},
				{
					"inputs": [],
					"name": "getMyInterest",
					"outputs": [
						{
							"internalType": "uint256",
							"name": "",
							"type": "uint256"
						}
					],
					"stateMutability": "view",
					"type": "function"
				},
				{
					"inputs": [
						{
							"internalType": "address",
							"name": "user",
							"type": "address"
						}
					],
					"name": "getUserBalance",
					"outputs": [
						{
							"internalType": "uint256",
							"name": "",
							"type": "uint256"
						}
					],
					"stateMutability": "view",
					"type": "function"
				},
				{
					"inputs": [
						{
							"internalType": "address",
							"name": "user",
							"type": "address"
						}
					],
					"name": "getUserInterest",
					"outputs": [
						{
							"internalType": "uint256",
							"name": "",
							"type": "uint256"
						}
					],
					"stateMutability": "view",
					"type": "function"
				},
				{
					"inputs": [
						{
							"internalType": "address",
							"name": "user",
							"type": "address"
						}
					],
					"name": "getUserLastInterestPaid",
					"outputs": [
						{
							"internalType": "uint256",
							"name": "",
							"type": "uint256"
						}
					],
					"stateMutability": "view",
					"type": "function"
				},
				{
					"inputs": [],
					"name": "getannualInterestRate",
					"outputs": [
						{
							"internalType": "uint256",
							"name": "",
							"type": "uint256"
						}
					],
					"stateMutability": "view",
					"type": "function"
				},
				{
					"inputs": [
						{
							"internalType": "uint256",
							"name": "rate",
							"type": "uint256"
						}
					],
					"name": "setannualInterestRate",
					"outputs": [],
					"stateMutability": "nonpayable",
					"type": "function"
				},
				{
					"inputs": [
						{
							"internalType": "uint256",
							"name": "amount",
							"type": "uint256"
						}
					],
					"name": "withdraw",
					"outputs": [],
					"stateMutability": "nonpayable",
					"type": "function"
				}
			],
			"devdoc": {
				"kind": "dev",
				"methods": {},
				"version": 1
			},
			"evm": {
				"assembly": "    /* \"contracts/mod07/Bank.sol\":60:3130  contract Bank {... */\n  mstore(0x40, 0x80)\n    /* \"contracts/mod07/Bank.sol\":138:139  5 */\n  0x05\n    /* \"contracts/mod07/Bank.sol\":101:139  uint256 private annualInterestRate = 5 */\n  0x01\n  sstore\n    /* \"contracts/mod07/Bank.sol\":368:418  constructor() {... */\n  callvalue\n  dup1\n  iszero\n  tag_1\n  jumpi\n  0x00\n  dup1\n  revert\ntag_1:\n  pop\n    /* \"contracts/mod07/Bank.sol\":401:410  tx.origin */\n  origin\n    /* \"contracts/mod07/Bank.sol\":393:398  admin */\n  0x00\n  dup1\n    /* \"contracts/mod07/Bank.sol\":393:410  admin = tx.origin */\n  0x0100\n  exp\n  dup2\n  sload\n  dup2\n  0xffffffffffffffffffffffffffffffffffffffff\n  mul\n  not\n  and\n  swap1\n  dup4\n  0xffffffffffffffffffffffffffffffffffffffff\n  and\n  mul\n  or\n  swap1\n  sstore\n  pop\n    /* \"contracts/mod07/Bank.sol\":60:3130  contract Bank {... */\n  dataSize(sub_0)\n  dup1\n  dataOffset(sub_0)\n  0x00\n  codecopy\n  0x00\n  return\nstop\n\nsub_0: assembly {\n        /* \"contracts/mod07/Bank.sol\":60:3130  contract Bank {... */\n      mstore(0x40, 0x80)\n      jumpi(tag_1, lt(calldatasize, 0x04))\n      shr(0xe0, calldataload(0x00))\n      dup1\n      0x4f1d0c7a\n      gt\n      tag_11\n      jumpi\n      dup1\n      0x4f1d0c7a\n      eq\n      tag_6\n      jumpi\n      dup1\n      0xbf8853c6\n      eq\n      tag_7\n      jumpi\n      dup1\n      0xd0e30db0\n      eq\n      tag_8\n      jumpi\n      dup1\n      0xdc6464ca\n      eq\n      tag_9\n      jumpi\n      dup1\n      0xfd3131df\n      eq\n      tag_10\n      jumpi\n      jump(tag_1)\n    tag_11:\n      dup1\n      0x1bf8b3cf\n      eq\n      tag_2\n      jumpi\n      dup1\n      0x2e1a7d4d\n      eq\n      tag_3\n      jumpi\n      dup1\n      0x47734892\n      eq\n      tag_4\n      jumpi\n      dup1\n      0x4c738909\n      eq\n      tag_5\n      jumpi\n    tag_1:\n      0x00\n      dup1\n      revert\n        /* \"contracts/mod07/Bank.sol\":2974:3125  function setannualInterestRate(uint256 rate) public {... */\n    tag_2:\n      callvalue\n      dup1\n      iszero\n      tag_12\n      jumpi\n      0x00\n      dup1\n      revert\n    tag_12:\n      pop\n      tag_13\n      0x04\n      dup1\n      calldatasize\n      sub\n      dup2\n      add\n      swap1\n      tag_14\n      swap2\n      swap1\n      tag_15\n      jump\t// in\n    tag_14:\n      tag_16\n      jump\t// in\n    tag_13:\n      stop\n        /* \"contracts/mod07/Bank.sol\":1371:1667  function withdraw(uint256 amount) public {... */\n    tag_3:\n      callvalue\n      dup1\n      iszero\n      tag_17\n      jumpi\n      0x00\n      dup1\n      revert\n    tag_17:\n      pop\n      tag_18\n      0x04\n      dup1\n      calldatasize\n      sub\n      dup2\n      add\n      swap1\n      tag_19\n      swap2\n      swap1\n      tag_15\n      jump\t// in\n    tag_19:\n      tag_20\n      jump\t// in\n    tag_18:\n      stop\n        /* \"contracts/mod07/Bank.sol\":801:964  function getUserBalance(address user) public view returns (uint256) {... */\n    tag_4:\n      callvalue\n      dup1\n      iszero\n      tag_21\n      jumpi\n      0x00\n      dup1\n      revert\n    tag_21:\n      pop\n      tag_22\n      0x04\n      dup1\n      calldatasize\n      sub\n      dup2\n      add\n      swap1\n      tag_23\n      swap2\n      swap1\n      tag_24\n      jump\t// in\n    tag_23:\n      tag_25\n      jump\t// in\n    tag_22:\n      mload(0x40)\n      tag_26\n      swap2\n      swap1\n      tag_27\n      jump\t// in\n    tag_26:\n      mload(0x40)\n      dup1\n      swap2\n      sub\n      swap1\n      return\n        /* \"contracts/mod07/Bank.sol\":624:793  function getMyBalance() public view returns (uint256) {... */\n    tag_5:\n      callvalue\n      dup1\n      iszero\n      tag_28\n      jumpi\n      0x00\n      dup1\n      revert\n    tag_28:\n      pop\n      tag_29\n      tag_30\n      jump\t// in\n    tag_29:\n      mload(0x40)\n      tag_31\n      swap2\n      swap1\n      tag_27\n      jump\t// in\n    tag_31:\n      mload(0x40)\n      dup1\n      swap2\n      sub\n      swap1\n      return\n        /* \"contracts/mod07/Bank.sol\":2660:2850  function getUserLastInterestPaid(address user) public view returns (uint256) {... */\n    tag_6:\n      callvalue\n      dup1\n      iszero\n      tag_32\n      jumpi\n      0x00\n      dup1\n      revert\n    tag_32:\n      pop\n      tag_33\n      0x04\n      dup1\n      calldatasize\n      sub\n      dup2\n      add\n      swap1\n      tag_34\n      swap2\n      swap1\n      tag_24\n      jump\t// in\n    tag_34:\n      tag_35\n      jump\t// in\n    tag_33:\n      mload(0x40)\n      tag_36\n      swap2\n      swap1\n      tag_27\n      jump\t// in\n    tag_36:\n      mload(0x40)\n      dup1\n      swap2\n      sub\n      swap1\n      return\n        /* \"contracts/mod07/Bank.sol\":2473:2652  function getUserInterest(address user) public view returns (uint256) {... */\n    tag_7:\n      callvalue\n      dup1\n      iszero\n      tag_37\n      jumpi\n      0x00\n      dup1\n      revert\n    tag_37:\n      pop\n      tag_38\n      0x04\n      dup1\n      calldatasize\n      sub\n      dup2\n      add\n      swap1\n      tag_39\n      swap2\n      swap1\n      tag_24\n      jump\t// in\n    tag_39:\n      tag_40\n      jump\t// in\n    tag_38:\n      mload(0x40)\n      tag_41\n      swap2\n      swap1\n      tag_27\n      jump\t// in\n    tag_41:\n      mload(0x40)\n      dup1\n      swap2\n      sub\n      swap1\n      return\n        /* \"contracts/mod07/Bank.sol\":972:1363  function deposit() public payable {... */\n    tag_8:\n      tag_42\n      tag_43\n      jump\t// in\n    tag_42:\n      stop\n        /* \"contracts/mod07/Bank.sol\":2280:2465  function getMyInterest() public view returns (uint256) {... */\n    tag_9:\n      callvalue\n      dup1\n      iszero\n      tag_44\n      jumpi\n      0x00\n      dup1\n      revert\n    tag_44:\n      pop\n      tag_45\n      tag_46\n      jump\t// in\n    tag_45:\n      mload(0x40)\n      tag_47\n      swap2\n      swap1\n      tag_27\n      jump\t// in\n    tag_47:\n      mload(0x40)\n      dup1\n      swap2\n      sub\n      swap1\n      return\n        /* \"contracts/mod07/Bank.sol\":2859:2966  function getannualInterestRate() public view returns (uint256) {... */\n    tag_10:\n      callvalue\n      dup1\n      iszero\n      tag_48\n      jumpi\n      0x00\n      dup1\n      revert\n    tag_48:\n      pop\n      tag_49\n      tag_50\n      jump\t// in\n    tag_49:\n      mload(0x40)\n      tag_51\n      swap2\n      swap1\n      tag_27\n      jump\t// in\n    tag_51:\n      mload(0x40)\n      dup1\n      swap2\n      sub\n      swap1\n      return\n        /* \"contracts/mod07/Bank.sol\":2974:3125  function setannualInterestRate(uint256 rate) public {... */\n    tag_16:\n        /* \"contracts/mod07/Bank.sol\":3059:3064  admin */\n      0x00\n      dup1\n      sload\n      swap1\n      0x0100\n      exp\n      swap1\n      div\n      0xffffffffffffffffffffffffffffffffffffffff\n      and\n        /* \"contracts/mod07/Bank.sol\":3045:3064  msg.sender == admin */\n      0xffffffffffffffffffffffffffffffffffffffff\n      and\n        /* \"contracts/mod07/Bank.sol\":3045:3055  msg.sender */\n      caller\n        /* \"contracts/mod07/Bank.sol\":3045:3064  msg.sender == admin */\n      0xffffffffffffffffffffffffffffffffffffffff\n      and\n      eq\n        /* \"contracts/mod07/Bank.sol\":3037:3081  require(msg.sender == admin, \"UNAUTHORIZED\") */\n      tag_53\n      jumpi\n      mload(0x40)\n      0x08c379a000000000000000000000000000000000000000000000000000000000\n      dup2\n      mstore\n      0x04\n      add\n      tag_54\n      swap1\n      tag_55\n      jump\t// in\n    tag_54:\n      mload(0x40)\n      dup1\n      swap2\n      sub\n      swap1\n      revert\n    tag_53:\n        /* \"contracts/mod07/Bank.sol\":3113:3117  rate */\n      dup1\n        /* \"contracts/mod07/Bank.sol\":3092:3110  annualInterestRate */\n      0x01\n        /* \"contracts/mod07/Bank.sol\":3092:3117  annualInterestRate = rate */\n      dup2\n      swap1\n      sstore\n      pop\n        /* \"contracts/mod07/Bank.sol\":2974:3125  function setannualInterestRate(uint256 rate) public {... */\n      pop\n      jump\t// out\n        /* \"contracts/mod07/Bank.sol\":1371:1667  function withdraw(uint256 amount) public {... */\n    tag_20:\n        /* \"contracts/mod07/Bank.sol\":1423:1452  calculateInterest(msg.sender) */\n      tag_57\n        /* \"contracts/mod07/Bank.sol\":1441:1451  msg.sender */\n      caller\n        /* \"contracts/mod07/Bank.sol\":1423:1440  calculateInterest */\n      tag_58\n        /* \"contracts/mod07/Bank.sol\":1423:1452  calculateInterest(msg.sender) */\n      jump\t// in\n    tag_57:\n        /* \"contracts/mod07/Bank.sol\":1495:1501  amount */\n      dup1\n        /* \"contracts/mod07/Bank.sol\":1471:1479  balances */\n      0x02\n        /* \"contracts/mod07/Bank.sol\":1471:1491  balances[msg.sender] */\n      0x00\n        /* \"contracts/mod07/Bank.sol\":1480:1490  msg.sender */\n      caller\n        /* \"contracts/mod07/Bank.sol\":1471:1491  balances[msg.sender] */\n      0xffffffffffffffffffffffffffffffffffffffff\n      and\n      0xffffffffffffffffffffffffffffffffffffffff\n      and\n      dup2\n      mstore\n      0x20\n      add\n      swap1\n      dup2\n      mstore\n      0x20\n      add\n      0x00\n      keccak256\n      sload\n        /* \"contracts/mod07/Bank.sol\":1471:1501  balances[msg.sender] >= amount */\n      lt\n      iszero\n        /* \"contracts/mod07/Bank.sol\":1463:1526  require(balances[msg.sender] >= amount, \"INSUFFICIENT_BALANCE\") */\n      tag_59\n      jumpi\n      mload(0x40)\n      0x08c379a000000000000000000000000000000000000000000000000000000000\n      dup2\n      mstore\n      0x04\n      add\n      tag_60\n      swap1\n      tag_61\n      jump\t// in\n    tag_60:\n      mload(0x40)\n      dup1\n      swap2\n      sub\n      swap1\n      revert\n    tag_59:\n        /* \"contracts/mod07/Bank.sol\":1545:1555  msg.sender */\n      caller\n        /* \"contracts/mod07/Bank.sol\":1537:1565  payable(msg.sender).transfer */\n      0xffffffffffffffffffffffffffffffffffffffff\n      and\n        /* \"contracts/mod07/Bank.sol\":1537:1573  payable(msg.sender).transfer(amount) */\n      0x08fc\n        /* \"contracts/mod07/Bank.sol\":1566:1572  amount */\n      dup3\n        /* \"contracts/mod07/Bank.sol\":1537:1573  payable(msg.sender).transfer(amount) */\n      swap1\n      dup2\n      iszero\n      mul\n      swap1\n      mload(0x40)\n      0x00\n      mload(0x40)\n      dup1\n      dup4\n      sub\n      dup2\n      dup6\n      dup9\n      dup9\n      call\n      swap4\n      pop\n      pop\n      pop\n      pop\n      iszero\n      dup1\n      iszero\n      tag_63\n      jumpi\n      returndatasize\n      0x00\n      dup1\n      returndatacopy\n      revert(0x00, returndatasize)\n    tag_63:\n      pop\n        /* \"contracts/mod07/Bank.sol\":1608:1614  amount */\n      dup1\n        /* \"contracts/mod07/Bank.sol\":1584:1592  balances */\n      0x02\n        /* \"contracts/mod07/Bank.sol\":1584:1604  balances[msg.sender] */\n      0x00\n        /* \"contracts/mod07/Bank.sol\":1593:1603  msg.sender */\n      caller\n        /* \"contracts/mod07/Bank.sol\":1584:1604  balances[msg.sender] */\n      0xffffffffffffffffffffffffffffffffffffffff\n      and\n      0xffffffffffffffffffffffffffffffffffffffff\n      and\n      dup2\n      mstore\n      0x20\n      add\n      swap1\n      dup2\n      mstore\n      0x20\n      add\n      0x00\n      keccak256\n      0x00\n        /* \"contracts/mod07/Bank.sol\":1584:1614  balances[msg.sender] -= amount */\n      dup3\n      dup3\n      sload\n      tag_64\n      swap2\n      swap1\n      tag_65\n      jump\t// in\n    tag_64:\n      swap3\n      pop\n      pop\n      dup2\n      swap1\n      sstore\n      pop\n        /* \"contracts/mod07/Bank.sol\":1640:1650  msg.sender */\n      caller\n        /* \"contracts/mod07/Bank.sol\":1630:1659  Withdrawn(msg.sender, amount) */\n      0xffffffffffffffffffffffffffffffffffffffff\n      and\n      0x7084f5476618d8e60b11ef0d7d3f06914655adb8793e28ff7f018d4c76d505d5\n        /* \"contracts/mod07/Bank.sol\":1652:1658  amount */\n      dup3\n        /* \"contracts/mod07/Bank.sol\":1630:1659  Withdrawn(msg.sender, amount) */\n      mload(0x40)\n      tag_66\n      swap2\n      swap1\n      tag_27\n      jump\t// in\n    tag_66:\n      mload(0x40)\n      dup1\n      swap2\n      sub\n      swap1\n      log2\n        /* \"contracts/mod07/Bank.sol\":1371:1667  function withdraw(uint256 amount) public {... */\n      pop\n      jump\t// out\n        /* \"contracts/mod07/Bank.sol\":801:964  function getUserBalance(address user) public view returns (uint256) {... */\n    tag_25:\n        /* \"contracts/mod07/Bank.sol\":860:867  uint256 */\n      0x00\n        /* \"contracts/mod07/Bank.sol\":902:907  admin */\n      dup1\n      0x00\n      swap1\n      sload\n      swap1\n      0x0100\n      exp\n      swap1\n      div\n      0xffffffffffffffffffffffffffffffffffffffff\n      and\n        /* \"contracts/mod07/Bank.sol\":888:907  msg.sender == admin */\n      0xffffffffffffffffffffffffffffffffffffffff\n      and\n        /* \"contracts/mod07/Bank.sol\":888:898  msg.sender */\n      caller\n        /* \"contracts/mod07/Bank.sol\":888:907  msg.sender == admin */\n      0xffffffffffffffffffffffffffffffffffffffff\n      and\n      eq\n        /* \"contracts/mod07/Bank.sol\":880:924  require(msg.sender == admin, \"UNAUTHORIZED\") */\n      tag_68\n      jumpi\n      mload(0x40)\n      0x08c379a000000000000000000000000000000000000000000000000000000000\n      dup2\n      mstore\n      0x04\n      add\n      tag_69\n      swap1\n      tag_55\n      jump\t// in\n    tag_69:\n      mload(0x40)\n      dup1\n      swap2\n      sub\n      swap1\n      revert\n    tag_68:\n        /* \"contracts/mod07/Bank.sol\":942:950  balances */\n      0x02\n        /* \"contracts/mod07/Bank.sol\":942:956  balances[user] */\n      0x00\n        /* \"contracts/mod07/Bank.sol\":951:955  user */\n      dup4\n        /* \"contracts/mod07/Bank.sol\":942:956  balances[user] */\n      0xffffffffffffffffffffffffffffffffffffffff\n      and\n      0xffffffffffffffffffffffffffffffffffffffff\n      and\n      dup2\n      mstore\n      0x20\n      add\n      swap1\n      dup2\n      mstore\n      0x20\n      add\n      0x00\n      keccak256\n      sload\n        /* \"contracts/mod07/Bank.sol\":935:956  return balances[user] */\n      swap1\n      pop\n        /* \"contracts/mod07/Bank.sol\":801:964  function getUserBalance(address user) public view returns (uint256) {... */\n      swap2\n      swap1\n      pop\n      jump\t// out\n        /* \"contracts/mod07/Bank.sol\":624:793  function getMyBalance() public view returns (uint256) {... */\n    tag_30:\n        /* \"contracts/mod07/Bank.sol\":669:676  uint256 */\n      0x00\n        /* \"contracts/mod07/Bank.sol\":689:705  uint256 interest */\n      dup1\n        /* \"contracts/mod07/Bank.sol\":708:736  estimateInterest(msg.sender) */\n      tag_71\n        /* \"contracts/mod07/Bank.sol\":725:735  msg.sender */\n      caller\n        /* \"contracts/mod07/Bank.sol\":708:724  estimateInterest */\n      tag_72\n        /* \"contracts/mod07/Bank.sol\":708:736  estimateInterest(msg.sender) */\n      jump\t// in\n    tag_71:\n        /* \"contracts/mod07/Bank.sol\":689:736  uint256 interest = estimateInterest(msg.sender) */\n      swap1\n      pop\n        /* \"contracts/mod07/Bank.sol\":777:785  interest */\n      dup1\n        /* \"contracts/mod07/Bank.sol\":754:762  balances */\n      0x02\n        /* \"contracts/mod07/Bank.sol\":754:774  balances[msg.sender] */\n      0x00\n        /* \"contracts/mod07/Bank.sol\":763:773  msg.sender */\n      caller\n        /* \"contracts/mod07/Bank.sol\":754:774  balances[msg.sender] */\n      0xffffffffffffffffffffffffffffffffffffffff\n      and\n      0xffffffffffffffffffffffffffffffffffffffff\n      and\n      dup2\n      mstore\n      0x20\n      add\n      swap1\n      dup2\n      mstore\n      0x20\n      add\n      0x00\n      keccak256\n      sload\n        /* \"contracts/mod07/Bank.sol\":754:785  balances[msg.sender] + interest */\n      tag_73\n      swap2\n      swap1\n      tag_74\n      jump\t// in\n    tag_73:\n        /* \"contracts/mod07/Bank.sol\":747:785  return balances[msg.sender] + interest */\n      swap2\n      pop\n      pop\n        /* \"contracts/mod07/Bank.sol\":624:793  function getMyBalance() public view returns (uint256) {... */\n      swap1\n      jump\t// out\n        /* \"contracts/mod07/Bank.sol\":2660:2850  function getUserLastInterestPaid(address user) public view returns (uint256) {... */\n    tag_35:\n        /* \"contracts/mod07/Bank.sol\":2728:2735  uint256 */\n      0x00\n        /* \"contracts/mod07/Bank.sol\":2770:2775  admin */\n      dup1\n      0x00\n      swap1\n      sload\n      swap1\n      0x0100\n      exp\n      swap1\n      div\n      0xffffffffffffffffffffffffffffffffffffffff\n      and\n        /* \"contracts/mod07/Bank.sol\":2756:2775  msg.sender == admin */\n      0xffffffffffffffffffffffffffffffffffffffff\n      and\n        /* \"contracts/mod07/Bank.sol\":2756:2766  msg.sender */\n      caller\n        /* \"contracts/mod07/Bank.sol\":2756:2775  msg.sender == admin */\n      0xffffffffffffffffffffffffffffffffffffffff\n      and\n      eq\n        /* \"contracts/mod07/Bank.sol\":2748:2792  require(msg.sender == admin, \"UNAUTHORIZED\") */\n      tag_76\n      jumpi\n      mload(0x40)\n      0x08c379a000000000000000000000000000000000000000000000000000000000\n      dup2\n      mstore\n      0x04\n      add\n      tag_77\n      swap1\n      tag_55\n      jump\t// in\n    tag_77:\n      mload(0x40)\n      dup1\n      swap2\n      sub\n      swap1\n      revert\n    tag_76:\n        /* \"contracts/mod07/Bank.sol\":2810:2819  interests */\n      0x03\n        /* \"contracts/mod07/Bank.sol\":2810:2825  interests[user] */\n      0x00\n        /* \"contracts/mod07/Bank.sol\":2820:2824  user */\n      dup4\n        /* \"contracts/mod07/Bank.sol\":2810:2825  interests[user] */\n      0xffffffffffffffffffffffffffffffffffffffff\n      and\n      0xffffffffffffffffffffffffffffffffffffffff\n      and\n      dup2\n      mstore\n      0x20\n      add\n      swap1\n      dup2\n      mstore\n      0x20\n      add\n      0x00\n      keccak256\n        /* \"contracts/mod07/Bank.sol\":2810:2842  interests[user].lastInterestTime */\n      0x01\n      add\n      sload\n        /* \"contracts/mod07/Bank.sol\":2803:2842  return interests[user].lastInterestTime */\n      swap1\n      pop\n        /* \"contracts/mod07/Bank.sol\":2660:2850  function getUserLastInterestPaid(address user) public view returns (uint256) {... */\n      swap2\n      swap1\n      pop\n      jump\t// out\n        /* \"contracts/mod07/Bank.sol\":2473:2652  function getUserInterest(address user) public view returns (uint256) {... */\n    tag_40:\n        /* \"contracts/mod07/Bank.sol\":2533:2540  uint256 */\n      0x00\n        /* \"contracts/mod07/Bank.sol\":2575:2580  admin */\n      dup1\n      0x00\n      swap1\n      sload\n      swap1\n      0x0100\n      exp\n      swap1\n      div\n      0xffffffffffffffffffffffffffffffffffffffff\n      and\n        /* \"contracts/mod07/Bank.sol\":2561:2580  msg.sender == admin */\n      0xffffffffffffffffffffffffffffffffffffffff\n      and\n        /* \"contracts/mod07/Bank.sol\":2561:2571  msg.sender */\n      caller\n        /* \"contracts/mod07/Bank.sol\":2561:2580  msg.sender == admin */\n      0xffffffffffffffffffffffffffffffffffffffff\n      and\n      eq\n        /* \"contracts/mod07/Bank.sol\":2553:2597  require(msg.sender == admin, \"UNAUTHORIZED\") */\n      tag_79\n      jumpi\n      mload(0x40)\n      0x08c379a000000000000000000000000000000000000000000000000000000000\n      dup2\n      mstore\n      0x04\n      add\n      tag_80\n      swap1\n      tag_55\n      jump\t// in\n    tag_80:\n      mload(0x40)\n      dup1\n      swap2\n      sub\n      swap1\n      revert\n    tag_79:\n        /* \"contracts/mod07/Bank.sol\":2615:2624  interests */\n      0x03\n        /* \"contracts/mod07/Bank.sol\":2615:2630  interests[user] */\n      0x00\n        /* \"contracts/mod07/Bank.sol\":2625:2629  user */\n      dup4\n        /* \"contracts/mod07/Bank.sol\":2615:2630  interests[user] */\n      0xffffffffffffffffffffffffffffffffffffffff\n      and\n      0xffffffffffffffffffffffffffffffffffffffff\n      and\n      dup2\n      mstore\n      0x20\n      add\n      swap1\n      dup2\n      mstore\n      0x20\n      add\n      0x00\n      keccak256\n        /* \"contracts/mod07/Bank.sol\":2615:2644  interests[user].interestGiven */\n      0x00\n      add\n      sload\n        /* \"contracts/mod07/Bank.sol\":2608:2644  return interests[user].interestGiven */\n      swap1\n      pop\n        /* \"contracts/mod07/Bank.sol\":2473:2652  function getUserInterest(address user) public view returns (uint256) {... */\n      swap2\n      swap1\n      pop\n      jump\t// out\n        /* \"contracts/mod07/Bank.sol\":972:1363  function deposit() public payable {... */\n    tag_43:\n        /* \"contracts/mod07/Bank.sol\":1037:1038  0 */\n      0x00\n        /* \"contracts/mod07/Bank.sol\":1025:1034  msg.value */\n      callvalue\n        /* \"contracts/mod07/Bank.sol\":1025:1038  msg.value > 0 */\n      gt\n        /* \"contracts/mod07/Bank.sol\":1017:1060  require(msg.value > 0, \"MIN_ETHER_NOT_MET\") */\n      tag_82\n      jumpi\n      mload(0x40)\n      0x08c379a000000000000000000000000000000000000000000000000000000000\n      dup2\n      mstore\n      0x04\n      add\n      tag_83\n      swap1\n      tag_84\n      jump\t// in\n    tag_83:\n      mload(0x40)\n      dup1\n      swap2\n      sub\n      swap1\n      revert\n    tag_82:\n        /* \"contracts/mod07/Bank.sol\":1116:1117  0 */\n      0x00\n        /* \"contracts/mod07/Bank.sol\":1074:1083  interests */\n      0x03\n        /* \"contracts/mod07/Bank.sol\":1074:1095  interests[msg.sender] */\n      0x00\n        /* \"contracts/mod07/Bank.sol\":1084:1094  msg.sender */\n      caller\n        /* \"contracts/mod07/Bank.sol\":1074:1095  interests[msg.sender] */\n      0xffffffffffffffffffffffffffffffffffffffff\n      and\n      0xffffffffffffffffffffffffffffffffffffffff\n      and\n      dup2\n      mstore\n      0x20\n      add\n      swap1\n      dup2\n      mstore\n      0x20\n      add\n      0x00\n      keccak256\n        /* \"contracts/mod07/Bank.sol\":1074:1112  interests[msg.sender].lastInterestTime */\n      0x01\n      add\n      sload\n        /* \"contracts/mod07/Bank.sol\":1074:1117  interests[msg.sender].lastInterestTime == 0 */\n      sub\n        /* \"contracts/mod07/Bank.sol\":1071:1264  if(interests[msg.sender].lastInterestTime == 0) {... */\n      tag_85\n      jumpi\n        /* \"contracts/mod07/Bank.sol\":1175:1190  block.timestamp */\n      timestamp\n        /* \"contracts/mod07/Bank.sol\":1134:1143  interests */\n      0x03\n        /* \"contracts/mod07/Bank.sol\":1134:1155  interests[msg.sender] */\n      0x00\n        /* \"contracts/mod07/Bank.sol\":1144:1154  msg.sender */\n      caller\n        /* \"contracts/mod07/Bank.sol\":1134:1155  interests[msg.sender] */\n      0xffffffffffffffffffffffffffffffffffffffff\n      and\n      0xffffffffffffffffffffffffffffffffffffffff\n      and\n      dup2\n      mstore\n      0x20\n      add\n      swap1\n      dup2\n      mstore\n      0x20\n      add\n      0x00\n      keccak256\n        /* \"contracts/mod07/Bank.sol\":1134:1172  interests[msg.sender].lastInterestTime */\n      0x01\n      add\n        /* \"contracts/mod07/Bank.sol\":1134:1190  interests[msg.sender].lastInterestTime = block.timestamp */\n      dup2\n      swap1\n      sstore\n      pop\n        /* \"contracts/mod07/Bank.sol\":1071:1264  if(interests[msg.sender].lastInterestTime == 0) {... */\n      jump(tag_86)\n    tag_85:\n        /* \"contracts/mod07/Bank.sol\":1223:1252  calculateInterest(msg.sender) */\n      tag_87\n        /* \"contracts/mod07/Bank.sol\":1241:1251  msg.sender */\n      caller\n        /* \"contracts/mod07/Bank.sol\":1223:1240  calculateInterest */\n      tag_58\n        /* \"contracts/mod07/Bank.sol\":1223:1252  calculateInterest(msg.sender) */\n      jump\t// in\n    tag_87:\n        /* \"contracts/mod07/Bank.sol\":1071:1264  if(interests[msg.sender].lastInterestTime == 0) {... */\n    tag_86:\n        /* \"contracts/mod07/Bank.sol\":1298:1307  msg.value */\n      callvalue\n        /* \"contracts/mod07/Bank.sol\":1274:1282  balances */\n      0x02\n        /* \"contracts/mod07/Bank.sol\":1274:1294  balances[msg.sender] */\n      0x00\n        /* \"contracts/mod07/Bank.sol\":1283:1293  msg.sender */\n      caller\n        /* \"contracts/mod07/Bank.sol\":1274:1294  balances[msg.sender] */\n      0xffffffffffffffffffffffffffffffffffffffff\n      and\n      0xffffffffffffffffffffffffffffffffffffffff\n      and\n      dup2\n      mstore\n      0x20\n      add\n      swap1\n      dup2\n      mstore\n      0x20\n      add\n      0x00\n      keccak256\n      0x00\n        /* \"contracts/mod07/Bank.sol\":1274:1307  balances[msg.sender] += msg.value */\n      dup3\n      dup3\n      sload\n      tag_88\n      swap2\n      swap1\n      tag_74\n      jump\t// in\n    tag_88:\n      swap3\n      pop\n      pop\n      dup2\n      swap1\n      sstore\n      pop\n        /* \"contracts/mod07/Bank.sol\":1333:1343  msg.sender */\n      caller\n        /* \"contracts/mod07/Bank.sol\":1323:1355  Deposited(msg.sender, msg.value) */\n      0xffffffffffffffffffffffffffffffffffffffff\n      and\n      0x2da466a7b24304f47e87fa2e1e5a81b9831ce54fec19055ce277ca2f39ba42c4\n        /* \"contracts/mod07/Bank.sol\":1345:1354  msg.value */\n      callvalue\n        /* \"contracts/mod07/Bank.sol\":1323:1355  Deposited(msg.sender, msg.value) */\n      mload(0x40)\n      tag_89\n      swap2\n      swap1\n      tag_27\n      jump\t// in\n    tag_89:\n      mload(0x40)\n      dup1\n      swap2\n      sub\n      swap1\n      log2\n        /* \"contracts/mod07/Bank.sol\":972:1363  function deposit() public payable {... */\n      jump\t// out\n        /* \"contracts/mod07/Bank.sol\":2280:2465  function getMyInterest() public view returns (uint256) {... */\n    tag_46:\n        /* \"contracts/mod07/Bank.sol\":2326:2333  uint256 */\n      0x00\n        /* \"contracts/mod07/Bank.sol\":2346:2362  uint256 interest */\n      dup1\n        /* \"contracts/mod07/Bank.sol\":2365:2393  estimateInterest(msg.sender) */\n      tag_91\n        /* \"contracts/mod07/Bank.sol\":2382:2392  msg.sender */\n      caller\n        /* \"contracts/mod07/Bank.sol\":2365:2381  estimateInterest */\n      tag_72\n        /* \"contracts/mod07/Bank.sol\":2365:2393  estimateInterest(msg.sender) */\n      jump\t// in\n    tag_91:\n        /* \"contracts/mod07/Bank.sol\":2346:2393  uint256 interest = estimateInterest(msg.sender) */\n      swap1\n      pop\n        /* \"contracts/mod07/Bank.sol\":2449:2457  interest */\n      dup1\n        /* \"contracts/mod07/Bank.sol\":2411:2420  interests */\n      0x03\n        /* \"contracts/mod07/Bank.sol\":2411:2432  interests[msg.sender] */\n      0x00\n        /* \"contracts/mod07/Bank.sol\":2421:2431  msg.sender */\n      caller\n        /* \"contracts/mod07/Bank.sol\":2411:2432  interests[msg.sender] */\n      0xffffffffffffffffffffffffffffffffffffffff\n      and\n      0xffffffffffffffffffffffffffffffffffffffff\n      and\n      dup2\n      mstore\n      0x20\n      add\n      swap1\n      dup2\n      mstore\n      0x20\n      add\n      0x00\n      keccak256\n        /* \"contracts/mod07/Bank.sol\":2411:2446  interests[msg.sender].interestGiven */\n      0x00\n      add\n      sload\n        /* \"contracts/mod07/Bank.sol\":2411:2457  interests[msg.sender].interestGiven + interest */\n      tag_92\n      swap2\n      swap1\n      tag_74\n      jump\t// in\n    tag_92:\n        /* \"contracts/mod07/Bank.sol\":2404:2457  return interests[msg.sender].interestGiven + interest */\n      swap2\n      pop\n      pop\n        /* \"contracts/mod07/Bank.sol\":2280:2465  function getMyInterest() public view returns (uint256) {... */\n      swap1\n      jump\t// out\n        /* \"contracts/mod07/Bank.sol\":2859:2966  function getannualInterestRate() public view returns (uint256) {... */\n    tag_50:\n        /* \"contracts/mod07/Bank.sol\":2913:2920  uint256 */\n      0x00\n        /* \"contracts/mod07/Bank.sol\":2940:2958  annualInterestRate */\n      sload(0x01)\n        /* \"contracts/mod07/Bank.sol\":2933:2958  return annualInterestRate */\n      swap1\n      pop\n        /* \"contracts/mod07/Bank.sol\":2859:2966  function getannualInterestRate() public view returns (uint256) {... */\n      swap1\n      jump\t// out\n        /* \"contracts/mod07/Bank.sol\":1675:1979  function calculateInterest(address user) internal {... */\n    tag_58:\n        /* \"contracts/mod07/Bank.sol\":1736:1752  uint256 interest */\n      0x00\n        /* \"contracts/mod07/Bank.sol\":1755:1777  estimateInterest(user) */\n      tag_95\n        /* \"contracts/mod07/Bank.sol\":1772:1776  user */\n      dup3\n        /* \"contracts/mod07/Bank.sol\":1755:1771  estimateInterest */\n      tag_72\n        /* \"contracts/mod07/Bank.sol\":1755:1777  estimateInterest(user) */\n      jump\t// in\n    tag_95:\n        /* \"contracts/mod07/Bank.sol\":1736:1777  uint256 interest = estimateInterest(user) */\n      swap1\n      pop\n        /* \"contracts/mod07/Bank.sol\":1806:1814  interest */\n      dup1\n        /* \"contracts/mod07/Bank.sol\":1788:1796  balances */\n      0x02\n        /* \"contracts/mod07/Bank.sol\":1788:1802  balances[user] */\n      0x00\n        /* \"contracts/mod07/Bank.sol\":1797:1801  user */\n      dup5\n        /* \"contracts/mod07/Bank.sol\":1788:1802  balances[user] */\n      0xffffffffffffffffffffffffffffffffffffffff\n      and\n      0xffffffffffffffffffffffffffffffffffffffff\n      and\n      dup2\n      mstore\n      0x20\n      add\n      swap1\n      dup2\n      mstore\n      0x20\n      add\n      0x00\n      keccak256\n      0x00\n        /* \"contracts/mod07/Bank.sol\":1788:1814  balances[user] += interest */\n      dup3\n      dup3\n      sload\n      tag_96\n      swap2\n      swap1\n      tag_74\n      jump\t// in\n    tag_96:\n      swap3\n      pop\n      pop\n      dup2\n      swap1\n      sstore\n      pop\n        /* \"contracts/mod07/Bank.sol\":1858:1866  interest */\n      dup1\n        /* \"contracts/mod07/Bank.sol\":1825:1834  interests */\n      0x03\n        /* \"contracts/mod07/Bank.sol\":1825:1840  interests[user] */\n      0x00\n        /* \"contracts/mod07/Bank.sol\":1835:1839  user */\n      dup5\n        /* \"contracts/mod07/Bank.sol\":1825:1840  interests[user] */\n      0xffffffffffffffffffffffffffffffffffffffff\n      and\n      0xffffffffffffffffffffffffffffffffffffffff\n      and\n      dup2\n      mstore\n      0x20\n      add\n      swap1\n      dup2\n      mstore\n      0x20\n      add\n      0x00\n      keccak256\n        /* \"contracts/mod07/Bank.sol\":1825:1854  interests[user].interestGiven */\n      0x00\n      add\n      0x00\n        /* \"contracts/mod07/Bank.sol\":1825:1866  interests[user].interestGiven += interest */\n      dup3\n      dup3\n      sload\n      tag_97\n      swap2\n      swap1\n      tag_74\n      jump\t// in\n    tag_97:\n      swap3\n      pop\n      pop\n      dup2\n      swap1\n      sstore\n      pop\n        /* \"contracts/mod07/Bank.sol\":1912:1927  block.timestamp */\n      timestamp\n        /* \"contracts/mod07/Bank.sol\":1877:1886  interests */\n      0x03\n        /* \"contracts/mod07/Bank.sol\":1877:1892  interests[user] */\n      0x00\n        /* \"contracts/mod07/Bank.sol\":1887:1891  user */\n      dup5\n        /* \"contracts/mod07/Bank.sol\":1877:1892  interests[user] */\n      0xffffffffffffffffffffffffffffffffffffffff\n      and\n      0xffffffffffffffffffffffffffffffffffffffff\n      and\n      dup2\n      mstore\n      0x20\n      add\n      swap1\n      dup2\n      mstore\n      0x20\n      add\n      0x00\n      keccak256\n        /* \"contracts/mod07/Bank.sol\":1877:1909  interests[user].lastInterestTime */\n      0x01\n      add\n        /* \"contracts/mod07/Bank.sol\":1877:1927  interests[user].lastInterestTime = block.timestamp */\n      dup2\n      swap1\n      sstore\n      pop\n        /* \"contracts/mod07/Bank.sol\":1956:1960  user */\n      dup2\n        /* \"contracts/mod07/Bank.sol\":1943:1971  InterestPaid(user, interest) */\n      0xffffffffffffffffffffffffffffffffffffffff\n      and\n      0x16cbc685358ca7d4e6b273dcdf2cb5d18c80b950aa2319b519756cd016233a6c\n        /* \"contracts/mod07/Bank.sol\":1962:1970  interest */\n      dup3\n        /* \"contracts/mod07/Bank.sol\":1943:1971  InterestPaid(user, interest) */\n      mload(0x40)\n      tag_98\n      swap2\n      swap1\n      tag_27\n      jump\t// in\n    tag_98:\n      mload(0x40)\n      dup1\n      swap2\n      sub\n      swap1\n      log2\n        /* \"contracts/mod07/Bank.sol\":1725:1979  {... */\n      pop\n        /* \"contracts/mod07/Bank.sol\":1675:1979  function calculateInterest(address user) internal {... */\n      pop\n      jump\t// out\n        /* \"contracts/mod07/Bank.sol\":1987:2272  function estimateInterest(address user) internal view returns (uint256) {... */\n    tag_72:\n        /* \"contracts/mod07/Bank.sol\":2050:2057  uint256 */\n      0x00\n        /* \"contracts/mod07/Bank.sol\":2070:2089  uint256 timeElapsed */\n      dup1\n        /* \"contracts/mod07/Bank.sol\":2110:2119  interests */\n      0x03\n        /* \"contracts/mod07/Bank.sol\":2110:2125  interests[user] */\n      0x00\n        /* \"contracts/mod07/Bank.sol\":2120:2124  user */\n      dup5\n        /* \"contracts/mod07/Bank.sol\":2110:2125  interests[user] */\n      0xffffffffffffffffffffffffffffffffffffffff\n      and\n      0xffffffffffffffffffffffffffffffffffffffff\n      and\n      dup2\n      mstore\n      0x20\n      add\n      swap1\n      dup2\n      mstore\n      0x20\n      add\n      0x00\n      keccak256\n        /* \"contracts/mod07/Bank.sol\":2110:2142  interests[user].lastInterestTime */\n      0x01\n      add\n      sload\n        /* \"contracts/mod07/Bank.sol\":2092:2107  block.timestamp */\n      timestamp\n        /* \"contracts/mod07/Bank.sol\":2092:2142  block.timestamp - interests[user].lastInterestTime */\n      tag_100\n      swap2\n      swap1\n      tag_65\n      jump\t// in\n    tag_100:\n        /* \"contracts/mod07/Bank.sol\":2070:2142  uint256 timeElapsed = block.timestamp - interests[user].lastInterestTime */\n      swap1\n      pop\n        /* \"contracts/mod07/Bank.sol\":2153:2169  uint256 interest */\n      0x00\n        /* \"contracts/mod07/Bank.sol\":2230:2238  365 days */\n      0x01e13380\n        /* \"contracts/mod07/Bank.sol\":2216:2227  timeElapsed */\n      dup3\n        /* \"contracts/mod07/Bank.sol\":2210:2213  100 */\n      0x64\n        /* \"contracts/mod07/Bank.sol\":2189:2207  annualInterestRate */\n      sload(0x01)\n        /* \"contracts/mod07/Bank.sol\":2172:2180  balances */\n      0x02\n        /* \"contracts/mod07/Bank.sol\":2172:2186  balances[user] */\n      0x00\n        /* \"contracts/mod07/Bank.sol\":2181:2185  user */\n      dup10\n        /* \"contracts/mod07/Bank.sol\":2172:2186  balances[user] */\n      0xffffffffffffffffffffffffffffffffffffffff\n      and\n      0xffffffffffffffffffffffffffffffffffffffff\n      and\n      dup2\n      mstore\n      0x20\n      add\n      swap1\n      dup2\n      mstore\n      0x20\n      add\n      0x00\n      keccak256\n      sload\n        /* \"contracts/mod07/Bank.sol\":2172:2207  balances[user] * annualInterestRate */\n      tag_101\n      swap2\n      swap1\n      tag_102\n      jump\t// in\n    tag_101:\n        /* \"contracts/mod07/Bank.sol\":2172:2213  balances[user] * annualInterestRate / 100 */\n      tag_103\n      swap2\n      swap1\n      tag_104\n      jump\t// in\n    tag_103:\n        /* \"contracts/mod07/Bank.sol\":2172:2227  balances[user] * annualInterestRate / 100 * timeElapsed */\n      tag_105\n      swap2\n      swap1\n      tag_102\n      jump\t// in\n    tag_105:\n        /* \"contracts/mod07/Bank.sol\":2172:2238  balances[user] * annualInterestRate / 100 * timeElapsed / 365 days */\n      tag_106\n      swap2\n      swap1\n      tag_104\n      jump\t// in\n    tag_106:\n        /* \"contracts/mod07/Bank.sol\":2153:2238  uint256 interest = balances[user] * annualInterestRate / 100 * timeElapsed / 365 days */\n      swap1\n      pop\n        /* \"contracts/mod07/Bank.sol\":2256:2264  interest */\n      dup1\n        /* \"contracts/mod07/Bank.sol\":2249:2264  return interest */\n      swap3\n      pop\n      pop\n      pop\n        /* \"contracts/mod07/Bank.sol\":1987:2272  function estimateInterest(address user) internal view returns (uint256) {... */\n      swap2\n      swap1\n      pop\n      jump\t// out\n        /* \"#utility.yul\":88:205   */\n    tag_108:\n        /* \"#utility.yul\":197:198   */\n      0x00\n        /* \"#utility.yul\":194:195   */\n      dup1\n        /* \"#utility.yul\":187:199   */\n      revert\n        /* \"#utility.yul\":334:411   */\n    tag_110:\n        /* \"#utility.yul\":371:378   */\n      0x00\n        /* \"#utility.yul\":400:405   */\n      dup2\n        /* \"#utility.yul\":389:405   */\n      swap1\n      pop\n        /* \"#utility.yul\":334:411   */\n      swap2\n      swap1\n      pop\n      jump\t// out\n        /* \"#utility.yul\":417:539   */\n    tag_111:\n        /* \"#utility.yul\":490:514   */\n      tag_133\n        /* \"#utility.yul\":508:513   */\n      dup2\n        /* \"#utility.yul\":490:514   */\n      tag_110\n      jump\t// in\n    tag_133:\n        /* \"#utility.yul\":483:488   */\n      dup2\n        /* \"#utility.yul\":480:515   */\n      eq\n        /* \"#utility.yul\":470:533   */\n      tag_134\n      jumpi\n        /* \"#utility.yul\":529:530   */\n      0x00\n        /* \"#utility.yul\":526:527   */\n      dup1\n        /* \"#utility.yul\":519:531   */\n      revert\n        /* \"#utility.yul\":470:533   */\n    tag_134:\n        /* \"#utility.yul\":417:539   */\n      pop\n      jump\t// out\n        /* \"#utility.yul\":545:684   */\n    tag_112:\n        /* \"#utility.yul\":591:596   */\n      0x00\n        /* \"#utility.yul\":629:635   */\n      dup2\n        /* \"#utility.yul\":616:636   */\n      calldataload\n        /* \"#utility.yul\":607:636   */\n      swap1\n      pop\n        /* \"#utility.yul\":645:678   */\n      tag_136\n        /* \"#utility.yul\":672:677   */\n      dup2\n        /* \"#utility.yul\":645:678   */\n      tag_111\n      jump\t// in\n    tag_136:\n        /* \"#utility.yul\":545:684   */\n      swap3\n      swap2\n      pop\n      pop\n      jump\t// out\n        /* \"#utility.yul\":690:1019   */\n    tag_15:\n        /* \"#utility.yul\":749:755   */\n      0x00\n        /* \"#utility.yul\":798:800   */\n      0x20\n        /* \"#utility.yul\":786:795   */\n      dup3\n        /* \"#utility.yul\":777:784   */\n      dup5\n        /* \"#utility.yul\":773:796   */\n      sub\n        /* \"#utility.yul\":769:801   */\n      slt\n        /* \"#utility.yul\":766:885   */\n      iszero\n      tag_138\n      jumpi\n        /* \"#utility.yul\":804:883   */\n      tag_139\n      tag_108\n      jump\t// in\n    tag_139:\n        /* \"#utility.yul\":766:885   */\n    tag_138:\n        /* \"#utility.yul\":924:925   */\n      0x00\n        /* \"#utility.yul\":949:1002   */\n      tag_140\n        /* \"#utility.yul\":994:1001   */\n      dup5\n        /* \"#utility.yul\":985:991   */\n      dup3\n        /* \"#utility.yul\":974:983   */\n      dup6\n        /* \"#utility.yul\":970:992   */\n      add\n        /* \"#utility.yul\":949:1002   */\n      tag_112\n      jump\t// in\n    tag_140:\n        /* \"#utility.yul\":939:1002   */\n      swap2\n      pop\n        /* \"#utility.yul\":895:1012   */\n      pop\n        /* \"#utility.yul\":690:1019   */\n      swap3\n      swap2\n      pop\n      pop\n      jump\t// out\n        /* \"#utility.yul\":1025:1151   */\n    tag_113:\n        /* \"#utility.yul\":1062:1069   */\n      0x00\n        /* \"#utility.yul\":1102:1144   */\n      0xffffffffffffffffffffffffffffffffffffffff\n        /* \"#utility.yul\":1095:1100   */\n      dup3\n        /* \"#utility.yul\":1091:1145   */\n      and\n        /* \"#utility.yul\":1080:1145   */\n      swap1\n      pop\n        /* \"#utility.yul\":1025:1151   */\n      swap2\n      swap1\n      pop\n      jump\t// out\n        /* \"#utility.yul\":1157:1253   */\n    tag_114:\n        /* \"#utility.yul\":1194:1201   */\n      0x00\n        /* \"#utility.yul\":1223:1247   */\n      tag_143\n        /* \"#utility.yul\":1241:1246   */\n      dup3\n        /* \"#utility.yul\":1223:1247   */\n      tag_113\n      jump\t// in\n    tag_143:\n        /* \"#utility.yul\":1212:1247   */\n      swap1\n      pop\n        /* \"#utility.yul\":1157:1253   */\n      swap2\n      swap1\n      pop\n      jump\t// out\n        /* \"#utility.yul\":1259:1381   */\n    tag_115:\n        /* \"#utility.yul\":1332:1356   */\n      tag_145\n        /* \"#utility.yul\":1350:1355   */\n      dup2\n        /* \"#utility.yul\":1332:1356   */\n      tag_114\n      jump\t// in\n    tag_145:\n        /* \"#utility.yul\":1325:1330   */\n      dup2\n        /* \"#utility.yul\":1322:1357   */\n      eq\n        /* \"#utility.yul\":1312:1375   */\n      tag_146\n      jumpi\n        /* \"#utility.yul\":1371:1372   */\n      0x00\n        /* \"#utility.yul\":1368:1369   */\n      dup1\n        /* \"#utility.yul\":1361:1373   */\n      revert\n        /* \"#utility.yul\":1312:1375   */\n    tag_146:\n        /* \"#utility.yul\":1259:1381   */\n      pop\n      jump\t// out\n        /* \"#utility.yul\":1387:1526   */\n    tag_116:\n        /* \"#utility.yul\":1433:1438   */\n      0x00\n        /* \"#utility.yul\":1471:1477   */\n      dup2\n        /* \"#utility.yul\":1458:1478   */\n      calldataload\n        /* \"#utility.yul\":1449:1478   */\n      swap1\n      pop\n        /* \"#utility.yul\":1487:1520   */\n      tag_148\n        /* \"#utility.yul\":1514:1519   */\n      dup2\n        /* \"#utility.yul\":1487:1520   */\n      tag_115\n      jump\t// in\n    tag_148:\n        /* \"#utility.yul\":1387:1526   */\n      swap3\n      swap2\n      pop\n      pop\n      jump\t// out\n        /* \"#utility.yul\":1532:1861   */\n    tag_24:\n        /* \"#utility.yul\":1591:1597   */\n      0x00\n        /* \"#utility.yul\":1640:1642   */\n      0x20\n        /* \"#utility.yul\":1628:1637   */\n      dup3\n        /* \"#utility.yul\":1619:1626   */\n      dup5\n        /* \"#utility.yul\":1615:1638   */\n      sub\n        /* \"#utility.yul\":1611:1643   */\n      slt\n        /* \"#utility.yul\":1608:1727   */\n      iszero\n      tag_150\n      jumpi\n        /* \"#utility.yul\":1646:1725   */\n      tag_151\n      tag_108\n      jump\t// in\n    tag_151:\n        /* \"#utility.yul\":1608:1727   */\n    tag_150:\n        /* \"#utility.yul\":1766:1767   */\n      0x00\n        /* \"#utility.yul\":1791:1844   */\n      tag_152\n        /* \"#utility.yul\":1836:1843   */\n      dup5\n        /* \"#utility.yul\":1827:1833   */\n      dup3\n        /* \"#utility.yul\":1816:1825   */\n      dup6\n        /* \"#utility.yul\":1812:1834   */\n      add\n        /* \"#utility.yul\":1791:1844   */\n      tag_116\n      jump\t// in\n    tag_152:\n        /* \"#utility.yul\":1781:1844   */\n      swap2\n      pop\n        /* \"#utility.yul\":1737:1854   */\n      pop\n        /* \"#utility.yul\":1532:1861   */\n      swap3\n      swap2\n      pop\n      pop\n      jump\t// out\n        /* \"#utility.yul\":1867:1985   */\n    tag_117:\n        /* \"#utility.yul\":1954:1978   */\n      tag_154\n        /* \"#utility.yul\":1972:1977   */\n      dup2\n        /* \"#utility.yul\":1954:1978   */\n      tag_110\n      jump\t// in\n    tag_154:\n        /* \"#utility.yul\":1949:1952   */\n      dup3\n        /* \"#utility.yul\":1942:1979   */\n      mstore\n        /* \"#utility.yul\":1867:1985   */\n      pop\n      pop\n      jump\t// out\n        /* \"#utility.yul\":1991:2213   */\n    tag_27:\n        /* \"#utility.yul\":2084:2088   */\n      0x00\n        /* \"#utility.yul\":2122:2124   */\n      0x20\n        /* \"#utility.yul\":2111:2120   */\n      dup3\n        /* \"#utility.yul\":2107:2125   */\n      add\n        /* \"#utility.yul\":2099:2125   */\n      swap1\n      pop\n        /* \"#utility.yul\":2135:2206   */\n      tag_156\n        /* \"#utility.yul\":2203:2204   */\n      0x00\n        /* \"#utility.yul\":2192:2201   */\n      dup4\n        /* \"#utility.yul\":2188:2205   */\n      add\n        /* \"#utility.yul\":2179:2185   */\n      dup5\n        /* \"#utility.yul\":2135:2206   */\n      tag_117\n      jump\t// in\n    tag_156:\n        /* \"#utility.yul\":1991:2213   */\n      swap3\n      swap2\n      pop\n      pop\n      jump\t// out\n        /* \"#utility.yul\":2219:2388   */\n    tag_118:\n        /* \"#utility.yul\":2303:2314   */\n      0x00\n        /* \"#utility.yul\":2337:2343   */\n      dup3\n        /* \"#utility.yul\":2332:2335   */\n      dup3\n        /* \"#utility.yul\":2325:2344   */\n      mstore\n        /* \"#utility.yul\":2377:2381   */\n      0x20\n        /* \"#utility.yul\":2372:2375   */\n      dup3\n        /* \"#utility.yul\":2368:2382   */\n      add\n        /* \"#utility.yul\":2353:2382   */\n      swap1\n      pop\n        /* \"#utility.yul\":2219:2388   */\n      swap3\n      swap2\n      pop\n      pop\n      jump\t// out\n        /* \"#utility.yul\":2394:2556   */\n    tag_119:\n        /* \"#utility.yul\":2534:2548   */\n      0x554e415554484f52495a45440000000000000000000000000000000000000000\n        /* \"#utility.yul\":2530:2531   */\n      0x00\n        /* \"#utility.yul\":2522:2528   */\n      dup3\n        /* \"#utility.yul\":2518:2532   */\n      add\n        /* \"#utility.yul\":2511:2549   */\n      mstore\n        /* \"#utility.yul\":2394:2556   */\n      pop\n      jump\t// out\n        /* \"#utility.yul\":2562:2928   */\n    tag_120:\n        /* \"#utility.yul\":2704:2707   */\n      0x00\n        /* \"#utility.yul\":2725:2792   */\n      tag_160\n        /* \"#utility.yul\":2789:2791   */\n      0x0c\n        /* \"#utility.yul\":2784:2787   */\n      dup4\n        /* \"#utility.yul\":2725:2792   */\n      tag_118\n      jump\t// in\n    tag_160:\n        /* \"#utility.yul\":2718:2792   */\n      swap2\n      pop\n        /* \"#utility.yul\":2801:2894   */\n      tag_161\n        /* \"#utility.yul\":2890:2893   */\n      dup3\n        /* \"#utility.yul\":2801:2894   */\n      tag_119\n      jump\t// in\n    tag_161:\n        /* \"#utility.yul\":2919:2921   */\n      0x20\n        /* \"#utility.yul\":2914:2917   */\n      dup3\n        /* \"#utility.yul\":2910:2922   */\n      add\n        /* \"#utility.yul\":2903:2922   */\n      swap1\n      pop\n        /* \"#utility.yul\":2562:2928   */\n      swap2\n      swap1\n      pop\n      jump\t// out\n        /* \"#utility.yul\":2934:3353   */\n    tag_55:\n        /* \"#utility.yul\":3100:3104   */\n      0x00\n        /* \"#utility.yul\":3138:3140   */\n      0x20\n        /* \"#utility.yul\":3127:3136   */\n      dup3\n        /* \"#utility.yul\":3123:3141   */\n      add\n        /* \"#utility.yul\":3115:3141   */\n      swap1\n      pop\n        /* \"#utility.yul\":3187:3196   */\n      dup2\n        /* \"#utility.yul\":3181:3185   */\n      dup2\n        /* \"#utility.yul\":3177:3197   */\n      sub\n        /* \"#utility.yul\":3173:3174   */\n      0x00\n        /* \"#utility.yul\":3162:3171   */\n      dup4\n        /* \"#utility.yul\":3158:3175   */\n      add\n        /* \"#utility.yul\":3151:3198   */\n      mstore\n        /* \"#utility.yul\":3215:3346   */\n      tag_163\n        /* \"#utility.yul\":3341:3345   */\n      dup2\n        /* \"#utility.yul\":3215:3346   */\n      tag_120\n      jump\t// in\n    tag_163:\n        /* \"#utility.yul\":3207:3346   */\n      swap1\n      pop\n        /* \"#utility.yul\":2934:3353   */\n      swap2\n      swap1\n      pop\n      jump\t// out\n        /* \"#utility.yul\":3359:3529   */\n    tag_121:\n        /* \"#utility.yul\":3499:3521   */\n      0x494e53554646494349454e545f42414c414e4345000000000000000000000000\n        /* \"#utility.yul\":3495:3496   */\n      0x00\n        /* \"#utility.yul\":3487:3493   */\n      dup3\n        /* \"#utility.yul\":3483:3497   */\n      add\n        /* \"#utility.yul\":3476:3522   */\n      mstore\n        /* \"#utility.yul\":3359:3529   */\n      pop\n      jump\t// out\n        /* \"#utility.yul\":3535:3901   */\n    tag_122:\n        /* \"#utility.yul\":3677:3680   */\n      0x00\n        /* \"#utility.yul\":3698:3765   */\n      tag_166\n        /* \"#utility.yul\":3762:3764   */\n      0x14\n        /* \"#utility.yul\":3757:3760   */\n      dup4\n        /* \"#utility.yul\":3698:3765   */\n      tag_118\n      jump\t// in\n    tag_166:\n        /* \"#utility.yul\":3691:3765   */\n      swap2\n      pop\n        /* \"#utility.yul\":3774:3867   */\n      tag_167\n        /* \"#utility.yul\":3863:3866   */\n      dup3\n        /* \"#utility.yul\":3774:3867   */\n      tag_121\n      jump\t// in\n    tag_167:\n        /* \"#utility.yul\":3892:3894   */\n      0x20\n        /* \"#utility.yul\":3887:3890   */\n      dup3\n        /* \"#utility.yul\":3883:3895   */\n      add\n        /* \"#utility.yul\":3876:3895   */\n      swap1\n      pop\n        /* \"#utility.yul\":3535:3901   */\n      swap2\n      swap1\n      pop\n      jump\t// out\n        /* \"#utility.yul\":3907:4326   */\n    tag_61:\n        /* \"#utility.yul\":4073:4077   */\n      0x00\n        /* \"#utility.yul\":4111:4113   */\n      0x20\n        /* \"#utility.yul\":4100:4109   */\n      dup3\n        /* \"#utility.yul\":4096:4114   */\n      add\n        /* \"#utility.yul\":4088:4114   */\n      swap1\n      pop\n        /* \"#utility.yul\":4160:4169   */\n      dup2\n        /* \"#utility.yul\":4154:4158   */\n      dup2\n        /* \"#utility.yul\":4150:4170   */\n      sub\n        /* \"#utility.yul\":4146:4147   */\n      0x00\n        /* \"#utility.yul\":4135:4144   */\n      dup4\n        /* \"#utility.yul\":4131:4148   */\n      add\n        /* \"#utility.yul\":4124:4171   */\n      mstore\n        /* \"#utility.yul\":4188:4319   */\n      tag_169\n        /* \"#utility.yul\":4314:4318   */\n      dup2\n        /* \"#utility.yul\":4188:4319   */\n      tag_122\n      jump\t// in\n    tag_169:\n        /* \"#utility.yul\":4180:4319   */\n      swap1\n      pop\n        /* \"#utility.yul\":3907:4326   */\n      swap2\n      swap1\n      pop\n      jump\t// out\n        /* \"#utility.yul\":4332:4512   */\n    tag_123:\n        /* \"#utility.yul\":4380:4457   */\n      0x4e487b7100000000000000000000000000000000000000000000000000000000\n        /* \"#utility.yul\":4377:4378   */\n      0x00\n        /* \"#utility.yul\":4370:4458   */\n      mstore\n        /* \"#utility.yul\":4477:4481   */\n      0x11\n        /* \"#utility.yul\":4474:4475   */\n      0x04\n        /* \"#utility.yul\":4467:4482   */\n      mstore\n        /* \"#utility.yul\":4501:4505   */\n      0x24\n        /* \"#utility.yul\":4498:4499   */\n      0x00\n        /* \"#utility.yul\":4491:4506   */\n      revert\n        /* \"#utility.yul\":4518:4712   */\n    tag_65:\n        /* \"#utility.yul\":4558:4562   */\n      0x00\n        /* \"#utility.yul\":4578:4598   */\n      tag_172\n        /* \"#utility.yul\":4596:4597   */\n      dup3\n        /* \"#utility.yul\":4578:4598   */\n      tag_110\n      jump\t// in\n    tag_172:\n        /* \"#utility.yul\":4573:4598   */\n      swap2\n      pop\n        /* \"#utility.yul\":4612:4632   */\n      tag_173\n        /* \"#utility.yul\":4630:4631   */\n      dup4\n        /* \"#utility.yul\":4612:4632   */\n      tag_110\n      jump\t// in\n    tag_173:\n        /* \"#utility.yul\":4607:4632   */\n      swap3\n      pop\n        /* \"#utility.yul\":4656:4657   */\n      dup3\n        /* \"#utility.yul\":4653:4654   */\n      dup3\n        /* \"#utility.yul\":4649:4658   */\n      sub\n        /* \"#utility.yul\":4641:4658   */\n      swap1\n      pop\n        /* \"#utility.yul\":4680:4681   */\n      dup2\n        /* \"#utility.yul\":4674:4678   */\n      dup2\n        /* \"#utility.yul\":4671:4682   */\n      gt\n        /* \"#utility.yul\":4668:4705   */\n      iszero\n      tag_174\n      jumpi\n        /* \"#utility.yul\":4685:4703   */\n      tag_175\n      tag_123\n      jump\t// in\n    tag_175:\n        /* \"#utility.yul\":4668:4705   */\n    tag_174:\n        /* \"#utility.yul\":4518:4712   */\n      swap3\n      swap2\n      pop\n      pop\n      jump\t// out\n        /* \"#utility.yul\":4718:4909   */\n    tag_74:\n        /* \"#utility.yul\":4758:4761   */\n      0x00\n        /* \"#utility.yul\":4777:4797   */\n      tag_177\n        /* \"#utility.yul\":4795:4796   */\n      dup3\n        /* \"#utility.yul\":4777:4797   */\n      tag_110\n      jump\t// in\n    tag_177:\n        /* \"#utility.yul\":4772:4797   */\n      swap2\n      pop\n        /* \"#utility.yul\":4811:4831   */\n      tag_178\n        /* \"#utility.yul\":4829:4830   */\n      dup4\n        /* \"#utility.yul\":4811:4831   */\n      tag_110\n      jump\t// in\n    tag_178:\n        /* \"#utility.yul\":4806:4831   */\n      swap3\n      pop\n        /* \"#utility.yul\":4854:4855   */\n      dup3\n        /* \"#utility.yul\":4851:4852   */\n      dup3\n        /* \"#utility.yul\":4847:4856   */\n      add\n        /* \"#utility.yul\":4840:4856   */\n      swap1\n      pop\n        /* \"#utility.yul\":4875:4878   */\n      dup1\n        /* \"#utility.yul\":4872:4873   */\n      dup3\n        /* \"#utility.yul\":4869:4879   */\n      gt\n        /* \"#utility.yul\":4866:4902   */\n      iszero\n      tag_179\n      jumpi\n        /* \"#utility.yul\":4882:4900   */\n      tag_180\n      tag_123\n      jump\t// in\n    tag_180:\n        /* \"#utility.yul\":4866:4902   */\n    tag_179:\n        /* \"#utility.yul\":4718:4909   */\n      swap3\n      swap2\n      pop\n      pop\n      jump\t// out\n        /* \"#utility.yul\":4915:5082   */\n    tag_124:\n        /* \"#utility.yul\":5055:5074   */\n      0x4d494e5f45544845525f4e4f545f4d4554000000000000000000000000000000\n        /* \"#utility.yul\":5051:5052   */\n      0x00\n        /* \"#utility.yul\":5043:5049   */\n      dup3\n        /* \"#utility.yul\":5039:5053   */\n      add\n        /* \"#utility.yul\":5032:5075   */\n      mstore\n        /* \"#utility.yul\":4915:5082   */\n      pop\n      jump\t// out\n        /* \"#utility.yul\":5088:5454   */\n    tag_125:\n        /* \"#utility.yul\":5230:5233   */\n      0x00\n        /* \"#utility.yul\":5251:5318   */\n      tag_183\n        /* \"#utility.yul\":5315:5317   */\n      0x11\n        /* \"#utility.yul\":5310:5313   */\n      dup4\n        /* \"#utility.yul\":5251:5318   */\n      tag_118\n      jump\t// in\n    tag_183:\n        /* \"#utility.yul\":5244:5318   */\n      swap2\n      pop\n        /* \"#utility.yul\":5327:5420   */\n      tag_184\n        /* \"#utility.yul\":5416:5419   */\n      dup3\n        /* \"#utility.yul\":5327:5420   */\n      tag_124\n      jump\t// in\n    tag_184:\n        /* \"#utility.yul\":5445:5447   */\n      0x20\n        /* \"#utility.yul\":5440:5443   */\n      dup3\n        /* \"#utility.yul\":5436:5448   */\n      add\n        /* \"#utility.yul\":5429:5448   */\n      swap1\n      pop\n        /* \"#utility.yul\":5088:5454   */\n      swap2\n      swap1\n      pop\n      jump\t// out\n        /* \"#utility.yul\":5460:5879   */\n    tag_84:\n        /* \"#utility.yul\":5626:5630   */\n      0x00\n        /* \"#utility.yul\":5664:5666   */\n      0x20\n        /* \"#utility.yul\":5653:5662   */\n      dup3\n        /* \"#utility.yul\":5649:5667   */\n      add\n        /* \"#utility.yul\":5641:5667   */\n      swap1\n      pop\n        /* \"#utility.yul\":5713:5722   */\n      dup2\n        /* \"#utility.yul\":5707:5711   */\n      dup2\n        /* \"#utility.yul\":5703:5723   */\n      sub\n        /* \"#utility.yul\":5699:5700   */\n      0x00\n        /* \"#utility.yul\":5688:5697   */\n      dup4\n        /* \"#utility.yul\":5684:5701   */\n      add\n        /* \"#utility.yul\":5677:5724   */\n      mstore\n        /* \"#utility.yul\":5741:5872   */\n      tag_186\n        /* \"#utility.yul\":5867:5871   */\n      dup2\n        /* \"#utility.yul\":5741:5872   */\n      tag_125\n      jump\t// in\n    tag_186:\n        /* \"#utility.yul\":5733:5872   */\n      swap1\n      pop\n        /* \"#utility.yul\":5460:5879   */\n      swap2\n      swap1\n      pop\n      jump\t// out\n        /* \"#utility.yul\":5885:6295   */\n    tag_102:\n        /* \"#utility.yul\":5925:5932   */\n      0x00\n        /* \"#utility.yul\":5948:5968   */\n      tag_188\n        /* \"#utility.yul\":5966:5967   */\n      dup3\n        /* \"#utility.yul\":5948:5968   */\n      tag_110\n      jump\t// in\n    tag_188:\n        /* \"#utility.yul\":5943:5968   */\n      swap2\n      pop\n        /* \"#utility.yul\":5982:6002   */\n      tag_189\n        /* \"#utility.yul\":6000:6001   */\n      dup4\n        /* \"#utility.yul\":5982:6002   */\n      tag_110\n      jump\t// in\n    tag_189:\n        /* \"#utility.yul\":5977:6002   */\n      swap3\n      pop\n        /* \"#utility.yul\":6037:6038   */\n      dup3\n        /* \"#utility.yul\":6034:6035   */\n      dup3\n        /* \"#utility.yul\":6030:6039   */\n      mul\n        /* \"#utility.yul\":6059:6089   */\n      tag_190\n        /* \"#utility.yul\":6077:6088   */\n      dup2\n        /* \"#utility.yul\":6059:6089   */\n      tag_110\n      jump\t// in\n    tag_190:\n        /* \"#utility.yul\":6048:6089   */\n      swap2\n      pop\n        /* \"#utility.yul\":6238:6239   */\n      dup3\n        /* \"#utility.yul\":6229:6236   */\n      dup3\n        /* \"#utility.yul\":6225:6240   */\n      div\n        /* \"#utility.yul\":6222:6223   */\n      dup5\n        /* \"#utility.yul\":6219:6241   */\n      eq\n        /* \"#utility.yul\":6199:6200   */\n      dup4\n        /* \"#utility.yul\":6192:6201   */\n      iszero\n        /* \"#utility.yul\":6172:6255   */\n      or\n        /* \"#utility.yul\":6149:6288   */\n      tag_191\n      jumpi\n        /* \"#utility.yul\":6268:6286   */\n      tag_192\n      tag_123\n      jump\t// in\n    tag_192:\n        /* \"#utility.yul\":6149:6288   */\n    tag_191:\n        /* \"#utility.yul\":5933:6295   */\n      pop\n        /* \"#utility.yul\":5885:6295   */\n      swap3\n      swap2\n      pop\n      pop\n      jump\t// out\n        /* \"#utility.yul\":6301:6481   */\n    tag_126:\n        /* \"#utility.yul\":6349:6426   */\n      0x4e487b7100000000000000000000000000000000000000000000000000000000\n        /* \"#utility.yul\":6346:6347   */\n      0x00\n        /* \"#utility.yul\":6339:6427   */\n      mstore\n        /* \"#utility.yul\":6446:6450   */\n      0x12\n        /* \"#utility.yul\":6443:6444   */\n      0x04\n        /* \"#utility.yul\":6436:6451   */\n      mstore\n        /* \"#utility.yul\":6470:6474   */\n      0x24\n        /* \"#utility.yul\":6467:6468   */\n      0x00\n        /* \"#utility.yul\":6460:6475   */\n      revert\n        /* \"#utility.yul\":6487:6672   */\n    tag_104:\n        /* \"#utility.yul\":6527:6528   */\n      0x00\n        /* \"#utility.yul\":6544:6564   */\n      tag_195\n        /* \"#utility.yul\":6562:6563   */\n      dup3\n        /* \"#utility.yul\":6544:6564   */\n      tag_110\n      jump\t// in\n    tag_195:\n        /* \"#utility.yul\":6539:6564   */\n      swap2\n      pop\n        /* \"#utility.yul\":6578:6598   */\n      tag_196\n        /* \"#utility.yul\":6596:6597   */\n      dup4\n        /* \"#utility.yul\":6578:6598   */\n      tag_110\n      jump\t// in\n    tag_196:\n        /* \"#utility.yul\":6573:6598   */\n      swap3\n      pop\n        /* \"#utility.yul\":6617:6618   */\n      dup3\n        /* \"#utility.yul\":6607:6642   */\n      tag_197\n      jumpi\n        /* \"#utility.yul\":6622:6640   */\n      tag_198\n      tag_126\n      jump\t// in\n    tag_198:\n        /* \"#utility.yul\":6607:6642   */\n    tag_197:\n        /* \"#utility.yul\":6664:6665   */\n      dup3\n        /* \"#utility.yul\":6661:6662   */\n      dup3\n        /* \"#utility.yul\":6657:6666   */\n      div\n        /* \"#utility.yul\":6652:6666   */\n      swap1\n      pop\n        /* \"#utility.yul\":6487:6672   */\n      swap3\n      swap2\n      pop\n      pop\n      jump\t// out\n\n    auxdata: 0xa264697066735822122083adad271bbcb286acdd6d4986524d40f9d35155b6c9657c82e1153e799264df64736f6c63430008180033\n}\n",
				"bytecode": {
					"linkReferences": {},
					"object": "60806040526005600155348015610014575f80fd5b50325f806101000a81548173ffffffffffffffffffffffffffffffffffffffff021916908373ffffffffffffffffffffffffffffffffffffffff160217905550610eb8806100615f395ff3fe608060405260043610610085575f3560e01c80634f1d0c7a116100585780634f1d0c7a1461013f578063bf8853c61461017b578063d0e30db0146101b7578063dc6464ca146101c1578063fd3131df146101eb57610085565b80631bf8b3cf146100895780632e1a7d4d146100b157806347734892146100d95780634c73890914610115575b5f80fd5b348015610094575f80fd5b506100af60048036038101906100aa9190610b31565b610215565b005b3480156100bc575f80fd5b506100d760048036038101906100d29190610b31565b6102ac565b005b3480156100e4575f80fd5b506100ff60048036038101906100fa9190610bb6565b61041d565b60405161010c9190610bf0565b60405180910390f35b348015610120575f80fd5b506101296104f1565b6040516101369190610bf0565b60405180910390f35b34801561014a575f80fd5b5061016560048036038101906101609190610bb6565b61054d565b6040516101729190610bf0565b60405180910390f35b348015610186575f80fd5b506101a1600480360381019061019c9190610bb6565b610624565b6040516101ae9190610bf0565b60405180910390f35b6101bf6106fa565b005b3480156101cc575f80fd5b506101d561087a565b6040516101e29190610bf0565b60405180910390f35b3480156101f6575f80fd5b506101ff6108d8565b60405161020c9190610bf0565b60405180910390f35b5f8054906101000a900473ffffffffffffffffffffffffffffffffffffffff1673ffffffffffffffffffffffffffffffffffffffff163373ffffffffffffffffffffffffffffffffffffffff16146102a2576040517f08c379a000000000000000000000000000000000000000000000000000000000815260040161029990610c63565b60405180910390fd5b8060018190555050565b6102b5336108e1565b8060025f3373ffffffffffffffffffffffffffffffffffffffff1673ffffffffffffffffffffffffffffffffffffffff1681526020019081526020015f20541015610335576040517f08c379a000000000000000000000000000000000000000000000000000000000815260040161032c90610ccb565b60405180910390fd5b3373ffffffffffffffffffffffffffffffffffffffff166108fc8290811502906040515f60405180830381858888f19350505050158015610378573d5f803e3d5ffd5b508060025f3373ffffffffffffffffffffffffffffffffffffffff1673ffffffffffffffffffffffffffffffffffffffff1681526020019081526020015f205f8282546103c59190610d16565b925050819055503373ffffffffffffffffffffffffffffffffffffffff167f7084f5476618d8e60b11ef0d7d3f06914655adb8793e28ff7f018d4c76d505d5826040516104129190610bf0565b60405180910390a250565b5f805f9054906101000a900473ffffffffffffffffffffffffffffffffffffffff1673ffffffffffffffffffffffffffffffffffffffff163373ffffffffffffffffffffffffffffffffffffffff16146104ac576040517f08c379a00000000000000000000000000000000000000000000000000000000081526004016104a390610c63565b60405180910390fd5b60025f8373ffffffffffffffffffffffffffffffffffffffff1673ffffffffffffffffffffffffffffffffffffffff1681526020019081526020015f20549050919050565b5f806104fc33610a2c565b90508060025f3373ffffffffffffffffffffffffffffffffffffffff1673ffffffffffffffffffffffffffffffffffffffff1681526020019081526020015f20546105479190610d49565b91505090565b5f805f9054906101000a900473ffffffffffffffffffffffffffffffffffffffff1673ffffffffffffffffffffffffffffffffffffffff163373ffffffffffffffffffffffffffffffffffffffff16146105dc576040517f08c379a00000000000000000000000000000000000000000000000000000000081526004016105d390610c63565b60405180910390fd5b60035f8373ffffffffffffffffffffffffffffffffffffffff1673ffffffffffffffffffffffffffffffffffffffff1681526020019081526020015f20600101549050919050565b5f805f9054906101000a900473ffffffffffffffffffffffffffffffffffffffff1673ffffffffffffffffffffffffffffffffffffffff163373ffffffffffffffffffffffffffffffffffffffff16146106b3576040517f08c379a00000000000000000000000000000000000000000000000000000000081526004016106aa90610c63565b60405180910390fd5b60035f8373ffffffffffffffffffffffffffffffffffffffff1673ffffffffffffffffffffffffffffffffffffffff1681526020019081526020015f205f01549050919050565b5f341161073c576040517f08c379a000000000000000000000000000000000000000000000000000000000815260040161073390610dc6565b60405180910390fd5b5f60035f3373ffffffffffffffffffffffffffffffffffffffff1673ffffffffffffffffffffffffffffffffffffffff1681526020019081526020015f2060010154036107cd574260035f3373ffffffffffffffffffffffffffffffffffffffff1673ffffffffffffffffffffffffffffffffffffffff1681526020019081526020015f20600101819055506107d7565b6107d6336108e1565b5b3460025f3373ffffffffffffffffffffffffffffffffffffffff1673ffffffffffffffffffffffffffffffffffffffff1681526020019081526020015f205f8282546108239190610d49565b925050819055503373ffffffffffffffffffffffffffffffffffffffff167f2da466a7b24304f47e87fa2e1e5a81b9831ce54fec19055ce277ca2f39ba42c4346040516108709190610bf0565b60405180910390a2565b5f8061088533610a2c565b90508060035f3373ffffffffffffffffffffffffffffffffffffffff1673ffffffffffffffffffffffffffffffffffffffff1681526020019081526020015f205f01546108d29190610d49565b91505090565b5f600154905090565b5f6108eb82610a2c565b90508060025f8473ffffffffffffffffffffffffffffffffffffffff1673ffffffffffffffffffffffffffffffffffffffff1681526020019081526020015f205f8282546109399190610d49565b925050819055508060035f8473ffffffffffffffffffffffffffffffffffffffff1673ffffffffffffffffffffffffffffffffffffffff1681526020019081526020015f205f015f82825461098e9190610d49565b925050819055504260035f8473ffffffffffffffffffffffffffffffffffffffff1673ffffffffffffffffffffffffffffffffffffffff1681526020019081526020015f20600101819055508173ffffffffffffffffffffffffffffffffffffffff167f16cbc685358ca7d4e6b273dcdf2cb5d18c80b950aa2319b519756cd016233a6c82604051610a209190610bf0565b60405180910390a25050565b5f8060035f8473ffffffffffffffffffffffffffffffffffffffff1673ffffffffffffffffffffffffffffffffffffffff1681526020019081526020015f206001015442610a7a9190610d16565b90505f6301e1338082606460015460025f8973ffffffffffffffffffffffffffffffffffffffff1673ffffffffffffffffffffffffffffffffffffffff1681526020019081526020015f2054610ad09190610de4565b610ada9190610e52565b610ae49190610de4565b610aee9190610e52565b90508092505050919050565b5f80fd5b5f819050919050565b610b1081610afe565b8114610b1a575f80fd5b50565b5f81359050610b2b81610b07565b92915050565b5f60208284031215610b4657610b45610afa565b5b5f610b5384828501610b1d565b91505092915050565b5f73ffffffffffffffffffffffffffffffffffffffff82169050919050565b5f610b8582610b5c565b9050919050565b610b9581610b7b565b8114610b9f575f80fd5b50565b5f81359050610bb081610b8c565b92915050565b5f60208284031215610bcb57610bca610afa565b5b5f610bd884828501610ba2565b91505092915050565b610bea81610afe565b82525050565b5f602082019050610c035f830184610be1565b92915050565b5f82825260208201905092915050565b7f554e415554484f52495a454400000000000000000000000000000000000000005f82015250565b5f610c4d600c83610c09565b9150610c5882610c19565b602082019050919050565b5f6020820190508181035f830152610c7a81610c41565b9050919050565b7f494e53554646494349454e545f42414c414e43450000000000000000000000005f82015250565b5f610cb5601483610c09565b9150610cc082610c81565b602082019050919050565b5f6020820190508181035f830152610ce281610ca9565b9050919050565b7f4e487b71000000000000000000000000000000000000000000000000000000005f52601160045260245ffd5b5f610d2082610afe565b9150610d2b83610afe565b9250828203905081811115610d4357610d42610ce9565b5b92915050565b5f610d5382610afe565b9150610d5e83610afe565b9250828201905080821115610d7657610d75610ce9565b5b92915050565b7f4d494e5f45544845525f4e4f545f4d45540000000000000000000000000000005f82015250565b5f610db0601183610c09565b9150610dbb82610d7c565b602082019050919050565b5f6020820190508181035f830152610ddd81610da4565b9050919050565b5f610dee82610afe565b9150610df983610afe565b9250828202610e0781610afe565b91508282048414831517610e1e57610e1d610ce9565b5b5092915050565b7f4e487b71000000000000000000000000000000000000000000000000000000005f52601260045260245ffd5b5f610e5c82610afe565b9150610e6783610afe565b925082610e7757610e76610e25565b5b82820490509291505056fea264697066735822122083adad271bbcb286acdd6d4986524d40f9d35155b6c9657c82e1153e799264df64736f6c63430008180033",
					"opcodes": "PUSH1 0x80 PUSH1 0x40 MSTORE PUSH1 0x5 PUSH1 0x1 SSTORE CALLVALUE DUP1 ISZERO PUSH2 0x14 JUMPI PUSH0 DUP1 REVERT JUMPDEST POP ORIGIN PUSH0 DUP1 PUSH2 0x100 EXP DUP2 SLOAD DUP2 PUSH20 0xFFFFFFFFFFFFFFFFFFFFFFFFFFFFFFFFFFFFFFFF MUL NOT AND SWAP1 DUP4 PUSH20 0xFFFFFFFFFFFFFFFFFFFFFFFFFFFFFFFFFFFFFFFF AND MUL OR SWAP1 SSTORE POP PUSH2 0xEB8 DUP1 PUSH2 0x61 PUSH0 CODECOPY PUSH0 RETURN INVALID PUSH1 0x80 PUSH1 0x40 MSTORE PUSH1 0x4 CALLDATASIZE LT PUSH2 0x85 JUMPI PUSH0 CALLDATALOAD PUSH1 0xE0 SHR DUP1 PUSH4 0x4F1D0C7A GT PUSH2 0x58 JUMPI DUP1 PUSH4 0x4F1D0C7A EQ PUSH2 0x13F JUMPI DUP1 PUSH4 0xBF8853C6 EQ PUSH2 0x17B JUMPI DUP1 PUSH4 0xD0E30DB0 EQ PUSH2 0x1B7 JUMPI DUP1 PUSH4 0xDC6464CA EQ PUSH2 0x1C1 JUMPI DUP1 PUSH4 0xFD3131DF EQ PUSH2 0x1EB JUMPI PUSH2 0x85 JUMP JUMPDEST DUP1 PUSH4 0x1BF8B3CF EQ PUSH2 0x89 JUMPI DUP1 PUSH4 0x2E1A7D4D EQ PUSH2 0xB1 JUMPI DUP1 PUSH4 0x47734892 EQ PUSH2 0xD9 JUMPI DUP1 PUSH4 0x4C738909 EQ PUSH2 0x115 JUMPI JUMPDEST PUSH0 DUP1 REVERT JUMPDEST CALLVALUE DUP1 ISZERO PUSH2 0x94 JUMPI PUSH0 DUP1 REVERT JUMPDEST POP PUSH2 0xAF PUSH1 0x4 DUP1 CALLDATASIZE SUB DUP2 ADD SWAP1 PUSH2 0xAA SWAP2 SWAP1 PUSH2 0xB31 JUMP JUMPDEST PUSH2 0x215 JUMP JUMPDEST STOP JUMPDEST CALLVALUE DUP1 ISZERO PUSH2 0xBC JUMPI PUSH0 DUP1 REVERT JUMPDEST POP PUSH2 0xD7 PUSH1 0x4 DUP1 CALLDATASIZE SUB DUP2 ADD SWAP1 PUSH2 0xD2 SWAP2 SWAP1 PUSH2 0xB31 JUMP JUMPDEST PUSH2 0x2AC JUMP JUMPDEST STOP JUMPDEST CALLVALUE DUP1 ISZERO PUSH2 0xE4 JUMPI PUSH0 DUP1 REVERT JUMPDEST POP PUSH2 0xFF PUSH1 0x4 DUP1 CALLDATASIZE SUB DUP2 ADD SWAP1 PUSH2 0xFA SWAP2 SWAP1 PUSH2 0xBB6 JUMP JUMPDEST PUSH2 0x41D JUMP JUMPDEST PUSH1 0x40 MLOAD PUSH2 0x10C SWAP2 SWAP1 PUSH2 0xBF0 JUMP JUMPDEST PUSH1 0x40 MLOAD DUP1 SWAP2 SUB SWAP1 RETURN JUMPDEST CALLVALUE DUP1 ISZERO PUSH2 0x120 JUMPI PUSH0 DUP1 REVERT JUMPDEST POP PUSH2 0x129 PUSH2 0x4F1 JUMP JUMPDEST PUSH1 0x40 MLOAD PUSH2 0x136 SWAP2 SWAP1 PUSH2 0xBF0 JUMP JUMPDEST PUSH1 0x40 MLOAD DUP1 SWAP2 SUB SWAP1 RETURN JUMPDEST CALLVALUE DUP1 ISZERO PUSH2 0x14A JUMPI PUSH0 DUP1 REVERT JUMPDEST POP PUSH2 0x165 PUSH1 0x4 DUP1 CALLDATASIZE SUB DUP2 ADD SWAP1 PUSH2 0x160 SWAP2 SWAP1 PUSH2 0xBB6 JUMP JUMPDEST PUSH2 0x54D JUMP JUMPDEST PUSH1 0x40 MLOAD PUSH2 0x172 SWAP2 SWAP1 PUSH2 0xBF0 JUMP JUMPDEST PUSH1 0x40 MLOAD DUP1 SWAP2 SUB SWAP1 RETURN JUMPDEST CALLVALUE DUP1 ISZERO PUSH2 0x186 JUMPI PUSH0 DUP1 REVERT JUMPDEST POP PUSH2 0x1A1 PUSH1 0x4 DUP1 CALLDATASIZE SUB DUP2 ADD SWAP1 PUSH2 0x19C SWAP2 SWAP1 PUSH2 0xBB6 JUMP JUMPDEST PUSH2 0x624 JUMP JUMPDEST PUSH1 0x40 MLOAD PUSH2 0x1AE SWAP2 SWAP1 PUSH2 0xBF0 JUMP JUMPDEST PUSH1 0x40 MLOAD DUP1 SWAP2 SUB SWAP1 RETURN JUMPDEST PUSH2 0x1BF PUSH2 0x6FA JUMP JUMPDEST STOP JUMPDEST CALLVALUE DUP1 ISZERO PUSH2 0x1CC JUMPI PUSH0 DUP1 REVERT JUMPDEST POP PUSH2 0x1D5 PUSH2 0x87A JUMP JUMPDEST PUSH1 0x40 MLOAD PUSH2 0x1E2 SWAP2 SWAP1 PUSH2 0xBF0 JUMP JUMPDEST PUSH1 0x40 MLOAD DUP1 SWAP2 SUB SWAP1 RETURN JUMPDEST CALLVALUE DUP1 ISZERO PUSH2 0x1F6 JUMPI PUSH0 DUP1 REVERT JUMPDEST POP PUSH2 0x1FF PUSH2 0x8D8 JUMP JUMPDEST PUSH1 0x40 MLOAD PUSH2 0x20C SWAP2 SWAP1 PUSH2 0xBF0 JUMP JUMPDEST PUSH1 0x40 MLOAD DUP1 SWAP2 SUB SWAP1 RETURN JUMPDEST PUSH0 DUP1 SLOAD SWAP1 PUSH2 0x100 EXP SWAP1 DIV PUSH20 0xFFFFFFFFFFFFFFFFFFFFFFFFFFFFFFFFFFFFFFFF AND PUSH20 0xFFFFFFFFFFFFFFFFFFFFFFFFFFFFFFFFFFFFFFFF AND CALLER PUSH20 0xFFFFFFFFFFFFFFFFFFFFFFFFFFFFFFFFFFFFFFFF AND EQ PUSH2 0x2A2 JUMPI PUSH1 0x40 MLOAD PUSH32 0x8C379A000000000000000000000000000000000000000000000000000000000 DUP2 MSTORE PUSH1 0x4 ADD PUSH2 0x299 SWAP1 PUSH2 0xC63 JUMP JUMPDEST PUSH1 0x40 MLOAD DUP1 SWAP2 SUB SWAP1 REVERT JUMPDEST DUP1 PUSH1 0x1 DUP2 SWAP1 SSTORE POP POP JUMP JUMPDEST PUSH2 0x2B5 CALLER PUSH2 0x8E1 JUMP JUMPDEST DUP1 PUSH1 0x2 PUSH0 CALLER PUSH20 0xFFFFFFFFFFFFFFFFFFFFFFFFFFFFFFFFFFFFFFFF AND PUSH20 0xFFFFFFFFFFFFFFFFFFFFFFFFFFFFFFFFFFFFFFFF AND DUP2 MSTORE PUSH1 0x20 ADD SWAP1 DUP2 MSTORE PUSH1 0x20 ADD PUSH0 KECCAK256 SLOAD LT ISZERO PUSH2 0x335 JUMPI PUSH1 0x40 MLOAD PUSH32 0x8C379A000000000000000000000000000000000000000000000000000000000 DUP2 MSTORE PUSH1 0x4 ADD PUSH2 0x32C SWAP1 PUSH2 0xCCB JUMP JUMPDEST PUSH1 0x40 MLOAD DUP1 SWAP2 SUB SWAP1 REVERT JUMPDEST CALLER PUSH20 0xFFFFFFFFFFFFFFFFFFFFFFFFFFFFFFFFFFFFFFFF AND PUSH2 0x8FC DUP3 SWAP1 DUP2 ISZERO MUL SWAP1 PUSH1 0x40 MLOAD PUSH0 PUSH1 0x40 MLOAD DUP1 DUP4 SUB DUP2 DUP6 DUP9 DUP9 CALL SWAP4 POP POP POP POP ISZERO DUP1 ISZERO PUSH2 0x378 JUMPI RETURNDATASIZE PUSH0 DUP1 RETURNDATACOPY RETURNDATASIZE PUSH0 REVERT JUMPDEST POP DUP1 PUSH1 0x2 PUSH0 CALLER PUSH20 0xFFFFFFFFFFFFFFFFFFFFFFFFFFFFFFFFFFFFFFFF AND PUSH20 0xFFFFFFFFFFFFFFFFFFFFFFFFFFFFFFFFFFFFFFFF AND DUP2 MSTORE PUSH1 0x20 ADD SWAP1 DUP2 MSTORE PUSH1 0x20 ADD PUSH0 KECCAK256 PUSH0 DUP3 DUP3 SLOAD PUSH2 0x3C5 SWAP2 SWAP1 PUSH2 0xD16 JUMP JUMPDEST SWAP3 POP POP DUP2 SWAP1 SSTORE POP CALLER PUSH20 0xFFFFFFFFFFFFFFFFFFFFFFFFFFFFFFFFFFFFFFFF AND PUSH32 0x7084F5476618D8E60B11EF0D7D3F06914655ADB8793E28FF7F018D4C76D505D5 DUP3 PUSH1 0x40 MLOAD PUSH2 0x412 SWAP2 SWAP1 PUSH2 0xBF0 JUMP JUMPDEST PUSH1 0x40 MLOAD DUP1 SWAP2 SUB SWAP1 LOG2 POP JUMP JUMPDEST PUSH0 DUP1 PUSH0 SWAP1 SLOAD SWAP1 PUSH2 0x100 EXP SWAP1 DIV PUSH20 0xFFFFFFFFFFFFFFFFFFFFFFFFFFFFFFFFFFFFFFFF AND PUSH20 0xFFFFFFFFFFFFFFFFFFFFFFFFFFFFFFFFFFFFFFFF AND CALLER PUSH20 0xFFFFFFFFFFFFFFFFFFFFFFFFFFFFFFFFFFFFFFFF AND EQ PUSH2 0x4AC JUMPI PUSH1 0x40 MLOAD PUSH32 0x8C379A000000000000000000000000000000000000000000000000000000000 DUP2 MSTORE PUSH1 0x4 ADD PUSH2 0x4A3 SWAP1 PUSH2 0xC63 JUMP JUMPDEST PUSH1 0x40 MLOAD DUP1 SWAP2 SUB SWAP1 REVERT JUMPDEST PUSH1 0x2 PUSH0 DUP4 PUSH20 0xFFFFFFFFFFFFFFFFFFFFFFFFFFFFFFFFFFFFFFFF AND PUSH20 0xFFFFFFFFFFFFFFFFFFFFFFFFFFFFFFFFFFFFFFFF AND DUP2 MSTORE PUSH1 0x20 ADD SWAP1 DUP2 MSTORE PUSH1 0x20 ADD PUSH0 KECCAK256 SLOAD SWAP1 POP SWAP2 SWAP1 POP JUMP JUMPDEST PUSH0 DUP1 PUSH2 0x4FC CALLER PUSH2 0xA2C JUMP JUMPDEST SWAP1 POP DUP1 PUSH1 0x2 PUSH0 CALLER PUSH20 0xFFFFFFFFFFFFFFFFFFFFFFFFFFFFFFFFFFFFFFFF AND PUSH20 0xFFFFFFFFFFFFFFFFFFFFFFFFFFFFFFFFFFFFFFFF AND DUP2 MSTORE PUSH1 0x20 ADD SWAP1 DUP2 MSTORE PUSH1 0x20 ADD PUSH0 KECCAK256 SLOAD PUSH2 0x547 SWAP2 SWAP1 PUSH2 0xD49 JUMP JUMPDEST SWAP2 POP POP SWAP1 JUMP JUMPDEST PUSH0 DUP1 PUSH0 SWAP1 SLOAD SWAP1 PUSH2 0x100 EXP SWAP1 DIV PUSH20 0xFFFFFFFFFFFFFFFFFFFFFFFFFFFFFFFFFFFFFFFF AND PUSH20 0xFFFFFFFFFFFFFFFFFFFFFFFFFFFFFFFFFFFFFFFF AND CALLER PUSH20 0xFFFFFFFFFFFFFFFFFFFFFFFFFFFFFFFFFFFFFFFF AND EQ PUSH2 0x5DC JUMPI PUSH1 0x40 MLOAD PUSH32 0x8C379A000000000000000000000000000000000000000000000000000000000 DUP2 MSTORE PUSH1 0x4 ADD PUSH2 0x5D3 SWAP1 PUSH2 0xC63 JUMP JUMPDEST PUSH1 0x40 MLOAD DUP1 SWAP2 SUB SWAP1 REVERT JUMPDEST PUSH1 0x3 PUSH0 DUP4 PUSH20 0xFFFFFFFFFFFFFFFFFFFFFFFFFFFFFFFFFFFFFFFF AND PUSH20 0xFFFFFFFFFFFFFFFFFFFFFFFFFFFFFFFFFFFFFFFF AND DUP2 MSTORE PUSH1 0x20 ADD SWAP1 DUP2 MSTORE PUSH1 0x20 ADD PUSH0 KECCAK256 PUSH1 0x1 ADD SLOAD SWAP1 POP SWAP2 SWAP1 POP JUMP JUMPDEST PUSH0 DUP1 PUSH0 SWAP1 SLOAD SWAP1 PUSH2 0x100 EXP SWAP1 DIV PUSH20 0xFFFFFFFFFFFFFFFFFFFFFFFFFFFFFFFFFFFFFFFF AND PUSH20 0xFFFFFFFFFFFFFFFFFFFFFFFFFFFFFFFFFFFFFFFF AND CALLER PUSH20 0xFFFFFFFFFFFFFFFFFFFFFFFFFFFFFFFFFFFFFFFF AND EQ PUSH2 0x6B3 JUMPI PUSH1 0x40 MLOAD PUSH32 0x8C379A000000000000000000000000000000000000000000000000000000000 DUP2 MSTORE PUSH1 0x4 ADD PUSH2 0x6AA SWAP1 PUSH2 0xC63 JUMP JUMPDEST PUSH1 0x40 MLOAD DUP1 SWAP2 SUB SWAP1 REVERT JUMPDEST PUSH1 0x3 PUSH0 DUP4 PUSH20 0xFFFFFFFFFFFFFFFFFFFFFFFFFFFFFFFFFFFFFFFF AND PUSH20 0xFFFFFFFFFFFFFFFFFFFFFFFFFFFFFFFFFFFFFFFF AND DUP2 MSTORE PUSH1 0x20 ADD SWAP1 DUP2 MSTORE PUSH1 0x20 ADD PUSH0 KECCAK256 PUSH0 ADD SLOAD SWAP1 POP SWAP2 SWAP1 POP JUMP JUMPDEST PUSH0 CALLVALUE GT PUSH2 0x73C JUMPI PUSH1 0x40 MLOAD PUSH32 0x8C379A000000000000000000000000000000000000000000000000000000000 DUP2 MSTORE PUSH1 0x4 ADD PUSH2 0x733 SWAP1 PUSH2 0xDC6 JUMP JUMPDEST PUSH1 0x40 MLOAD DUP1 SWAP2 SUB SWAP1 REVERT JUMPDEST PUSH0 PUSH1 0x3 PUSH0 CALLER PUSH20 0xFFFFFFFFFFFFFFFFFFFFFFFFFFFFFFFFFFFFFFFF AND PUSH20 0xFFFFFFFFFFFFFFFFFFFFFFFFFFFFFFFFFFFFFFFF AND DUP2 MSTORE PUSH1 0x20 ADD SWAP1 DUP2 MSTORE PUSH1 0x20 ADD PUSH0 KECCAK256 PUSH1 0x1 ADD SLOAD SUB PUSH2 0x7CD JUMPI TIMESTAMP PUSH1 0x3 PUSH0 CALLER PUSH20 0xFFFFFFFFFFFFFFFFFFFFFFFFFFFFFFFFFFFFFFFF AND PUSH20 0xFFFFFFFFFFFFFFFFFFFFFFFFFFFFFFFFFFFFFFFF AND DUP2 MSTORE PUSH1 0x20 ADD SWAP1 DUP2 MSTORE PUSH1 0x20 ADD PUSH0 KECCAK256 PUSH1 0x1 ADD DUP2 SWAP1 SSTORE POP PUSH2 0x7D7 JUMP JUMPDEST PUSH2 0x7D6 CALLER PUSH2 0x8E1 JUMP JUMPDEST JUMPDEST CALLVALUE PUSH1 0x2 PUSH0 CALLER PUSH20 0xFFFFFFFFFFFFFFFFFFFFFFFFFFFFFFFFFFFFFFFF AND PUSH20 0xFFFFFFFFFFFFFFFFFFFFFFFFFFFFFFFFFFFFFFFF AND DUP2 MSTORE PUSH1 0x20 ADD SWAP1 DUP2 MSTORE PUSH1 0x20 ADD PUSH0 KECCAK256 PUSH0 DUP3 DUP3 SLOAD PUSH2 0x823 SWAP2 SWAP1 PUSH2 0xD49 JUMP JUMPDEST SWAP3 POP POP DUP2 SWAP1 SSTORE POP CALLER PUSH20 0xFFFFFFFFFFFFFFFFFFFFFFFFFFFFFFFFFFFFFFFF AND PUSH32 0x2DA466A7B24304F47E87FA2E1E5A81B9831CE54FEC19055CE277CA2F39BA42C4 CALLVALUE PUSH1 0x40 MLOAD PUSH2 0x870 SWAP2 SWAP1 PUSH2 0xBF0 JUMP JUMPDEST PUSH1 0x40 MLOAD DUP1 SWAP2 SUB SWAP1 LOG2 JUMP JUMPDEST PUSH0 DUP1 PUSH2 0x885 CALLER PUSH2 0xA2C JUMP JUMPDEST SWAP1 POP DUP1 PUSH1 0x3 PUSH0 CALLER PUSH20 0xFFFFFFFFFFFFFFFFFFFFFFFFFFFFFFFFFFFFFFFF AND PUSH20 0xFFFFFFFFFFFFFFFFFFFFFFFFFFFFFFFFFFFFFFFF AND DUP2 MSTORE PUSH1 0x20 ADD SWAP1 DUP2 MSTORE PUSH1 0x20 ADD PUSH0 KECCAK256 PUSH0 ADD SLOAD PUSH2 0x8D2 SWAP2 SWAP1 PUSH2 0xD49 JUMP JUMPDEST SWAP2 POP POP SWAP1 JUMP JUMPDEST PUSH0 PUSH1 0x1 SLOAD SWAP1 POP SWAP1 JUMP JUMPDEST PUSH0 PUSH2 0x8EB DUP3 PUSH2 0xA2C JUMP JUMPDEST SWAP1 POP DUP1 PUSH1 0x2 PUSH0 DUP5 PUSH20 0xFFFFFFFFFFFFFFFFFFFFFFFFFFFFFFFFFFFFFFFF AND PUSH20 0xFFFFFFFFFFFFFFFFFFFFFFFFFFFFFFFFFFFFFFFF AND DUP2 MSTORE PUSH1 0x20 ADD SWAP1 DUP2 MSTORE PUSH1 0x20 ADD PUSH0 KECCAK256 PUSH0 DUP3 DUP3 SLOAD PUSH2 0x939 SWAP2 SWAP1 PUSH2 0xD49 JUMP JUMPDEST SWAP3 POP POP DUP2 SWAP1 SSTORE POP DUP1 PUSH1 0x3 PUSH0 DUP5 PUSH20 0xFFFFFFFFFFFFFFFFFFFFFFFFFFFFFFFFFFFFFFFF AND PUSH20 0xFFFFFFFFFFFFFFFFFFFFFFFFFFFFFFFFFFFFFFFF AND DUP2 MSTORE PUSH1 0x20 ADD SWAP1 DUP2 MSTORE PUSH1 0x20 ADD PUSH0 KECCAK256 PUSH0 ADD PUSH0 DUP3 DUP3 SLOAD PUSH2 0x98E SWAP2 SWAP1 PUSH2 0xD49 JUMP JUMPDEST SWAP3 POP POP DUP2 SWAP1 SSTORE POP TIMESTAMP PUSH1 0x3 PUSH0 DUP5 PUSH20 0xFFFFFFFFFFFFFFFFFFFFFFFFFFFFFFFFFFFFFFFF AND PUSH20 0xFFFFFFFFFFFFFFFFFFFFFFFFFFFFFFFFFFFFFFFF AND DUP2 MSTORE PUSH1 0x20 ADD SWAP1 DUP2 MSTORE PUSH1 0x20 ADD PUSH0 KECCAK256 PUSH1 0x1 ADD DUP2 SWAP1 SSTORE POP DUP2 PUSH20 0xFFFFFFFFFFFFFFFFFFFFFFFFFFFFFFFFFFFFFFFF AND PUSH32 0x16CBC685358CA7D4E6B273DCDF2CB5D18C80B950AA2319B519756CD016233A6C DUP3 PUSH1 0x40 MLOAD PUSH2 0xA20 SWAP2 SWAP1 PUSH2 0xBF0 JUMP JUMPDEST PUSH1 0x40 MLOAD DUP1 SWAP2 SUB SWAP1 LOG2 POP POP JUMP JUMPDEST PUSH0 DUP1 PUSH1 0x3 PUSH0 DUP5 PUSH20 0xFFFFFFFFFFFFFFFFFFFFFFFFFFFFFFFFFFFFFFFF AND PUSH20 0xFFFFFFFFFFFFFFFFFFFFFFFFFFFFFFFFFFFFFFFF AND DUP2 MSTORE PUSH1 0x20 ADD SWAP1 DUP2 MSTORE PUSH1 0x20 ADD PUSH0 KECCAK256 PUSH1 0x1 ADD SLOAD TIMESTAMP PUSH2 0xA7A SWAP2 SWAP1 PUSH2 0xD16 JUMP JUMPDEST SWAP1 POP PUSH0 PUSH4 0x1E13380 DUP3 PUSH1 0x64 PUSH1 0x1 SLOAD PUSH1 0x2 PUSH0 DUP10 PUSH20 0xFFFFFFFFFFFFFFFFFFFFFFFFFFFFFFFFFFFFFFFF AND PUSH20 0xFFFFFFFFFFFFFFFFFFFFFFFFFFFFFFFFFFFFFFFF AND DUP2 MSTORE PUSH1 0x20 ADD SWAP1 DUP2 MSTORE PUSH1 0x20 ADD PUSH0 KECCAK256 SLOAD PUSH2 0xAD0 SWAP2 SWAP1 PUSH2 0xDE4 JUMP JUMPDEST PUSH2 0xADA SWAP2 SWAP1 PUSH2 0xE52 JUMP JUMPDEST PUSH2 0xAE4 SWAP2 SWAP1 PUSH2 0xDE4 JUMP JUMPDEST PUSH2 0xAEE SWAP2 SWAP1 PUSH2 0xE52 JUMP JUMPDEST SWAP1 POP DUP1 SWAP3 POP POP POP SWAP2 SWAP1 POP JUMP JUMPDEST PUSH0 DUP1 REVERT JUMPDEST PUSH0 DUP2 SWAP1 POP SWAP2 SWAP1 POP JUMP JUMPDEST PUSH2 0xB10 DUP2 PUSH2 0xAFE JUMP JUMPDEST DUP2 EQ PUSH2 0xB1A JUMPI PUSH0 DUP1 REVERT JUMPDEST POP JUMP JUMPDEST PUSH0 DUP2 CALLDATALOAD SWAP1 POP PUSH2 0xB2B DUP2 PUSH2 0xB07 JUMP JUMPDEST SWAP3 SWAP2 POP POP JUMP JUMPDEST PUSH0 PUSH1 0x20 DUP3 DUP5 SUB SLT ISZERO PUSH2 0xB46 JUMPI PUSH2 0xB45 PUSH2 0xAFA JUMP JUMPDEST JUMPDEST PUSH0 PUSH2 0xB53 DUP5 DUP3 DUP6 ADD PUSH2 0xB1D JUMP JUMPDEST SWAP2 POP POP SWAP3 SWAP2 POP POP JUMP JUMPDEST PUSH0 PUSH20 0xFFFFFFFFFFFFFFFFFFFFFFFFFFFFFFFFFFFFFFFF DUP3 AND SWAP1 POP SWAP2 SWAP1 POP JUMP JUMPDEST PUSH0 PUSH2 0xB85 DUP3 PUSH2 0xB5C JUMP JUMPDEST SWAP1 POP SWAP2 SWAP1 POP JUMP JUMPDEST PUSH2 0xB95 DUP2 PUSH2 0xB7B JUMP JUMPDEST DUP2 EQ PUSH2 0xB9F JUMPI PUSH0 DUP1 REVERT JUMPDEST POP JUMP JUMPDEST PUSH0 DUP2 CALLDATALOAD SWAP1 POP PUSH2 0xBB0 DUP2 PUSH2 0xB8C JUMP JUMPDEST SWAP3 SWAP2 POP POP JUMP JUMPDEST PUSH0 PUSH1 0x20 DUP3 DUP5 SUB SLT ISZERO PUSH2 0xBCB JUMPI PUSH2 0xBCA PUSH2 0xAFA JUMP JUMPDEST JUMPDEST PUSH0 PUSH2 0xBD8 DUP5 DUP3 DUP6 ADD PUSH2 0xBA2 JUMP JUMPDEST SWAP2 POP POP SWAP3 SWAP2 POP POP JUMP JUMPDEST PUSH2 0xBEA DUP2 PUSH2 0xAFE JUMP JUMPDEST DUP3 MSTORE POP POP JUMP JUMPDEST PUSH0 PUSH1 0x20 DUP3 ADD SWAP1 POP PUSH2 0xC03 PUSH0 DUP4 ADD DUP5 PUSH2 0xBE1 JUMP JUMPDEST SWAP3 SWAP2 POP POP JUMP JUMPDEST PUSH0 DUP3 DUP3 MSTORE PUSH1 0x20 DUP3 ADD SWAP1 POP SWAP3 SWAP2 POP POP JUMP JUMPDEST PUSH32 0x554E415554484F52495A45440000000000000000000000000000000000000000 PUSH0 DUP3 ADD MSTORE POP JUMP JUMPDEST PUSH0 PUSH2 0xC4D PUSH1 0xC DUP4 PUSH2 0xC09 JUMP JUMPDEST SWAP2 POP PUSH2 0xC58 DUP3 PUSH2 0xC19 JUMP JUMPDEST PUSH1 0x20 DUP3 ADD SWAP1 POP SWAP2 SWAP1 POP JUMP JUMPDEST PUSH0 PUSH1 0x20 DUP3 ADD SWAP1 POP DUP2 DUP2 SUB PUSH0 DUP4 ADD MSTORE PUSH2 0xC7A DUP2 PUSH2 0xC41 JUMP JUMPDEST SWAP1 POP SWAP2 SWAP1 POP JUMP JUMPDEST PUSH32 0x494E53554646494349454E545F42414C414E4345000000000000000000000000 PUSH0 DUP3 ADD MSTORE POP JUMP JUMPDEST PUSH0 PUSH2 0xCB5 PUSH1 0x14 DUP4 PUSH2 0xC09 JUMP JUMPDEST SWAP2 POP PUSH2 0xCC0 DUP3 PUSH2 0xC81 JUMP JUMPDEST PUSH1 0x20 DUP3 ADD SWAP1 POP SWAP2 SWAP1 POP JUMP JUMPDEST PUSH0 PUSH1 0x20 DUP3 ADD SWAP1 POP DUP2 DUP2 SUB PUSH0 DUP4 ADD MSTORE PUSH2 0xCE2 DUP2 PUSH2 0xCA9 JUMP JUMPDEST SWAP1 POP SWAP2 SWAP1 POP JUMP JUMPDEST PUSH32 0x4E487B7100000000000000000000000000000000000000000000000000000000 PUSH0 MSTORE PUSH1 0x11 PUSH1 0x4 MSTORE PUSH1 0x24 PUSH0 REVERT JUMPDEST PUSH0 PUSH2 0xD20 DUP3 PUSH2 0xAFE JUMP JUMPDEST SWAP2 POP PUSH2 0xD2B DUP4 PUSH2 0xAFE JUMP JUMPDEST SWAP3 POP DUP3 DUP3 SUB SWAP1 POP DUP2 DUP2 GT ISZERO PUSH2 0xD43 JUMPI PUSH2 0xD42 PUSH2 0xCE9 JUMP JUMPDEST JUMPDEST SWAP3 SWAP2 POP POP JUMP JUMPDEST PUSH0 PUSH2 0xD53 DUP3 PUSH2 0xAFE JUMP JUMPDEST SWAP2 POP PUSH2 0xD5E DUP4 PUSH2 0xAFE JUMP JUMPDEST SWAP3 POP DUP3 DUP3 ADD SWAP1 POP DUP1 DUP3 GT ISZERO PUSH2 0xD76 JUMPI PUSH2 0xD75 PUSH2 0xCE9 JUMP JUMPDEST JUMPDEST SWAP3 SWAP2 POP POP JUMP JUMPDEST PUSH32 0x4D494E5F45544845525F4E4F545F4D4554000000000000000000000000000000 PUSH0 DUP3 ADD MSTORE POP JUMP JUMPDEST PUSH0 PUSH2 0xDB0 PUSH1 0x11 DUP4 PUSH2 0xC09 JUMP JUMPDEST SWAP2 POP PUSH2 0xDBB DUP3 PUSH2 0xD7C JUMP JUMPDEST PUSH1 0x20 DUP3 ADD SWAP1 POP SWAP2 SWAP1 POP JUMP JUMPDEST PUSH0 PUSH1 0x20 DUP3 ADD SWAP1 POP DUP2 DUP2 SUB PUSH0 DUP4 ADD MSTORE PUSH2 0xDDD DUP2 PUSH2 0xDA4 JUMP JUMPDEST SWAP1 POP SWAP2 SWAP1 POP JUMP JUMPDEST PUSH0 PUSH2 0xDEE DUP3 PUSH2 0xAFE JUMP JUMPDEST SWAP2 POP PUSH2 0xDF9 DUP4 PUSH2 0xAFE JUMP JUMPDEST SWAP3 POP DUP3 DUP3 MUL PUSH2 0xE07 DUP2 PUSH2 0xAFE JUMP JUMPDEST SWAP2 POP DUP3 DUP3 DIV DUP5 EQ DUP4 ISZERO OR PUSH2 0xE1E JUMPI PUSH2 0xE1D PUSH2 0xCE9 JUMP JUMPDEST JUMPDEST POP SWAP3 SWAP2 POP POP JUMP JUMPDEST PUSH32 0x4E487B7100000000000000000000000000000000000000000000000000000000 PUSH0 MSTORE PUSH1 0x12 PUSH1 0x4 MSTORE PUSH1 0x24 PUSH0 REVERT JUMPDEST PUSH0 PUSH2 0xE5C DUP3 PUSH2 0xAFE JUMP JUMPDEST SWAP2 POP PUSH2 0xE67 DUP4 PUSH2 0xAFE JUMP JUMPDEST SWAP3 POP DUP3 PUSH2 0xE77 JUMPI PUSH2 0xE76 PUSH2 0xE25 JUMP JUMPDEST JUMPDEST DUP3 DUP3 DIV SWAP1 POP SWAP3 SWAP2 POP POP JUMP INVALID LOG2 PUSH5 0x6970667358 0x22 SLT KECCAK256 DUP4 0xAD 0xAD 0x27 SHL 0xBC 0xB2 DUP7 0xAC 0xDD PUSH14 0x4986524D40F9D35155B6C9657C82 0xE1 ISZERO RETURNDATACOPY PUSH26 0x9264DF64736F6C63430008180033000000000000000000000000 "
				},
				"gasEstimates": {
					"creation": {
						"codeDepositCost": "753600",
						"executionCost": "47155",
						"totalCost": "800755"
					},
					"external": {
						"deposit()": "infinite",
						"getMyBalance()": "infinite",
						"getMyInterest()": "infinite",
						"getUserBalance(address)": "5043",
						"getUserInterest(address)": "5025",
						"getUserLastInterestPaid(address)": "5004",
						"getannualInterestRate()": "2520",
						"setannualInterestRate(uint256)": "24682",
						"withdraw(uint256)": "infinite"
					},
					"internal": {
						"calculateInterest(address)": "infinite",
						"estimateInterest(address)": "infinite"
					}
				},
				"methodIdentifiers": {
					"deposit()": "d0e30db0",
					"getMyBalance()": "4c738909",
					"getMyInterest()": "dc6464ca",
					"getUserBalance(address)": "47734892",
					"getUserInterest(address)": "bf8853c6",
					"getUserLastInterestPaid(address)": "4f1d0c7a",
					"getannualInterestRate()": "fd3131df",
					"setannualInterestRate(uint256)": "1bf8b3cf",
					"withdraw(uint256)": "2e1a7d4d"
				}
			},
			"storageLayout": {
				"storage": [
					{
						"astId": 3,
						"contract": "contracts/mod07/Bank.sol:Bank",
						"label": "admin",
						"offset": 0,
						"slot": "0",
						"type": "t_address"
					},
					{
						"astId": 6,
						"contract": "contracts/mod07/Bank.sol:Bank",
						"label": "annualInterestRate",
						"offset": 0,
						"slot": "1",
						"type": "t_uint256"
					},
					{
						"astId": 15,
						"contract": "contracts/mod07/Bank.sol:Bank",
						"label": "balances",
						"offset": 0,
						"slot": "2",
						"type": "t_mapping(t_address,t_uint256)"
					},
					{
						"astId": 20,
						"contract": "contracts/mod07/Bank.sol:Bank",
						"label": "interests",
						"offset": 0,
						"slot": "3",
						"type": "t_mapping(t_address,t_struct(Interest)11_storage)"
					}
				],
				"types": {
					"t_address": {
						"encoding": "inplace",
						"label": "address",
						"numberOfBytes": "20"
					},
					"t_mapping(t_address,t_struct(Interest)11_storage)": {
						"encoding": "mapping",
						"key": "t_address",
						"label": "mapping(address => struct Bank.Interest)",
						"numberOfBytes": "32",
						"value": "t_struct(Interest)11_storage"
					},
					"t_mapping(t_address,t_uint256)": {
						"encoding": "mapping",
						"key": "t_address",
						"label": "mapping(address => uint256)",
						"numberOfBytes": "32",
						"value": "t_uint256"
					},
					"t_struct(Interest)11_storage": {
						"encoding": "inplace",
						"label": "struct Bank.Interest",
						"members": [
							{
								"astId": 8,
								"contract": "contracts/mod07/Bank.sol:Bank",
								"label": "interestGiven",
								"offset": 0,
								"slot": "0",
								"type": "t_uint256"
							},
							{
								"astId": 10,
								"contract": "contracts/mod07/Bank.sol:Bank",
								"label": "lastInterestTime",
								"offset": 0,
								"slot": "1",
								"type": "t_uint256"
							}
						],
						"numberOfBytes": "64"
					},
					"t_uint256": {
						"encoding": "inplace",
						"label": "uint256",
						"numberOfBytes": "32"
					}
				}
			},
			"userdoc": {
				"kind": "user",
				"methods": {},
				"version": 1
			}
		}
	}
}