{
	"contracts/CrowdfundMe.sol": {
		"CrowdfundMe": {
			"abi": [
				{
					"inputs": [],
					"stateMutability": "nonpayable",
					"type": "constructor"
				},
				{
					"inputs": [
						{
							"internalType": "address",
							"name": "",
							"type": "address"
						}
					],
					"name": "addressToAmountFunded",
					"outputs": [
						{
							"internalType": "uint256",
							"name": "",
							"type": "uint256"
						}
					],
					"stateMutability": "view",
					"type": "function"
				},
				{
					"inputs": [],
					"name": "fund",
					"outputs": [],
					"stateMutability": "payable",
					"type": "function"
				},
				{
					"inputs": [
						{
							"internalType": "uint256",
							"name": "",
							"type": "uint256"
						}
					],
					"name": "funders",
					"outputs": [
						{
							"internalType": "address",
							"name": "",
							"type": "address"
						}
					],
					"stateMutability": "view",
					"type": "function"
				},
				{
					"inputs": [
						{
							"internalType": "uint256",
							"name": "ethAmount",
							"type": "uint256"
						}
					],
					"name": "getAmountInUsd",
					"outputs": [
						{
							"internalType": "uint256",
							"name": "",
							"type": "uint256"
						}
					],
					"stateMutability": "view",
					"type": "function"
				},
				{
					"inputs": [],
					"name": "getPrice",
					"outputs": [
						{
							"internalType": "uint256",
							"name": "",
							"type": "uint256"
						}
					],
					"stateMutability": "view",
					"type": "function"
				},
				{
					"inputs": [],
					"name": "getVersion",
					"outputs": [
						{
							"internalType": "uint256",
							"name": "",
							"type": "uint256"
						}
					],
					"stateMutability": "view",
					"type": "function"
				},
				{
					"inputs": [],
					"name": "owner",
					"outputs": [
						{
							"internalType": "address",
							"name": "",
							"type": "address"
						}
					],
					"stateMutability": "view",
					"type": "function"
				},
				{
					"inputs": [],
					"name": "withdraw",
					"outputs": [],
					"stateMutability": "payable",
					"type": "function"
				}
			],
			"devdoc": {
				"kind": "dev",
				"methods": {},
				"version": 1
			},
			"evm": {
				"assembly": "    /* \"contracts/CrowdfundMe.sol\":143:1991  contract CrowdfundMe {... */\n  mstore(0x40, 0x80)\n    /* \"contracts/CrowdfundMe.sol\":298:349  constructor() {... */\n  callvalue\n  dup1\n  iszero\n  tag_1\n  jumpi\n  0x00\n  dup1\n  revert\ntag_1:\n  pop\n    /* \"contracts/CrowdfundMe.sol\":331:341  msg.sender */\n  caller\n    /* \"contracts/CrowdfundMe.sol\":323:328  owner */\n  0x01\n  0x00\n    /* \"contracts/CrowdfundMe.sol\":323:341  owner = msg.sender */\n  0x0100\n  exp\n  dup2\n  sload\n  dup2\n  0xffffffffffffffffffffffffffffffffffffffff\n  mul\n  not\n  and\n  swap1\n  dup4\n  0xffffffffffffffffffffffffffffffffffffffff\n  and\n  mul\n  or\n  swap1\n  sstore\n  pop\n    /* \"contracts/CrowdfundMe.sol\":143:1991  contract CrowdfundMe {... */\n  dataSize(sub_0)\n  dup1\n  dataOffset(sub_0)\n  0x00\n  codecopy\n  0x00\n  return\nstop\n\nsub_0: assembly {\n        /* \"contracts/CrowdfundMe.sol\":143:1991  contract CrowdfundMe {... */\n      mstore(0x40, 0x80)\n      jumpi(tag_1, lt(calldatasize, 0x04))\n      shr(0xe0, calldataload(0x00))\n      dup1\n      0x8da5cb5b\n      gt\n      tag_10\n      jumpi\n      dup1\n      0x8da5cb5b\n      eq\n      tag_6\n      jumpi\n      dup1\n      0x98d5fdca\n      eq\n      tag_7\n      jumpi\n      dup1\n      0xb60d4288\n      eq\n      tag_8\n      jumpi\n      dup1\n      0xdc0d3dff\n      eq\n      tag_9\n      jumpi\n      jump(tag_1)\n    tag_10:\n      dup1\n      0x0d8e6e2c\n      eq\n      tag_2\n      jumpi\n      dup1\n      0x3ccfd60b\n      eq\n      tag_3\n      jumpi\n      dup1\n      0x3e47d6f3\n      eq\n      tag_4\n      jumpi\n      dup1\n      0x55527423\n      eq\n      tag_5\n      jumpi\n    tag_1:\n      0x00\n      dup1\n      revert\n        /* \"contracts/CrowdfundMe.sol\":1111:1317  function getVersion() public view returns(uint256) {... */\n    tag_2:\n      callvalue\n      dup1\n      iszero\n      tag_11\n      jumpi\n      0x00\n      dup1\n      revert\n    tag_11:\n      pop\n      tag_12\n      tag_13\n      jump\t// in\n    tag_12:\n      mload(0x40)\n      tag_14\n      swap2\n      swap1\n      tag_15\n      jump\t// in\n    tag_14:\n      mload(0x40)\n      dup1\n      swap2\n      sub\n      swap1\n      return\n        /* \"contracts/CrowdfundMe.sol\":711:1103  function withdraw() payable onlyOwner public {... */\n    tag_3:\n      tag_16\n      tag_17\n      jump\t// in\n    tag_16:\n      stop\n        /* \"contracts/CrowdfundMe.sol\":173:229  mapping(address => uint256) public addressToAmountFunded */\n    tag_4:\n      callvalue\n      dup1\n      iszero\n      tag_18\n      jumpi\n      0x00\n      dup1\n      revert\n    tag_18:\n      pop\n      tag_19\n      0x04\n      dup1\n      calldatasize\n      sub\n      dup2\n      add\n      swap1\n      tag_20\n      swap2\n      swap1\n      tag_21\n      jump\t// in\n    tag_20:\n      tag_22\n      jump\t// in\n    tag_19:\n      mload(0x40)\n      tag_23\n      swap2\n      swap1\n      tag_15\n      jump\t// in\n    tag_23:\n      mload(0x40)\n      dup1\n      swap2\n      sub\n      swap1\n      return\n        /* \"contracts/CrowdfundMe.sol\":1769:1988  function getAmountInUsd(uint256 ethAmount) public view returns(uint256) {... */\n    tag_5:\n      callvalue\n      dup1\n      iszero\n      tag_24\n      jumpi\n      0x00\n      dup1\n      revert\n    tag_24:\n      pop\n      tag_25\n      0x04\n      dup1\n      calldatasize\n      sub\n      dup2\n      add\n      swap1\n      tag_26\n      swap2\n      swap1\n      tag_27\n      jump\t// in\n    tag_26:\n      tag_28\n      jump\t// in\n    tag_25:\n      mload(0x40)\n      tag_29\n      swap2\n      swap1\n      tag_15\n      jump\t// in\n    tag_29:\n      mload(0x40)\n      dup1\n      swap2\n      sub\n      swap1\n      return\n        /* \"contracts/CrowdfundMe.sol\":238:258  address public owner */\n    tag_6:\n      callvalue\n      dup1\n      iszero\n      tag_30\n      jumpi\n      0x00\n      dup1\n      revert\n    tag_30:\n      pop\n      tag_31\n      tag_32\n      jump\t// in\n    tag_31:\n      mload(0x40)\n      tag_33\n      swap2\n      swap1\n      tag_34\n      jump\t// in\n    tag_33:\n      mload(0x40)\n      dup1\n      swap2\n      sub\n      swap1\n      return\n        /* \"contracts/CrowdfundMe.sol\":1325:1761  function getPrice() public view returns(uint256) {... */\n    tag_7:\n      callvalue\n      dup1\n      iszero\n      tag_35\n      jumpi\n      0x00\n      dup1\n      revert\n    tag_35:\n      pop\n      tag_36\n      tag_37\n      jump\t// in\n    tag_36:\n      mload(0x40)\n      tag_38\n      swap2\n      swap1\n      tag_15\n      jump\t// in\n    tag_38:\n      mload(0x40)\n      dup1\n      swap2\n      sub\n      swap1\n      return\n        /* \"contracts/CrowdfundMe.sol\":443:703  function fund() public payable {... */\n    tag_8:\n      tag_39\n      tag_40\n      jump\t// in\n    tag_39:\n      stop\n        /* \"contracts/CrowdfundMe.sol\":265:289  address[] public funders */\n    tag_9:\n      callvalue\n      dup1\n      iszero\n      tag_41\n      jumpi\n      0x00\n      dup1\n      revert\n    tag_41:\n      pop\n      tag_42\n      0x04\n      dup1\n      calldatasize\n      sub\n      dup2\n      add\n      swap1\n      tag_43\n      swap2\n      swap1\n      tag_27\n      jump\t// in\n    tag_43:\n      tag_44\n      jump\t// in\n    tag_42:\n      mload(0x40)\n      tag_45\n      swap2\n      swap1\n      tag_34\n      jump\t// in\n    tag_45:\n      mload(0x40)\n      dup1\n      swap2\n      sub\n      swap1\n      return\n        /* \"contracts/CrowdfundMe.sol\":1111:1317  function getVersion() public view returns(uint256) {... */\n    tag_13:\n        /* \"contracts/CrowdfundMe.sol\":1153:1160  uint256 */\n      0x00\n        /* \"contracts/CrowdfundMe.sol\":1173:1204  AggregatorV3Interface priceFeed */\n      dup1\n        /* \"contracts/CrowdfundMe.sol\":1229:1271  0x0715A7794a1dc8e42615F059dD6e406A6594651A */\n      0x0715a7794a1dc8e42615f059dd6e406a6594651a\n        /* \"contracts/CrowdfundMe.sol\":1173:1272  AggregatorV3Interface priceFeed = AggregatorV3Interface(0x0715A7794a1dc8e42615F059dD6e406A6594651A) */\n      swap1\n      pop\n        /* \"contracts/CrowdfundMe.sol\":1290:1299  priceFeed */\n      dup1\n        /* \"contracts/CrowdfundMe.sol\":1290:1307  priceFeed.version */\n      0xffffffffffffffffffffffffffffffffffffffff\n      and\n      0x54fd4d50\n        /* \"contracts/CrowdfundMe.sol\":1290:1309  priceFeed.version() */\n      mload(0x40)\n      dup2\n      0xffffffff\n      and\n      0xe0\n      shl\n      dup2\n      mstore\n      0x04\n      add\n      0x20\n      mload(0x40)\n      dup1\n      dup4\n      sub\n      dup2\n      dup7\n      gas\n      staticcall\n      iszero\n      dup1\n      iszero\n      tag_48\n      jumpi\n      returndatasize\n      0x00\n      dup1\n      returndatacopy\n      revert(0x00, returndatasize)\n    tag_48:\n      pop\n      pop\n      pop\n      pop\n      mload(0x40)\n      returndatasize\n      not(0x1f)\n      0x1f\n      dup3\n      add\n      and\n      dup3\n      add\n      dup1\n      0x40\n      mstore\n      pop\n      dup2\n      add\n      swap1\n      tag_49\n      swap2\n      swap1\n      tag_50\n      jump\t// in\n    tag_49:\n        /* \"contracts/CrowdfundMe.sol\":1283:1309  return priceFeed.version() */\n      swap2\n      pop\n      pop\n        /* \"contracts/CrowdfundMe.sol\":1111:1317  function getVersion() public view returns(uint256) {... */\n      swap1\n      jump\t// out\n        /* \"contracts/CrowdfundMe.sol\":711:1103  function withdraw() payable onlyOwner public {... */\n    tag_17:\n        /* \"contracts/CrowdfundMe.sol\":409:414  owner */\n      0x01\n      0x00\n      swap1\n      sload\n      swap1\n      0x0100\n      exp\n      swap1\n      div\n      0xffffffffffffffffffffffffffffffffffffffff\n      and\n        /* \"contracts/CrowdfundMe.sol\":395:414  msg.sender == owner */\n      0xffffffffffffffffffffffffffffffffffffffff\n      and\n        /* \"contracts/CrowdfundMe.sol\":395:405  msg.sender */\n      caller\n        /* \"contracts/CrowdfundMe.sol\":395:414  msg.sender == owner */\n      0xffffffffffffffffffffffffffffffffffffffff\n      and\n      eq\n        /* \"contracts/CrowdfundMe.sol\":387:415  require(msg.sender == owner) */\n      tag_52\n      jumpi\n      0x00\n      dup1\n      revert\n    tag_52:\n        /* \"contracts/CrowdfundMe.sol\":767:792  address payable recipient */\n      0x00\n        /* \"contracts/CrowdfundMe.sol\":803:813  msg.sender */\n      caller\n        /* \"contracts/CrowdfundMe.sol\":767:814  address payable recipient = payable(msg.sender) */\n      swap1\n      pop\n        /* \"contracts/CrowdfundMe.sol\":825:834  recipient */\n      dup1\n        /* \"contracts/CrowdfundMe.sol\":825:843  recipient.transfer */\n      0xffffffffffffffffffffffffffffffffffffffff\n      and\n        /* \"contracts/CrowdfundMe.sol\":825:866  recipient.transfer(address(this).balance) */\n      0x08fc\n        /* \"contracts/CrowdfundMe.sol\":844:865  address(this).balance */\n      selfbalance\n        /* \"contracts/CrowdfundMe.sol\":825:866  recipient.transfer(address(this).balance) */\n      swap1\n      dup2\n      iszero\n      mul\n      swap1\n      mload(0x40)\n      0x00\n      mload(0x40)\n      dup1\n      dup4\n      sub\n      dup2\n      dup6\n      dup9\n      dup9\n      call\n      swap4\n      pop\n      pop\n      pop\n      pop\n      iszero\n      dup1\n      iszero\n      tag_55\n      jumpi\n      returndatasize\n      0x00\n      dup1\n      returndatacopy\n      revert(0x00, returndatasize)\n    tag_55:\n      pop\n        /* \"contracts/CrowdfundMe.sol\":881:900  uint256 funderIndex */\n      0x00\n        /* \"contracts/CrowdfundMe.sol\":877:1059  for(uint256 funderIndex; funderIndex < funders.length; funderIndex++) {... */\n    tag_56:\n        /* \"contracts/CrowdfundMe.sol\":916:923  funders */\n      0x02\n        /* \"contracts/CrowdfundMe.sol\":916:930  funders.length */\n      dup1\n      sload\n      swap1\n      pop\n        /* \"contracts/CrowdfundMe.sol\":902:913  funderIndex */\n      dup2\n        /* \"contracts/CrowdfundMe.sol\":902:930  funderIndex < funders.length */\n      lt\n        /* \"contracts/CrowdfundMe.sol\":877:1059  for(uint256 funderIndex; funderIndex < funders.length; funderIndex++) {... */\n      iszero\n      tag_57\n      jumpi\n        /* \"contracts/CrowdfundMe.sol\":962:976  address funder */\n      0x00\n        /* \"contracts/CrowdfundMe.sol\":979:986  funders */\n      0x02\n        /* \"contracts/CrowdfundMe.sol\":987:998  funderIndex */\n      dup3\n        /* \"contracts/CrowdfundMe.sol\":979:999  funders[funderIndex] */\n      dup2\n      sload\n      dup2\n      lt\n      tag_59\n      jumpi\n      tag_60\n      tag_61\n      jump\t// in\n    tag_60:\n    tag_59:\n      swap1\n      0x00\n      mstore\n      keccak256(0x00, 0x20)\n      add\n      0x00\n      swap1\n      sload\n      swap1\n      0x0100\n      exp\n      swap1\n      div\n      0xffffffffffffffffffffffffffffffffffffffff\n      and\n        /* \"contracts/CrowdfundMe.sol\":962:999  address funder = funders[funderIndex] */\n      swap1\n      pop\n        /* \"contracts/CrowdfundMe.sol\":1046:1047  0 */\n      0x00\n        /* \"contracts/CrowdfundMe.sol\":1014:1035  addressToAmountFunded */\n      dup1\n        /* \"contracts/CrowdfundMe.sol\":1014:1043  addressToAmountFunded[funder] */\n      0x00\n        /* \"contracts/CrowdfundMe.sol\":1036:1042  funder */\n      dup4\n        /* \"contracts/CrowdfundMe.sol\":1014:1043  addressToAmountFunded[funder] */\n      0xffffffffffffffffffffffffffffffffffffffff\n      and\n      0xffffffffffffffffffffffffffffffffffffffff\n      and\n      dup2\n      mstore\n      0x20\n      add\n      swap1\n      dup2\n      mstore\n      0x20\n      add\n      0x00\n      keccak256\n        /* \"contracts/CrowdfundMe.sol\":1014:1047  addressToAmountFunded[funder] = 0 */\n      dup2\n      swap1\n      sstore\n      pop\n        /* \"contracts/CrowdfundMe.sol\":947:1059  {... */\n      pop\n        /* \"contracts/CrowdfundMe.sol\":932:945  funderIndex++ */\n      dup1\n      dup1\n      0x01\n      add\n      swap2\n      pop\n      pop\n        /* \"contracts/CrowdfundMe.sol\":877:1059  for(uint256 funderIndex; funderIndex < funders.length; funderIndex++) {... */\n      jump(tag_56)\n    tag_57:\n      pop\n        /* \"contracts/CrowdfundMe.sol\":1093:1094  0 */\n      0x00\n        /* \"contracts/CrowdfundMe.sol\":1079:1095  new address[](0) */\n      0xffffffffffffffff\n      dup2\n      gt\n      iszero\n      tag_63\n      jumpi\n      tag_64\n      tag_65\n      jump\t// in\n    tag_64:\n    tag_63:\n      mload(0x40)\n      swap1\n      dup1\n      dup3\n      mstore\n      dup1\n      0x20\n      mul\n      0x20\n      add\n      dup3\n      add\n      0x40\n      mstore\n      dup1\n      iszero\n      tag_66\n      jumpi\n      dup2\n      0x20\n      add\n      0x20\n      dup3\n      mul\n      dup1\n      calldatasize\n      dup4\n      calldatacopy\n      dup1\n      dup3\n      add\n      swap2\n      pop\n      pop\n      swap1\n      pop\n    tag_66:\n      pop\n        /* \"contracts/CrowdfundMe.sol\":1069:1076  funders */\n      0x02\n        /* \"contracts/CrowdfundMe.sol\":1069:1095  funders = new address[](0) */\n      swap1\n      dup1\n      mload\n      swap1\n      0x20\n      add\n      swap1\n      tag_67\n      swap3\n      swap2\n      swap1\n      tag_68\n      jump\t// in\n    tag_67:\n      pop\n        /* \"contracts/CrowdfundMe.sol\":756:1103  {... */\n      pop\n        /* \"contracts/CrowdfundMe.sol\":711:1103  function withdraw() payable onlyOwner public {... */\n      jump\t// out\n        /* \"contracts/CrowdfundMe.sol\":173:229  mapping(address => uint256) public addressToAmountFunded */\n    tag_22:\n      mstore(0x20, 0x00)\n      dup1\n      0x00\n      mstore\n      keccak256(0x00, 0x40)\n      0x00\n      swap2\n      pop\n      swap1\n      pop\n      sload\n      dup2\n      jump\t// out\n        /* \"contracts/CrowdfundMe.sol\":1769:1988  function getAmountInUsd(uint256 ethAmount) public view returns(uint256) {... */\n    tag_28:\n        /* \"contracts/CrowdfundMe.sol\":1832:1839  uint256 */\n      0x00\n        /* \"contracts/CrowdfundMe.sol\":1852:1868  uint256 ethPrice */\n      dup1\n        /* \"contracts/CrowdfundMe.sol\":1871:1881  getPrice() */\n      tag_70\n        /* \"contracts/CrowdfundMe.sol\":1871:1879  getPrice */\n      tag_37\n        /* \"contracts/CrowdfundMe.sol\":1871:1881  getPrice() */\n      jump\t// in\n    tag_70:\n        /* \"contracts/CrowdfundMe.sol\":1852:1881  uint256 ethPrice = getPrice() */\n      swap1\n      pop\n        /* \"contracts/CrowdfundMe.sol\":1892:1914  uint256 ethAmountInUsd */\n      0x00\n        /* \"contracts/CrowdfundMe.sol\":1942:1948  10**18 */\n      0x0de0b6b3a7640000\n        /* \"contracts/CrowdfundMe.sol\":1929:1938  ethAmount */\n      dup5\n        /* \"contracts/CrowdfundMe.sol\":1918:1926  ethPrice */\n      dup4\n        /* \"contracts/CrowdfundMe.sol\":1918:1938  ethPrice * ethAmount */\n      tag_71\n      swap2\n      swap1\n      tag_72\n      jump\t// in\n    tag_71:\n        /* \"contracts/CrowdfundMe.sol\":1917:1948  (ethPrice * ethAmount) * 10**18 */\n      tag_73\n      swap2\n      swap1\n      tag_72\n      jump\t// in\n    tag_73:\n        /* \"contracts/CrowdfundMe.sol\":1892:1948  uint256 ethAmountInUsd = (ethPrice * ethAmount) * 10**18 */\n      swap1\n      pop\n        /* \"contracts/CrowdfundMe.sol\":1966:1980  ethAmountInUsd */\n      dup1\n        /* \"contracts/CrowdfundMe.sol\":1959:1980  return ethAmountInUsd */\n      swap3\n      pop\n      pop\n      pop\n        /* \"contracts/CrowdfundMe.sol\":1769:1988  function getAmountInUsd(uint256 ethAmount) public view returns(uint256) {... */\n      swap2\n      swap1\n      pop\n      jump\t// out\n        /* \"contracts/CrowdfundMe.sol\":238:258  address public owner */\n    tag_32:\n      0x01\n      0x00\n      swap1\n      sload\n      swap1\n      0x0100\n      exp\n      swap1\n      div\n      0xffffffffffffffffffffffffffffffffffffffff\n      and\n      dup2\n      jump\t// out\n        /* \"contracts/CrowdfundMe.sol\":1325:1761  function getPrice() public view returns(uint256) {... */\n    tag_37:\n        /* \"contracts/CrowdfundMe.sol\":1365:1372  uint256 */\n      0x00\n        /* \"contracts/CrowdfundMe.sol\":1385:1416  AggregatorV3Interface priceFeed */\n      dup1\n        /* \"contracts/CrowdfundMe.sol\":1441:1483  0x0715A7794a1dc8e42615F059dD6e406A6594651A */\n      0x0715a7794a1dc8e42615f059dd6e406a6594651a\n        /* \"contracts/CrowdfundMe.sol\":1385:1484  AggregatorV3Interface priceFeed = AggregatorV3Interface(0x0715A7794a1dc8e42615F059dD6e406A6594651A) */\n      swap1\n      pop\n        /* \"contracts/CrowdfundMe.sol\":1545:1555  int answer */\n      0x00\n        /* \"contracts/CrowdfundMe.sol\":1676:1685  priceFeed */\n      dup2\n        /* \"contracts/CrowdfundMe.sol\":1676:1701  priceFeed.latestRoundData */\n      0xffffffffffffffffffffffffffffffffffffffff\n      and\n      0xfeaf968c\n        /* \"contracts/CrowdfundMe.sol\":1676:1703  priceFeed.latestRoundData() */\n      mload(0x40)\n      dup2\n      0xffffffff\n      and\n      0xe0\n      shl\n      dup2\n      mstore\n      0x04\n      add\n      0xa0\n      mload(0x40)\n      dup1\n      dup4\n      sub\n      dup2\n      dup7\n      gas\n      staticcall\n      iszero\n      dup1\n      iszero\n      tag_76\n      jumpi\n      returndatasize\n      0x00\n      dup1\n      returndatacopy\n      revert(0x00, returndatasize)\n    tag_76:\n      pop\n      pop\n      pop\n      pop\n      mload(0x40)\n      returndatasize\n      not(0x1f)\n      0x1f\n      dup3\n      add\n      and\n      dup3\n      add\n      dup1\n      0x40\n      mstore\n      pop\n      dup2\n      add\n      swap1\n      tag_77\n      swap2\n      swap1\n      tag_78\n      jump\t// in\n    tag_77:\n        /* \"contracts/CrowdfundMe.sol\":1495:1703  (... */\n      pop\n      pop\n      pop\n      swap2\n      pop\n      pop\n        /* \"contracts/CrowdfundMe.sol\":1738:1744  10**10 */\n      0x02540be400\n        /* \"contracts/CrowdfundMe.sol\":1729:1735  answer */\n      dup2\n        /* \"contracts/CrowdfundMe.sol\":1729:1744  answer * 10**10 */\n      tag_79\n      swap2\n      swap1\n      tag_80\n      jump\t// in\n    tag_79:\n        /* \"contracts/CrowdfundMe.sol\":1714:1745  return uint256(answer * 10**10) */\n      swap3\n      pop\n      pop\n      pop\n        /* \"contracts/CrowdfundMe.sol\":1325:1761  function getPrice() public view returns(uint256) {... */\n      swap1\n      jump\t// out\n        /* \"contracts/CrowdfundMe.sol\":443:703  function fund() public payable {... */\n    tag_40:\n        /* \"contracts/CrowdfundMe.sol\":485:503  uint256 minimumUsd */\n      0x00\n        /* \"contracts/CrowdfundMe.sol\":506:517  50 * 10**18 */\n      0x02b5e3af16b1880000\n        /* \"contracts/CrowdfundMe.sol\":485:517  uint256 minimumUsd = 50 * 10**18 */\n      swap1\n      pop\n        /* \"contracts/CrowdfundMe.sol\":565:575  minimumUsd */\n      dup1\n        /* \"contracts/CrowdfundMe.sol\":536:561  getAmountInUsd(msg.value) */\n      tag_82\n        /* \"contracts/CrowdfundMe.sol\":551:560  msg.value */\n      callvalue\n        /* \"contracts/CrowdfundMe.sol\":536:550  getAmountInUsd */\n      tag_28\n        /* \"contracts/CrowdfundMe.sol\":536:561  getAmountInUsd(msg.value) */\n      jump\t// in\n    tag_82:\n        /* \"contracts/CrowdfundMe.sol\":536:575  getAmountInUsd(msg.value) >= minimumUsd */\n      lt\n      iszero\n        /* \"contracts/CrowdfundMe.sol\":528:603  require(getAmountInUsd(msg.value) >= minimumUsd, \"Minimum Amount is 50USD\") */\n      tag_83\n      jumpi\n      mload(0x40)\n      0x08c379a000000000000000000000000000000000000000000000000000000000\n      dup2\n      mstore\n      0x04\n      add\n      tag_84\n      swap1\n      tag_85\n      jump\t// in\n    tag_84:\n      mload(0x40)\n      dup1\n      swap2\n      sub\n      swap1\n      revert\n    tag_83:\n        /* \"contracts/CrowdfundMe.sol\":651:660  msg.value */\n      callvalue\n        /* \"contracts/CrowdfundMe.sol\":614:635  addressToAmountFunded */\n      0x00\n        /* \"contracts/CrowdfundMe.sol\":614:647  addressToAmountFunded[msg.sender] */\n      dup1\n        /* \"contracts/CrowdfundMe.sol\":636:646  msg.sender */\n      caller\n        /* \"contracts/CrowdfundMe.sol\":614:647  addressToAmountFunded[msg.sender] */\n      0xffffffffffffffffffffffffffffffffffffffff\n      and\n      0xffffffffffffffffffffffffffffffffffffffff\n      and\n      dup2\n      mstore\n      0x20\n      add\n      swap1\n      dup2\n      mstore\n      0x20\n      add\n      0x00\n      keccak256\n      0x00\n        /* \"contracts/CrowdfundMe.sol\":614:660  addressToAmountFunded[msg.sender] += msg.value */\n      dup3\n      dup3\n      sload\n      tag_86\n      swap2\n      swap1\n      tag_87\n      jump\t// in\n    tag_86:\n      swap3\n      pop\n      pop\n      dup2\n      swap1\n      sstore\n      pop\n        /* \"contracts/CrowdfundMe.sol\":671:678  funders */\n      0x02\n        /* \"contracts/CrowdfundMe.sol\":684:694  msg.sender */\n      caller\n        /* \"contracts/CrowdfundMe.sol\":671:695  funders.push(msg.sender) */\n      swap1\n      dup1\n      0x01\n      dup2\n      sload\n      add\n      dup1\n      dup3\n      sstore\n      dup1\n      swap2\n      pop\n      pop\n      0x01\n      swap1\n      sub\n      swap1\n      0x00\n      mstore\n      keccak256(0x00, 0x20)\n      add\n      0x00\n      swap1\n      swap2\n      swap1\n      swap2\n      swap1\n      swap2\n      0x0100\n      exp\n      dup2\n      sload\n      dup2\n      0xffffffffffffffffffffffffffffffffffffffff\n      mul\n      not\n      and\n      swap1\n      dup4\n      0xffffffffffffffffffffffffffffffffffffffff\n      and\n      mul\n      or\n      swap1\n      sstore\n      pop\n        /* \"contracts/CrowdfundMe.sol\":474:703  {... */\n      pop\n        /* \"contracts/CrowdfundMe.sol\":443:703  function fund() public payable {... */\n      jump\t// out\n        /* \"contracts/CrowdfundMe.sol\":265:289  address[] public funders */\n    tag_44:\n      0x02\n      dup2\n      dup2\n      sload\n      dup2\n      lt\n      tag_89\n      jumpi\n      0x00\n      dup1\n      revert\n    tag_89:\n      swap1\n      0x00\n      mstore\n      keccak256(0x00, 0x20)\n      add\n      0x00\n      swap2\n      pop\n      sload\n      swap1\n      0x0100\n      exp\n      swap1\n      div\n      0xffffffffffffffffffffffffffffffffffffffff\n      and\n      dup2\n      jump\t// out\n    tag_68:\n      dup3\n      dup1\n      sload\n      dup3\n      dup3\n      sstore\n      swap1\n      0x00\n      mstore\n      keccak256(0x00, 0x20)\n      swap1\n      dup2\n      add\n      swap3\n      dup3\n      iszero\n      tag_91\n      jumpi\n      swap2\n      0x20\n      mul\n      dup3\n      add\n    tag_92:\n      dup3\n      dup2\n      gt\n      iszero\n      tag_93\n      jumpi\n      dup3\n      mload\n      dup3\n      exp(0x0100, 0x00)\n      dup2\n      sload\n      dup2\n      0xffffffffffffffffffffffffffffffffffffffff\n      mul\n      not\n      and\n      swap1\n      dup4\n      0xffffffffffffffffffffffffffffffffffffffff\n      and\n      mul\n      or\n      swap1\n      sstore\n      pop\n      swap2\n      0x20\n      add\n      swap2\n      swap1\n      0x01\n      add\n      swap1\n      jump(tag_92)\n    tag_93:\n    tag_91:\n      pop\n      swap1\n      pop\n      tag_94\n      swap2\n      swap1\n      tag_95\n      jump\t// in\n    tag_94:\n      pop\n      swap1\n      jump\t// out\n    tag_95:\n    tag_96:\n      dup1\n      dup3\n      gt\n      iszero\n      tag_97\n      jumpi\n      0x00\n      dup2\n      0x00\n      swap1\n      sstore\n      pop\n      0x01\n      add\n      jump(tag_96)\n    tag_97:\n      pop\n      swap1\n      jump\t// out\n        /* \"#utility.yul\":7:84   */\n    tag_98:\n        /* \"#utility.yul\":44:51   */\n      0x00\n        /* \"#utility.yul\":73:78   */\n      dup2\n        /* \"#utility.yul\":62:78   */\n      swap1\n      pop\n        /* \"#utility.yul\":7:84   */\n      swap2\n      swap1\n      pop\n      jump\t// out\n        /* \"#utility.yul\":90:208   */\n    tag_99:\n        /* \"#utility.yul\":177:201   */\n      tag_124\n        /* \"#utility.yul\":195:200   */\n      dup2\n        /* \"#utility.yul\":177:201   */\n      tag_98\n      jump\t// in\n    tag_124:\n        /* \"#utility.yul\":172:175   */\n      dup3\n        /* \"#utility.yul\":165:202   */\n      mstore\n        /* \"#utility.yul\":90:208   */\n      pop\n      pop\n      jump\t// out\n        /* \"#utility.yul\":214:436   */\n    tag_15:\n        /* \"#utility.yul\":307:311   */\n      0x00\n        /* \"#utility.yul\":345:347   */\n      0x20\n        /* \"#utility.yul\":334:343   */\n      dup3\n        /* \"#utility.yul\":330:348   */\n      add\n        /* \"#utility.yul\":322:348   */\n      swap1\n      pop\n        /* \"#utility.yul\":358:429   */\n      tag_126\n        /* \"#utility.yul\":426:427   */\n      0x00\n        /* \"#utility.yul\":415:424   */\n      dup4\n        /* \"#utility.yul\":411:428   */\n      add\n        /* \"#utility.yul\":402:408   */\n      dup5\n        /* \"#utility.yul\":358:429   */\n      tag_99\n      jump\t// in\n    tag_126:\n        /* \"#utility.yul\":214:436   */\n      swap3\n      swap2\n      pop\n      pop\n      jump\t// out\n        /* \"#utility.yul\":523:640   */\n    tag_101:\n        /* \"#utility.yul\":632:633   */\n      0x00\n        /* \"#utility.yul\":629:630   */\n      dup1\n        /* \"#utility.yul\":622:634   */\n      revert\n        /* \"#utility.yul\":769:895   */\n    tag_103:\n        /* \"#utility.yul\":806:813   */\n      0x00\n        /* \"#utility.yul\":846:888   */\n      0xffffffffffffffffffffffffffffffffffffffff\n        /* \"#utility.yul\":839:844   */\n      dup3\n        /* \"#utility.yul\":835:889   */\n      and\n        /* \"#utility.yul\":824:889   */\n      swap1\n      pop\n        /* \"#utility.yul\":769:895   */\n      swap2\n      swap1\n      pop\n      jump\t// out\n        /* \"#utility.yul\":901:997   */\n    tag_104:\n        /* \"#utility.yul\":938:945   */\n      0x00\n        /* \"#utility.yul\":967:991   */\n      tag_132\n        /* \"#utility.yul\":985:990   */\n      dup3\n        /* \"#utility.yul\":967:991   */\n      tag_103\n      jump\t// in\n    tag_132:\n        /* \"#utility.yul\":956:991   */\n      swap1\n      pop\n        /* \"#utility.yul\":901:997   */\n      swap2\n      swap1\n      pop\n      jump\t// out\n        /* \"#utility.yul\":1003:1125   */\n    tag_105:\n        /* \"#utility.yul\":1076:1100   */\n      tag_134\n        /* \"#utility.yul\":1094:1099   */\n      dup2\n        /* \"#utility.yul\":1076:1100   */\n      tag_104\n      jump\t// in\n    tag_134:\n        /* \"#utility.yul\":1069:1074   */\n      dup2\n        /* \"#utility.yul\":1066:1101   */\n      eq\n        /* \"#utility.yul\":1056:1119   */\n      tag_135\n      jumpi\n        /* \"#utility.yul\":1115:1116   */\n      0x00\n        /* \"#utility.yul\":1112:1113   */\n      dup1\n        /* \"#utility.yul\":1105:1117   */\n      revert\n        /* \"#utility.yul\":1056:1119   */\n    tag_135:\n        /* \"#utility.yul\":1003:1125   */\n      pop\n      jump\t// out\n        /* \"#utility.yul\":1131:1270   */\n    tag_106:\n        /* \"#utility.yul\":1177:1182   */\n      0x00\n        /* \"#utility.yul\":1215:1221   */\n      dup2\n        /* \"#utility.yul\":1202:1222   */\n      calldataload\n        /* \"#utility.yul\":1193:1222   */\n      swap1\n      pop\n        /* \"#utility.yul\":1231:1264   */\n      tag_137\n        /* \"#utility.yul\":1258:1263   */\n      dup2\n        /* \"#utility.yul\":1231:1264   */\n      tag_105\n      jump\t// in\n    tag_137:\n        /* \"#utility.yul\":1131:1270   */\n      swap3\n      swap2\n      pop\n      pop\n      jump\t// out\n        /* \"#utility.yul\":1276:1605   */\n    tag_21:\n        /* \"#utility.yul\":1335:1341   */\n      0x00\n        /* \"#utility.yul\":1384:1386   */\n      0x20\n        /* \"#utility.yul\":1372:1381   */\n      dup3\n        /* \"#utility.yul\":1363:1370   */\n      dup5\n        /* \"#utility.yul\":1359:1382   */\n      sub\n        /* \"#utility.yul\":1355:1387   */\n      slt\n        /* \"#utility.yul\":1352:1471   */\n      iszero\n      tag_139\n      jumpi\n        /* \"#utility.yul\":1390:1469   */\n      tag_140\n      tag_101\n      jump\t// in\n    tag_140:\n        /* \"#utility.yul\":1352:1471   */\n    tag_139:\n        /* \"#utility.yul\":1510:1511   */\n      0x00\n        /* \"#utility.yul\":1535:1588   */\n      tag_141\n        /* \"#utility.yul\":1580:1587   */\n      dup5\n        /* \"#utility.yul\":1571:1577   */\n      dup3\n        /* \"#utility.yul\":1560:1569   */\n      dup6\n        /* \"#utility.yul\":1556:1578   */\n      add\n        /* \"#utility.yul\":1535:1588   */\n      tag_106\n      jump\t// in\n    tag_141:\n        /* \"#utility.yul\":1525:1588   */\n      swap2\n      pop\n        /* \"#utility.yul\":1481:1598   */\n      pop\n        /* \"#utility.yul\":1276:1605   */\n      swap3\n      swap2\n      pop\n      pop\n      jump\t// out\n        /* \"#utility.yul\":1611:1733   */\n    tag_107:\n        /* \"#utility.yul\":1684:1708   */\n      tag_143\n        /* \"#utility.yul\":1702:1707   */\n      dup2\n        /* \"#utility.yul\":1684:1708   */\n      tag_98\n      jump\t// in\n    tag_143:\n        /* \"#utility.yul\":1677:1682   */\n      dup2\n        /* \"#utility.yul\":1674:1709   */\n      eq\n        /* \"#utility.yul\":1664:1727   */\n      tag_144\n      jumpi\n        /* \"#utility.yul\":1723:1724   */\n      0x00\n        /* \"#utility.yul\":1720:1721   */\n      dup1\n        /* \"#utility.yul\":1713:1725   */\n      revert\n        /* \"#utility.yul\":1664:1727   */\n    tag_144:\n        /* \"#utility.yul\":1611:1733   */\n      pop\n      jump\t// out\n        /* \"#utility.yul\":1739:1878   */\n    tag_108:\n        /* \"#utility.yul\":1785:1790   */\n      0x00\n        /* \"#utility.yul\":1823:1829   */\n      dup2\n        /* \"#utility.yul\":1810:1830   */\n      calldataload\n        /* \"#utility.yul\":1801:1830   */\n      swap1\n      pop\n        /* \"#utility.yul\":1839:1872   */\n      tag_146\n        /* \"#utility.yul\":1866:1871   */\n      dup2\n        /* \"#utility.yul\":1839:1872   */\n      tag_107\n      jump\t// in\n    tag_146:\n        /* \"#utility.yul\":1739:1878   */\n      swap3\n      swap2\n      pop\n      pop\n      jump\t// out\n        /* \"#utility.yul\":1884:2213   */\n    tag_27:\n        /* \"#utility.yul\":1943:1949   */\n      0x00\n        /* \"#utility.yul\":1992:1994   */\n      0x20\n        /* \"#utility.yul\":1980:1989   */\n      dup3\n        /* \"#utility.yul\":1971:1978   */\n      dup5\n        /* \"#utility.yul\":1967:1990   */\n      sub\n        /* \"#utility.yul\":1963:1995   */\n      slt\n        /* \"#utility.yul\":1960:2079   */\n      iszero\n      tag_148\n      jumpi\n        /* \"#utility.yul\":1998:2077   */\n      tag_149\n      tag_101\n      jump\t// in\n    tag_149:\n        /* \"#utility.yul\":1960:2079   */\n    tag_148:\n        /* \"#utility.yul\":2118:2119   */\n      0x00\n        /* \"#utility.yul\":2143:2196   */\n      tag_150\n        /* \"#utility.yul\":2188:2195   */\n      dup5\n        /* \"#utility.yul\":2179:2185   */\n      dup3\n        /* \"#utility.yul\":2168:2177   */\n      dup6\n        /* \"#utility.yul\":2164:2186   */\n      add\n        /* \"#utility.yul\":2143:2196   */\n      tag_108\n      jump\t// in\n    tag_150:\n        /* \"#utility.yul\":2133:2196   */\n      swap2\n      pop\n        /* \"#utility.yul\":2089:2206   */\n      pop\n        /* \"#utility.yul\":1884:2213   */\n      swap3\n      swap2\n      pop\n      pop\n      jump\t// out\n        /* \"#utility.yul\":2219:2337   */\n    tag_109:\n        /* \"#utility.yul\":2306:2330   */\n      tag_152\n        /* \"#utility.yul\":2324:2329   */\n      dup2\n        /* \"#utility.yul\":2306:2330   */\n      tag_104\n      jump\t// in\n    tag_152:\n        /* \"#utility.yul\":2301:2304   */\n      dup3\n        /* \"#utility.yul\":2294:2331   */\n      mstore\n        /* \"#utility.yul\":2219:2337   */\n      pop\n      pop\n      jump\t// out\n        /* \"#utility.yul\":2343:2565   */\n    tag_34:\n        /* \"#utility.yul\":2436:2440   */\n      0x00\n        /* \"#utility.yul\":2474:2476   */\n      0x20\n        /* \"#utility.yul\":2463:2472   */\n      dup3\n        /* \"#utility.yul\":2459:2477   */\n      add\n        /* \"#utility.yul\":2451:2477   */\n      swap1\n      pop\n        /* \"#utility.yul\":2487:2558   */\n      tag_154\n        /* \"#utility.yul\":2555:2556   */\n      0x00\n        /* \"#utility.yul\":2544:2553   */\n      dup4\n        /* \"#utility.yul\":2540:2557   */\n      add\n        /* \"#utility.yul\":2531:2537   */\n      dup5\n        /* \"#utility.yul\":2487:2558   */\n      tag_109\n      jump\t// in\n    tag_154:\n        /* \"#utility.yul\":2343:2565   */\n      swap3\n      swap2\n      pop\n      pop\n      jump\t// out\n        /* \"#utility.yul\":2571:2714   */\n    tag_110:\n        /* \"#utility.yul\":2628:2633   */\n      0x00\n        /* \"#utility.yul\":2659:2665   */\n      dup2\n        /* \"#utility.yul\":2653:2666   */\n      mload\n        /* \"#utility.yul\":2644:2666   */\n      swap1\n      pop\n        /* \"#utility.yul\":2675:2708   */\n      tag_156\n        /* \"#utility.yul\":2702:2707   */\n      dup2\n        /* \"#utility.yul\":2675:2708   */\n      tag_107\n      jump\t// in\n    tag_156:\n        /* \"#utility.yul\":2571:2714   */\n      swap3\n      swap2\n      pop\n      pop\n      jump\t// out\n        /* \"#utility.yul\":2720:3071   */\n    tag_50:\n        /* \"#utility.yul\":2790:2796   */\n      0x00\n        /* \"#utility.yul\":2839:2841   */\n      0x20\n        /* \"#utility.yul\":2827:2836   */\n      dup3\n        /* \"#utility.yul\":2818:2825   */\n      dup5\n        /* \"#utility.yul\":2814:2837   */\n      sub\n        /* \"#utility.yul\":2810:2842   */\n      slt\n        /* \"#utility.yul\":2807:2926   */\n      iszero\n      tag_158\n      jumpi\n        /* \"#utility.yul\":2845:2924   */\n      tag_159\n      tag_101\n      jump\t// in\n    tag_159:\n        /* \"#utility.yul\":2807:2926   */\n    tag_158:\n        /* \"#utility.yul\":2965:2966   */\n      0x00\n        /* \"#utility.yul\":2990:3054   */\n      tag_160\n        /* \"#utility.yul\":3046:3053   */\n      dup5\n        /* \"#utility.yul\":3037:3043   */\n      dup3\n        /* \"#utility.yul\":3026:3035   */\n      dup6\n        /* \"#utility.yul\":3022:3044   */\n      add\n        /* \"#utility.yul\":2990:3054   */\n      tag_110\n      jump\t// in\n    tag_160:\n        /* \"#utility.yul\":2980:3054   */\n      swap2\n      pop\n        /* \"#utility.yul\":2936:3064   */\n      pop\n        /* \"#utility.yul\":2720:3071   */\n      swap3\n      swap2\n      pop\n      pop\n      jump\t// out\n        /* \"#utility.yul\":3077:3257   */\n    tag_61:\n        /* \"#utility.yul\":3125:3202   */\n      0x4e487b7100000000000000000000000000000000000000000000000000000000\n        /* \"#utility.yul\":3122:3123   */\n      0x00\n        /* \"#utility.yul\":3115:3203   */\n      mstore\n        /* \"#utility.yul\":3222:3226   */\n      0x32\n        /* \"#utility.yul\":3219:3220   */\n      0x04\n        /* \"#utility.yul\":3212:3227   */\n      mstore\n        /* \"#utility.yul\":3246:3250   */\n      0x24\n        /* \"#utility.yul\":3243:3244   */\n      0x00\n        /* \"#utility.yul\":3236:3251   */\n      revert\n        /* \"#utility.yul\":3263:3443   */\n    tag_65:\n        /* \"#utility.yul\":3311:3388   */\n      0x4e487b7100000000000000000000000000000000000000000000000000000000\n        /* \"#utility.yul\":3308:3309   */\n      0x00\n        /* \"#utility.yul\":3301:3389   */\n      mstore\n        /* \"#utility.yul\":3408:3412   */\n      0x41\n        /* \"#utility.yul\":3405:3406   */\n      0x04\n        /* \"#utility.yul\":3398:3413   */\n      mstore\n        /* \"#utility.yul\":3432:3436   */\n      0x24\n        /* \"#utility.yul\":3429:3430   */\n      0x00\n        /* \"#utility.yul\":3422:3437   */\n      revert\n        /* \"#utility.yul\":3449:3629   */\n    tag_111:\n        /* \"#utility.yul\":3497:3574   */\n      0x4e487b7100000000000000000000000000000000000000000000000000000000\n        /* \"#utility.yul\":3494:3495   */\n      0x00\n        /* \"#utility.yul\":3487:3575   */\n      mstore\n        /* \"#utility.yul\":3594:3598   */\n      0x11\n        /* \"#utility.yul\":3591:3592   */\n      0x04\n        /* \"#utility.yul\":3584:3599   */\n      mstore\n        /* \"#utility.yul\":3618:3622   */\n      0x24\n        /* \"#utility.yul\":3615:3616   */\n      0x00\n        /* \"#utility.yul\":3608:3623   */\n      revert\n        /* \"#utility.yul\":3635:4045   */\n    tag_72:\n        /* \"#utility.yul\":3675:3682   */\n      0x00\n        /* \"#utility.yul\":3698:3718   */\n      tag_165\n        /* \"#utility.yul\":3716:3717   */\n      dup3\n        /* \"#utility.yul\":3698:3718   */\n      tag_98\n      jump\t// in\n    tag_165:\n        /* \"#utility.yul\":3693:3718   */\n      swap2\n      pop\n        /* \"#utility.yul\":3732:3752   */\n      tag_166\n        /* \"#utility.yul\":3750:3751   */\n      dup4\n        /* \"#utility.yul\":3732:3752   */\n      tag_98\n      jump\t// in\n    tag_166:\n        /* \"#utility.yul\":3727:3752   */\n      swap3\n      pop\n        /* \"#utility.yul\":3787:3788   */\n      dup3\n        /* \"#utility.yul\":3784:3785   */\n      dup3\n        /* \"#utility.yul\":3780:3789   */\n      mul\n        /* \"#utility.yul\":3809:3839   */\n      tag_167\n        /* \"#utility.yul\":3827:3838   */\n      dup2\n        /* \"#utility.yul\":3809:3839   */\n      tag_98\n      jump\t// in\n    tag_167:\n        /* \"#utility.yul\":3798:3839   */\n      swap2\n      pop\n        /* \"#utility.yul\":3988:3989   */\n      dup3\n        /* \"#utility.yul\":3979:3986   */\n      dup3\n        /* \"#utility.yul\":3975:3990   */\n      div\n        /* \"#utility.yul\":3972:3973   */\n      dup5\n        /* \"#utility.yul\":3969:3991   */\n      eq\n        /* \"#utility.yul\":3949:3950   */\n      dup4\n        /* \"#utility.yul\":3942:3951   */\n      iszero\n        /* \"#utility.yul\":3922:4005   */\n      or\n        /* \"#utility.yul\":3899:4038   */\n      tag_168\n      jumpi\n        /* \"#utility.yul\":4018:4036   */\n      tag_169\n      tag_111\n      jump\t// in\n    tag_169:\n        /* \"#utility.yul\":3899:4038   */\n    tag_168:\n        /* \"#utility.yul\":3683:4045   */\n      pop\n        /* \"#utility.yul\":3635:4045   */\n      swap3\n      swap2\n      pop\n      pop\n      jump\t// out\n        /* \"#utility.yul\":4051:4156   */\n    tag_112:\n        /* \"#utility.yul\":4087:4094   */\n      0x00\n        /* \"#utility.yul\":4127:4149   */\n      0xffffffffffffffffffff\n        /* \"#utility.yul\":4120:4125   */\n      dup3\n        /* \"#utility.yul\":4116:4150   */\n      and\n        /* \"#utility.yul\":4105:4150   */\n      swap1\n      pop\n        /* \"#utility.yul\":4051:4156   */\n      swap2\n      swap1\n      pop\n      jump\t// out\n        /* \"#utility.yul\":4162:4282   */\n    tag_113:\n        /* \"#utility.yul\":4234:4257   */\n      tag_172\n        /* \"#utility.yul\":4251:4256   */\n      dup2\n        /* \"#utility.yul\":4234:4257   */\n      tag_112\n      jump\t// in\n    tag_172:\n        /* \"#utility.yul\":4227:4232   */\n      dup2\n        /* \"#utility.yul\":4224:4258   */\n      eq\n        /* \"#utility.yul\":4214:4276   */\n      tag_173\n      jumpi\n        /* \"#utility.yul\":4272:4273   */\n      0x00\n        /* \"#utility.yul\":4269:4270   */\n      dup1\n        /* \"#utility.yul\":4262:4274   */\n      revert\n        /* \"#utility.yul\":4214:4276   */\n    tag_173:\n        /* \"#utility.yul\":4162:4282   */\n      pop\n      jump\t// out\n        /* \"#utility.yul\":4288:4429   */\n    tag_114:\n        /* \"#utility.yul\":4344:4349   */\n      0x00\n        /* \"#utility.yul\":4375:4381   */\n      dup2\n        /* \"#utility.yul\":4369:4382   */\n      mload\n        /* \"#utility.yul\":4360:4382   */\n      swap1\n      pop\n        /* \"#utility.yul\":4391:4423   */\n      tag_175\n        /* \"#utility.yul\":4417:4422   */\n      dup2\n        /* \"#utility.yul\":4391:4423   */\n      tag_113\n      jump\t// in\n    tag_175:\n        /* \"#utility.yul\":4288:4429   */\n      swap3\n      swap2\n      pop\n      pop\n      jump\t// out\n        /* \"#utility.yul\":4435:4511   */\n    tag_115:\n        /* \"#utility.yul\":4471:4478   */\n      0x00\n        /* \"#utility.yul\":4500:4505   */\n      dup2\n        /* \"#utility.yul\":4489:4505   */\n      swap1\n      pop\n        /* \"#utility.yul\":4435:4511   */\n      swap2\n      swap1\n      pop\n      jump\t// out\n        /* \"#utility.yul\":4517:4637   */\n    tag_116:\n        /* \"#utility.yul\":4589:4612   */\n      tag_178\n        /* \"#utility.yul\":4606:4611   */\n      dup2\n        /* \"#utility.yul\":4589:4612   */\n      tag_115\n      jump\t// in\n    tag_178:\n        /* \"#utility.yul\":4582:4587   */\n      dup2\n        /* \"#utility.yul\":4579:4613   */\n      eq\n        /* \"#utility.yul\":4569:4631   */\n      tag_179\n      jumpi\n        /* \"#utility.yul\":4627:4628   */\n      0x00\n        /* \"#utility.yul\":4624:4625   */\n      dup1\n        /* \"#utility.yul\":4617:4629   */\n      revert\n        /* \"#utility.yul\":4569:4631   */\n    tag_179:\n        /* \"#utility.yul\":4517:4637   */\n      pop\n      jump\t// out\n        /* \"#utility.yul\":4643:4784   */\n    tag_117:\n        /* \"#utility.yul\":4699:4704   */\n      0x00\n        /* \"#utility.yul\":4730:4736   */\n      dup2\n        /* \"#utility.yul\":4724:4737   */\n      mload\n        /* \"#utility.yul\":4715:4737   */\n      swap1\n      pop\n        /* \"#utility.yul\":4746:4778   */\n      tag_181\n        /* \"#utility.yul\":4772:4777   */\n      dup2\n        /* \"#utility.yul\":4746:4778   */\n      tag_116\n      jump\t// in\n    tag_181:\n        /* \"#utility.yul\":4643:4784   */\n      swap3\n      swap2\n      pop\n      pop\n      jump\t// out\n        /* \"#utility.yul\":4790:5761   */\n    tag_78:\n        /* \"#utility.yul\":4893:4899   */\n      0x00\n        /* \"#utility.yul\":4901:4907   */\n      dup1\n        /* \"#utility.yul\":4909:4915   */\n      0x00\n        /* \"#utility.yul\":4917:4923   */\n      dup1\n        /* \"#utility.yul\":4925:4931   */\n      0x00\n        /* \"#utility.yul\":4974:4977   */\n      0xa0\n        /* \"#utility.yul\":4962:4971   */\n      dup7\n        /* \"#utility.yul\":4953:4960   */\n      dup9\n        /* \"#utility.yul\":4949:4972   */\n      sub\n        /* \"#utility.yul\":4945:4978   */\n      slt\n        /* \"#utility.yul\":4942:5062   */\n      iszero\n      tag_183\n      jumpi\n        /* \"#utility.yul\":4981:5060   */\n      tag_184\n      tag_101\n      jump\t// in\n    tag_184:\n        /* \"#utility.yul\":4942:5062   */\n    tag_183:\n        /* \"#utility.yul\":5101:5102   */\n      0x00\n        /* \"#utility.yul\":5126:5189   */\n      tag_185\n        /* \"#utility.yul\":5181:5188   */\n      dup9\n        /* \"#utility.yul\":5172:5178   */\n      dup3\n        /* \"#utility.yul\":5161:5170   */\n      dup10\n        /* \"#utility.yul\":5157:5179   */\n      add\n        /* \"#utility.yul\":5126:5189   */\n      tag_114\n      jump\t// in\n    tag_185:\n        /* \"#utility.yul\":5116:5189   */\n      swap6\n      pop\n        /* \"#utility.yul\":5072:5199   */\n      pop\n        /* \"#utility.yul\":5238:5240   */\n      0x20\n        /* \"#utility.yul\":5264:5327   */\n      tag_186\n        /* \"#utility.yul\":5319:5326   */\n      dup9\n        /* \"#utility.yul\":5310:5316   */\n      dup3\n        /* \"#utility.yul\":5299:5308   */\n      dup10\n        /* \"#utility.yul\":5295:5317   */\n      add\n        /* \"#utility.yul\":5264:5327   */\n      tag_117\n      jump\t// in\n    tag_186:\n        /* \"#utility.yul\":5254:5327   */\n      swap5\n      pop\n        /* \"#utility.yul\":5209:5337   */\n      pop\n        /* \"#utility.yul\":5376:5378   */\n      0x40\n        /* \"#utility.yul\":5402:5466   */\n      tag_187\n        /* \"#utility.yul\":5458:5465   */\n      dup9\n        /* \"#utility.yul\":5449:5455   */\n      dup3\n        /* \"#utility.yul\":5438:5447   */\n      dup10\n        /* \"#utility.yul\":5434:5456   */\n      add\n        /* \"#utility.yul\":5402:5466   */\n      tag_110\n      jump\t// in\n    tag_187:\n        /* \"#utility.yul\":5392:5466   */\n      swap4\n      pop\n        /* \"#utility.yul\":5347:5476   */\n      pop\n        /* \"#utility.yul\":5515:5517   */\n      0x60\n        /* \"#utility.yul\":5541:5605   */\n      tag_188\n        /* \"#utility.yul\":5597:5604   */\n      dup9\n        /* \"#utility.yul\":5588:5594   */\n      dup3\n        /* \"#utility.yul\":5577:5586   */\n      dup10\n        /* \"#utility.yul\":5573:5595   */\n      add\n        /* \"#utility.yul\":5541:5605   */\n      tag_110\n      jump\t// in\n    tag_188:\n        /* \"#utility.yul\":5531:5605   */\n      swap3\n      pop\n        /* \"#utility.yul\":5486:5615   */\n      pop\n        /* \"#utility.yul\":5654:5657   */\n      0x80\n        /* \"#utility.yul\":5681:5744   */\n      tag_189\n        /* \"#utility.yul\":5736:5743   */\n      dup9\n        /* \"#utility.yul\":5727:5733   */\n      dup3\n        /* \"#utility.yul\":5716:5725   */\n      dup10\n        /* \"#utility.yul\":5712:5734   */\n      add\n        /* \"#utility.yul\":5681:5744   */\n      tag_114\n      jump\t// in\n    tag_189:\n        /* \"#utility.yul\":5671:5744   */\n      swap2\n      pop\n        /* \"#utility.yul\":5625:5754   */\n      pop\n        /* \"#utility.yul\":4790:5761   */\n      swap3\n      swap6\n      pop\n      swap3\n      swap6\n      swap1\n      swap4\n      pop\n      jump\t// out\n        /* \"#utility.yul\":5767:6323   */\n    tag_80:\n        /* \"#utility.yul\":5806:5813   */\n      0x00\n        /* \"#utility.yul\":5829:5848   */\n      tag_191\n        /* \"#utility.yul\":5846:5847   */\n      dup3\n        /* \"#utility.yul\":5829:5848   */\n      tag_115\n      jump\t// in\n    tag_191:\n        /* \"#utility.yul\":5824:5848   */\n      swap2\n      pop\n        /* \"#utility.yul\":5862:5881   */\n      tag_192\n        /* \"#utility.yul\":5879:5880   */\n      dup4\n        /* \"#utility.yul\":5862:5881   */\n      tag_115\n      jump\t// in\n    tag_192:\n        /* \"#utility.yul\":5857:5881   */\n      swap3\n      pop\n        /* \"#utility.yul\":5916:5917   */\n      dup3\n        /* \"#utility.yul\":5913:5914   */\n      dup3\n        /* \"#utility.yul\":5909:5918   */\n      mul\n        /* \"#utility.yul\":5938:5967   */\n      tag_193\n        /* \"#utility.yul\":5955:5966   */\n      dup2\n        /* \"#utility.yul\":5938:5967   */\n      tag_115\n      jump\t// in\n    tag_193:\n        /* \"#utility.yul\":5927:5967   */\n      swap2\n      pop\n        /* \"#utility.yul\":6025:6091   */\n      0x8000000000000000000000000000000000000000000000000000000000000000\n        /* \"#utility.yul\":6022:6023   */\n      dup5\n        /* \"#utility.yul\":6019:6092   */\n      eq\n        /* \"#utility.yul\":6015:6016   */\n      0x00\n        /* \"#utility.yul\":6012:6013   */\n      dup5\n        /* \"#utility.yul\":6008:6017   */\n      slt\n        /* \"#utility.yul\":6004:6093   */\n      and\n        /* \"#utility.yul\":6001:6116   */\n      iszero\n      tag_194\n      jumpi\n        /* \"#utility.yul\":6096:6114   */\n      tag_195\n      tag_111\n      jump\t// in\n    tag_195:\n        /* \"#utility.yul\":6001:6116   */\n    tag_194:\n        /* \"#utility.yul\":6266:6267   */\n      dup3\n        /* \"#utility.yul\":6257:6264   */\n      dup3\n        /* \"#utility.yul\":6252:6268   */\n      sdiv\n        /* \"#utility.yul\":6249:6250   */\n      dup5\n        /* \"#utility.yul\":6246:6269   */\n      eq\n        /* \"#utility.yul\":6226:6227   */\n      dup4\n        /* \"#utility.yul\":6219:6228   */\n      iszero\n        /* \"#utility.yul\":6199:6283   */\n      or\n        /* \"#utility.yul\":6176:6316   */\n      tag_196\n      jumpi\n        /* \"#utility.yul\":6296:6314   */\n      tag_197\n      tag_111\n      jump\t// in\n    tag_197:\n        /* \"#utility.yul\":6176:6316   */\n    tag_196:\n        /* \"#utility.yul\":5814:6323   */\n      pop\n        /* \"#utility.yul\":5767:6323   */\n      swap3\n      swap2\n      pop\n      pop\n      jump\t// out\n        /* \"#utility.yul\":6329:6498   */\n    tag_118:\n        /* \"#utility.yul\":6413:6424   */\n      0x00\n        /* \"#utility.yul\":6447:6453   */\n      dup3\n        /* \"#utility.yul\":6442:6445   */\n      dup3\n        /* \"#utility.yul\":6435:6454   */\n      mstore\n        /* \"#utility.yul\":6487:6491   */\n      0x20\n        /* \"#utility.yul\":6482:6485   */\n      dup3\n        /* \"#utility.yul\":6478:6492   */\n      add\n        /* \"#utility.yul\":6463:6492   */\n      swap1\n      pop\n        /* \"#utility.yul\":6329:6498   */\n      swap3\n      swap2\n      pop\n      pop\n      jump\t// out\n        /* \"#utility.yul\":6504:6677   */\n    tag_119:\n        /* \"#utility.yul\":6644:6669   */\n      0x4d696e696d756d20416d6f756e74206973203530555344000000000000000000\n        /* \"#utility.yul\":6640:6641   */\n      0x00\n        /* \"#utility.yul\":6632:6638   */\n      dup3\n        /* \"#utility.yul\":6628:6642   */\n      add\n        /* \"#utility.yul\":6621:6670   */\n      mstore\n        /* \"#utility.yul\":6504:6677   */\n      pop\n      jump\t// out\n        /* \"#utility.yul\":6683:7049   */\n    tag_120:\n        /* \"#utility.yul\":6825:6828   */\n      0x00\n        /* \"#utility.yul\":6846:6913   */\n      tag_201\n        /* \"#utility.yul\":6910:6912   */\n      0x17\n        /* \"#utility.yul\":6905:6908   */\n      dup4\n        /* \"#utility.yul\":6846:6913   */\n      tag_118\n      jump\t// in\n    tag_201:\n        /* \"#utility.yul\":6839:6913   */\n      swap2\n      pop\n        /* \"#utility.yul\":6922:7015   */\n      tag_202\n        /* \"#utility.yul\":7011:7014   */\n      dup3\n        /* \"#utility.yul\":6922:7015   */\n      tag_119\n      jump\t// in\n    tag_202:\n        /* \"#utility.yul\":7040:7042   */\n      0x20\n        /* \"#utility.yul\":7035:7038   */\n      dup3\n        /* \"#utility.yul\":7031:7043   */\n      add\n        /* \"#utility.yul\":7024:7043   */\n      swap1\n      pop\n        /* \"#utility.yul\":6683:7049   */\n      swap2\n      swap1\n      pop\n      jump\t// out\n        /* \"#utility.yul\":7055:7474   */\n    tag_85:\n        /* \"#utility.yul\":7221:7225   */\n      0x00\n        /* \"#utility.yul\":7259:7261   */\n      0x20\n        /* \"#utility.yul\":7248:7257   */\n      dup3\n        /* \"#utility.yul\":7244:7262   */\n      add\n        /* \"#utility.yul\":7236:7262   */\n      swap1\n      pop\n        /* \"#utility.yul\":7308:7317   */\n      dup2\n        /* \"#utility.yul\":7302:7306   */\n      dup2\n        /* \"#utility.yul\":7298:7318   */\n      sub\n        /* \"#utility.yul\":7294:7295   */\n      0x00\n        /* \"#utility.yul\":7283:7292   */\n      dup4\n        /* \"#utility.yul\":7279:7296   */\n      add\n        /* \"#utility.yul\":7272:7319   */\n      mstore\n        /* \"#utility.yul\":7336:7467   */\n      tag_204\n        /* \"#utility.yul\":7462:7466   */\n      dup2\n        /* \"#utility.yul\":7336:7467   */\n      tag_120\n      jump\t// in\n    tag_204:\n        /* \"#utility.yul\":7328:7467   */\n      swap1\n      pop\n        /* \"#utility.yul\":7055:7474   */\n      swap2\n      swap1\n      pop\n      jump\t// out\n        /* \"#utility.yul\":7480:7671   */\n    tag_87:\n        /* \"#utility.yul\":7520:7523   */\n      0x00\n        /* \"#utility.yul\":7539:7559   */\n      tag_206\n        /* \"#utility.yul\":7557:7558   */\n      dup3\n        /* \"#utility.yul\":7539:7559   */\n      tag_98\n      jump\t// in\n    tag_206:\n        /* \"#utility.yul\":7534:7559   */\n      swap2\n      pop\n        /* \"#utility.yul\":7573:7593   */\n      tag_207\n        /* \"#utility.yul\":7591:7592   */\n      dup4\n        /* \"#utility.yul\":7573:7593   */\n      tag_98\n      jump\t// in\n    tag_207:\n        /* \"#utility.yul\":7568:7593   */\n      swap3\n      pop\n        /* \"#utility.yul\":7616:7617   */\n      dup3\n        /* \"#utility.yul\":7613:7614   */\n      dup3\n        /* \"#utility.yul\":7609:7618   */\n      add\n        /* \"#utility.yul\":7602:7618   */\n      swap1\n      pop\n        /* \"#utility.yul\":7637:7640   */\n      dup1\n        /* \"#utility.yul\":7634:7635   */\n      dup3\n        /* \"#utility.yul\":7631:7641   */\n      gt\n        /* \"#utility.yul\":7628:7664   */\n      iszero\n      tag_208\n      jumpi\n        /* \"#utility.yul\":7644:7662   */\n      tag_209\n      tag_111\n      jump\t// in\n    tag_209:\n        /* \"#utility.yul\":7628:7664   */\n    tag_208:\n        /* \"#utility.yul\":7480:7671   */\n      swap3\n      swap2\n      pop\n      pop\n      jump\t// out\n\n    auxdata: 0xa2646970667358221220f5681deea9b36faf7b6bd409b66a433b87e52e9df486a2f2aa10bd2b93f1d99c64736f6c63430008160033\n}\n",
				"bytecode": {
					"linkReferences": {},
					"object": "608060405234801561000f575f80fd5b503360015f6101000a81548173ffffffffffffffffffffffffffffffffffffffff021916908373ffffffffffffffffffffffffffffffffffffffff160217905550610b6e8061005d5f395ff3fe60806040526004361061007a575f3560e01c80638da5cb5b1161004d5780638da5cb5b1461012a57806398d5fdca14610154578063b60d42881461017e578063dc0d3dff146101885761007a565b80630d8e6e2c1461007e5780633ccfd60b146100a85780633e47d6f3146100b257806355527423146100ee575b5f80fd5b348015610089575f80fd5b506100926101c4565b60405161009f9190610708565b60405180910390f35b6100b0610250565b005b3480156100bd575f80fd5b506100d860048036038101906100d3919061077f565b6103f0565b6040516100e59190610708565b60405180910390f35b3480156100f9575f80fd5b50610114600480360381019061010f91906107d4565b610404565b6040516101219190610708565b60405180910390f35b348015610135575f80fd5b5061013e61043c565b60405161014b919061080e565b60405180910390f35b34801561015f575f80fd5b50610168610461565b6040516101759190610708565b60405180910390f35b610186610506565b005b348015610193575f80fd5b506101ae60048036038101906101a991906107d4565b610613565b6040516101bb919061080e565b60405180910390f35b5f80730715a7794a1dc8e42615f059dd6e406a6594651a90508073ffffffffffffffffffffffffffffffffffffffff166354fd4d506040518163ffffffff1660e01b8152600401602060405180830381865afa158015610226573d5f803e3d5ffd5b505050506040513d601f19601f8201168201806040525081019061024a919061083b565b91505090565b60015f9054906101000a900473ffffffffffffffffffffffffffffffffffffffff1673ffffffffffffffffffffffffffffffffffffffff163373ffffffffffffffffffffffffffffffffffffffff16146102a8575f80fd5b5f3390508073ffffffffffffffffffffffffffffffffffffffff166108fc4790811502906040515f60405180830381858888f193505050501580156102ef573d5f803e3d5ffd5b505f5b60028054905081101561038d575f6002828154811061031457610313610866565b5b905f5260205f20015f9054906101000a900473ffffffffffffffffffffffffffffffffffffffff1690505f805f8373ffffffffffffffffffffffffffffffffffffffff1673ffffffffffffffffffffffffffffffffffffffff1681526020019081526020015f20819055505080806001019150506102f2565b505f67ffffffffffffffff8111156103a8576103a7610893565b5b6040519080825280602002602001820160405280156103d65781602001602082028036833780820191505090505b50600290805190602001906103ec92919061064e565b5050565b5f602052805f5260405f205f915090505481565b5f8061040e610461565b90505f670de0b6b3a7640000848361042691906108ed565b61043091906108ed565b90508092505050919050565b60015f9054906101000a900473ffffffffffffffffffffffffffffffffffffffff1681565b5f80730715a7794a1dc8e42615f059dd6e406a6594651a90505f8173ffffffffffffffffffffffffffffffffffffffff1663feaf968c6040518163ffffffff1660e01b815260040160a060405180830381865afa1580156104c4573d5f803e3d5ffd5b505050506040513d601f19601f820116820180604052508101906104e891906109a0565b5050509150506402540be400816104ff9190610a17565b9250505090565b5f6802b5e3af16b188000090508061051d34610404565b101561055e576040517f08c379a000000000000000000000000000000000000000000000000000000000815260040161055590610ae7565b60405180910390fd5b345f803373ffffffffffffffffffffffffffffffffffffffff1673ffffffffffffffffffffffffffffffffffffffff1681526020019081526020015f205f8282546105a99190610b05565b92505081905550600233908060018154018082558091505060019003905f5260205f20015f9091909190916101000a81548173ffffffffffffffffffffffffffffffffffffffff021916908373ffffffffffffffffffffffffffffffffffffffff16021790555050565b60028181548110610622575f80fd5b905f5260205f20015f915054906101000a900473ffffffffffffffffffffffffffffffffffffffff1681565b828054828255905f5260205f209081019282156106c4579160200282015b828111156106c3578251825f6101000a81548173ffffffffffffffffffffffffffffffffffffffff021916908373ffffffffffffffffffffffffffffffffffffffff1602179055509160200191906001019061066c565b5b5090506106d191906106d5565b5090565b5b808211156106ec575f815f9055506001016106d6565b5090565b5f819050919050565b610702816106f0565b82525050565b5f60208201905061071b5f8301846106f9565b92915050565b5f80fd5b5f73ffffffffffffffffffffffffffffffffffffffff82169050919050565b5f61074e82610725565b9050919050565b61075e81610744565b8114610768575f80fd5b50565b5f8135905061077981610755565b92915050565b5f6020828403121561079457610793610721565b5b5f6107a18482850161076b565b91505092915050565b6107b3816106f0565b81146107bd575f80fd5b50565b5f813590506107ce816107aa565b92915050565b5f602082840312156107e9576107e8610721565b5b5f6107f6848285016107c0565b91505092915050565b61080881610744565b82525050565b5f6020820190506108215f8301846107ff565b92915050565b5f81519050610835816107aa565b92915050565b5f602082840312156108505761084f610721565b5b5f61085d84828501610827565b91505092915050565b7f4e487b71000000000000000000000000000000000000000000000000000000005f52603260045260245ffd5b7f4e487b71000000000000000000000000000000000000000000000000000000005f52604160045260245ffd5b7f4e487b71000000000000000000000000000000000000000000000000000000005f52601160045260245ffd5b5f6108f7826106f0565b9150610902836106f0565b9250828202610910816106f0565b91508282048414831517610927576109266108c0565b5b5092915050565b5f69ffffffffffffffffffff82169050919050565b61094c8161092e565b8114610956575f80fd5b50565b5f8151905061096781610943565b92915050565b5f819050919050565b61097f8161096d565b8114610989575f80fd5b50565b5f8151905061099a81610976565b92915050565b5f805f805f60a086880312156109b9576109b8610721565b5b5f6109c688828901610959565b95505060206109d78882890161098c565b94505060406109e888828901610827565b93505060606109f988828901610827565b9250506080610a0a88828901610959565b9150509295509295909350565b5f610a218261096d565b9150610a2c8361096d565b9250828202610a3a8161096d565b91507f800000000000000000000000000000000000000000000000000000000000000084145f84121615610a7157610a706108c0565b5b8282058414831517610a8657610a856108c0565b5b5092915050565b5f82825260208201905092915050565b7f4d696e696d756d20416d6f756e742069732035305553440000000000000000005f82015250565b5f610ad1601783610a8d565b9150610adc82610a9d565b602082019050919050565b5f6020820190508181035f830152610afe81610ac5565b9050919050565b5f610b0f826106f0565b9150610b1a836106f0565b9250828201905080821115610b3257610b316108c0565b5b9291505056fea2646970667358221220f5681deea9b36faf7b6bd409b66a433b87e52e9df486a2f2aa10bd2b93f1d99c64736f6c63430008160033",
					"opcodes": "PUSH1 0x80 PUSH1 0x40 MSTORE CALLVALUE DUP1 ISZERO PUSH2 0xF JUMPI PUSH0 DUP1 REVERT JUMPDEST POP CALLER PUSH1 0x1 PUSH0 PUSH2 0x100 EXP DUP2 SLOAD DUP2 PUSH20 0xFFFFFFFFFFFFFFFFFFFFFFFFFFFFFFFFFFFFFFFF MUL NOT AND SWAP1 DUP4 PUSH20 0xFFFFFFFFFFFFFFFFFFFFFFFFFFFFFFFFFFFFFFFF AND MUL OR SWAP1 SSTORE POP PUSH2 0xB6E DUP1 PUSH2 0x5D PUSH0 CODECOPY PUSH0 RETURN INVALID PUSH1 0x80 PUSH1 0x40 MSTORE PUSH1 0x4 CALLDATASIZE LT PUSH2 0x7A JUMPI PUSH0 CALLDATALOAD PUSH1 0xE0 SHR DUP1 PUSH4 0x8DA5CB5B GT PUSH2 0x4D JUMPI DUP1 PUSH4 0x8DA5CB5B EQ PUSH2 0x12A JUMPI DUP1 PUSH4 0x98D5FDCA EQ PUSH2 0x154 JUMPI DUP1 PUSH4 0xB60D4288 EQ PUSH2 0x17E JUMPI DUP1 PUSH4 0xDC0D3DFF EQ PUSH2 0x188 JUMPI PUSH2 0x7A JUMP JUMPDEST DUP1 PUSH4 0xD8E6E2C EQ PUSH2 0x7E JUMPI DUP1 PUSH4 0x3CCFD60B EQ PUSH2 0xA8 JUMPI DUP1 PUSH4 0x3E47D6F3 EQ PUSH2 0xB2 JUMPI DUP1 PUSH4 0x55527423 EQ PUSH2 0xEE JUMPI JUMPDEST PUSH0 DUP1 REVERT JUMPDEST CALLVALUE DUP1 ISZERO PUSH2 0x89 JUMPI PUSH0 DUP1 REVERT JUMPDEST POP PUSH2 0x92 PUSH2 0x1C4 JUMP JUMPDEST PUSH1 0x40 MLOAD PUSH2 0x9F SWAP2 SWAP1 PUSH2 0x708 JUMP JUMPDEST PUSH1 0x40 MLOAD DUP1 SWAP2 SUB SWAP1 RETURN JUMPDEST PUSH2 0xB0 PUSH2 0x250 JUMP JUMPDEST STOP JUMPDEST CALLVALUE DUP1 ISZERO PUSH2 0xBD JUMPI PUSH0 DUP1 REVERT JUMPDEST POP PUSH2 0xD8 PUSH1 0x4 DUP1 CALLDATASIZE SUB DUP2 ADD SWAP1 PUSH2 0xD3 SWAP2 SWAP1 PUSH2 0x77F JUMP JUMPDEST PUSH2 0x3F0 JUMP JUMPDEST PUSH1 0x40 MLOAD PUSH2 0xE5 SWAP2 SWAP1 PUSH2 0x708 JUMP JUMPDEST PUSH1 0x40 MLOAD DUP1 SWAP2 SUB SWAP1 RETURN JUMPDEST CALLVALUE DUP1 ISZERO PUSH2 0xF9 JUMPI PUSH0 DUP1 REVERT JUMPDEST POP PUSH2 0x114 PUSH1 0x4 DUP1 CALLDATASIZE SUB DUP2 ADD SWAP1 PUSH2 0x10F SWAP2 SWAP1 PUSH2 0x7D4 JUMP JUMPDEST PUSH2 0x404 JUMP JUMPDEST PUSH1 0x40 MLOAD PUSH2 0x121 SWAP2 SWAP1 PUSH2 0x708 JUMP JUMPDEST PUSH1 0x40 MLOAD DUP1 SWAP2 SUB SWAP1 RETURN JUMPDEST CALLVALUE DUP1 ISZERO PUSH2 0x135 JUMPI PUSH0 DUP1 REVERT JUMPDEST POP PUSH2 0x13E PUSH2 0x43C JUMP JUMPDEST PUSH1 0x40 MLOAD PUSH2 0x14B SWAP2 SWAP1 PUSH2 0x80E JUMP JUMPDEST PUSH1 0x40 MLOAD DUP1 SWAP2 SUB SWAP1 RETURN JUMPDEST CALLVALUE DUP1 ISZERO PUSH2 0x15F JUMPI PUSH0 DUP1 REVERT JUMPDEST POP PUSH2 0x168 PUSH2 0x461 JUMP JUMPDEST PUSH1 0x40 MLOAD PUSH2 0x175 SWAP2 SWAP1 PUSH2 0x708 JUMP JUMPDEST PUSH1 0x40 MLOAD DUP1 SWAP2 SUB SWAP1 RETURN JUMPDEST PUSH2 0x186 PUSH2 0x506 JUMP JUMPDEST STOP JUMPDEST CALLVALUE DUP1 ISZERO PUSH2 0x193 JUMPI PUSH0 DUP1 REVERT JUMPDEST POP PUSH2 0x1AE PUSH1 0x4 DUP1 CALLDATASIZE SUB DUP2 ADD SWAP1 PUSH2 0x1A9 SWAP2 SWAP1 PUSH2 0x7D4 JUMP JUMPDEST PUSH2 0x613 JUMP JUMPDEST PUSH1 0x40 MLOAD PUSH2 0x1BB SWAP2 SWAP1 PUSH2 0x80E JUMP JUMPDEST PUSH1 0x40 MLOAD DUP1 SWAP2 SUB SWAP1 RETURN JUMPDEST PUSH0 DUP1 PUSH20 0x715A7794A1DC8E42615F059DD6E406A6594651A SWAP1 POP DUP1 PUSH20 0xFFFFFFFFFFFFFFFFFFFFFFFFFFFFFFFFFFFFFFFF AND PUSH4 0x54FD4D50 PUSH1 0x40 MLOAD DUP2 PUSH4 0xFFFFFFFF AND PUSH1 0xE0 SHL DUP2 MSTORE PUSH1 0x4 ADD PUSH1 0x20 PUSH1 0x40 MLOAD DUP1 DUP4 SUB DUP2 DUP7 GAS STATICCALL ISZERO DUP1 ISZERO PUSH2 0x226 JUMPI RETURNDATASIZE PUSH0 DUP1 RETURNDATACOPY RETURNDATASIZE PUSH0 REVERT JUMPDEST POP POP POP POP PUSH1 0x40 MLOAD RETURNDATASIZE PUSH1 0x1F NOT PUSH1 0x1F DUP3 ADD AND DUP3 ADD DUP1 PUSH1 0x40 MSTORE POP DUP2 ADD SWAP1 PUSH2 0x24A SWAP2 SWAP1 PUSH2 0x83B JUMP JUMPDEST SWAP2 POP POP SWAP1 JUMP JUMPDEST PUSH1 0x1 PUSH0 SWAP1 SLOAD SWAP1 PUSH2 0x100 EXP SWAP1 DIV PUSH20 0xFFFFFFFFFFFFFFFFFFFFFFFFFFFFFFFFFFFFFFFF AND PUSH20 0xFFFFFFFFFFFFFFFFFFFFFFFFFFFFFFFFFFFFFFFF AND CALLER PUSH20 0xFFFFFFFFFFFFFFFFFFFFFFFFFFFFFFFFFFFFFFFF AND EQ PUSH2 0x2A8 JUMPI PUSH0 DUP1 REVERT JUMPDEST PUSH0 CALLER SWAP1 POP DUP1 PUSH20 0xFFFFFFFFFFFFFFFFFFFFFFFFFFFFFFFFFFFFFFFF AND PUSH2 0x8FC SELFBALANCE SWAP1 DUP2 ISZERO MUL SWAP1 PUSH1 0x40 MLOAD PUSH0 PUSH1 0x40 MLOAD DUP1 DUP4 SUB DUP2 DUP6 DUP9 DUP9 CALL SWAP4 POP POP POP POP ISZERO DUP1 ISZERO PUSH2 0x2EF JUMPI RETURNDATASIZE PUSH0 DUP1 RETURNDATACOPY RETURNDATASIZE PUSH0 REVERT JUMPDEST POP PUSH0 JUMPDEST PUSH1 0x2 DUP1 SLOAD SWAP1 POP DUP2 LT ISZERO PUSH2 0x38D JUMPI PUSH0 PUSH1 0x2 DUP3 DUP2 SLOAD DUP2 LT PUSH2 0x314 JUMPI PUSH2 0x313 PUSH2 0x866 JUMP JUMPDEST JUMPDEST SWAP1 PUSH0 MSTORE PUSH1 0x20 PUSH0 KECCAK256 ADD PUSH0 SWAP1 SLOAD SWAP1 PUSH2 0x100 EXP SWAP1 DIV PUSH20 0xFFFFFFFFFFFFFFFFFFFFFFFFFFFFFFFFFFFFFFFF AND SWAP1 POP PUSH0 DUP1 PUSH0 DUP4 PUSH20 0xFFFFFFFFFFFFFFFFFFFFFFFFFFFFFFFFFFFFFFFF AND PUSH20 0xFFFFFFFFFFFFFFFFFFFFFFFFFFFFFFFFFFFFFFFF AND DUP2 MSTORE PUSH1 0x20 ADD SWAP1 DUP2 MSTORE PUSH1 0x20 ADD PUSH0 KECCAK256 DUP2 SWAP1 SSTORE POP POP DUP1 DUP1 PUSH1 0x1 ADD SWAP2 POP POP PUSH2 0x2F2 JUMP JUMPDEST POP PUSH0 PUSH8 0xFFFFFFFFFFFFFFFF DUP2 GT ISZERO PUSH2 0x3A8 JUMPI PUSH2 0x3A7 PUSH2 0x893 JUMP JUMPDEST JUMPDEST PUSH1 0x40 MLOAD SWAP1 DUP1 DUP3 MSTORE DUP1 PUSH1 0x20 MUL PUSH1 0x20 ADD DUP3 ADD PUSH1 0x40 MSTORE DUP1 ISZERO PUSH2 0x3D6 JUMPI DUP2 PUSH1 0x20 ADD PUSH1 0x20 DUP3 MUL DUP1 CALLDATASIZE DUP4 CALLDATACOPY DUP1 DUP3 ADD SWAP2 POP POP SWAP1 POP JUMPDEST POP PUSH1 0x2 SWAP1 DUP1 MLOAD SWAP1 PUSH1 0x20 ADD SWAP1 PUSH2 0x3EC SWAP3 SWAP2 SWAP1 PUSH2 0x64E JUMP JUMPDEST POP POP JUMP JUMPDEST PUSH0 PUSH1 0x20 MSTORE DUP1 PUSH0 MSTORE PUSH1 0x40 PUSH0 KECCAK256 PUSH0 SWAP2 POP SWAP1 POP SLOAD DUP2 JUMP JUMPDEST PUSH0 DUP1 PUSH2 0x40E PUSH2 0x461 JUMP JUMPDEST SWAP1 POP PUSH0 PUSH8 0xDE0B6B3A7640000 DUP5 DUP4 PUSH2 0x426 SWAP2 SWAP1 PUSH2 0x8ED JUMP JUMPDEST PUSH2 0x430 SWAP2 SWAP1 PUSH2 0x8ED JUMP JUMPDEST SWAP1 POP DUP1 SWAP3 POP POP POP SWAP2 SWAP1 POP JUMP JUMPDEST PUSH1 0x1 PUSH0 SWAP1 SLOAD SWAP1 PUSH2 0x100 EXP SWAP1 DIV PUSH20 0xFFFFFFFFFFFFFFFFFFFFFFFFFFFFFFFFFFFFFFFF AND DUP2 JUMP JUMPDEST PUSH0 DUP1 PUSH20 0x715A7794A1DC8E42615F059DD6E406A6594651A SWAP1 POP PUSH0 DUP2 PUSH20 0xFFFFFFFFFFFFFFFFFFFFFFFFFFFFFFFFFFFFFFFF AND PUSH4 0xFEAF968C PUSH1 0x40 MLOAD DUP2 PUSH4 0xFFFFFFFF AND PUSH1 0xE0 SHL DUP2 MSTORE PUSH1 0x4 ADD PUSH1 0xA0 PUSH1 0x40 MLOAD DUP1 DUP4 SUB DUP2 DUP7 GAS STATICCALL ISZERO DUP1 ISZERO PUSH2 0x4C4 JUMPI RETURNDATASIZE PUSH0 DUP1 RETURNDATACOPY RETURNDATASIZE PUSH0 REVERT JUMPDEST POP POP POP POP PUSH1 0x40 MLOAD RETURNDATASIZE PUSH1 0x1F NOT PUSH1 0x1F DUP3 ADD AND DUP3 ADD DUP1 PUSH1 0x40 MSTORE POP DUP2 ADD SWAP1 PUSH2 0x4E8 SWAP2 SWAP1 PUSH2 0x9A0 JUMP JUMPDEST POP POP POP SWAP2 POP POP PUSH5 0x2540BE400 DUP2 PUSH2 0x4FF SWAP2 SWAP1 PUSH2 0xA17 JUMP JUMPDEST SWAP3 POP POP POP SWAP1 JUMP JUMPDEST PUSH0 PUSH9 0x2B5E3AF16B1880000 SWAP1 POP DUP1 PUSH2 0x51D CALLVALUE PUSH2 0x404 JUMP JUMPDEST LT ISZERO PUSH2 0x55E JUMPI PUSH1 0x40 MLOAD PUSH32 0x8C379A000000000000000000000000000000000000000000000000000000000 DUP2 MSTORE PUSH1 0x4 ADD PUSH2 0x555 SWAP1 PUSH2 0xAE7 JUMP JUMPDEST PUSH1 0x40 MLOAD DUP1 SWAP2 SUB SWAP1 REVERT JUMPDEST CALLVALUE PUSH0 DUP1 CALLER PUSH20 0xFFFFFFFFFFFFFFFFFFFFFFFFFFFFFFFFFFFFFFFF AND PUSH20 0xFFFFFFFFFFFFFFFFFFFFFFFFFFFFFFFFFFFFFFFF AND DUP2 MSTORE PUSH1 0x20 ADD SWAP1 DUP2 MSTORE PUSH1 0x20 ADD PUSH0 KECCAK256 PUSH0 DUP3 DUP3 SLOAD PUSH2 0x5A9 SWAP2 SWAP1 PUSH2 0xB05 JUMP JUMPDEST SWAP3 POP POP DUP2 SWAP1 SSTORE POP PUSH1 0x2 CALLER SWAP1 DUP1 PUSH1 0x1 DUP2 SLOAD ADD DUP1 DUP3 SSTORE DUP1 SWAP2 POP POP PUSH1 0x1 SWAP1 SUB SWAP1 PUSH0 MSTORE PUSH1 0x20 PUSH0 KECCAK256 ADD PUSH0 SWAP1 SWAP2 SWAP1 SWAP2 SWAP1 SWAP2 PUSH2 0x100 EXP DUP2 SLOAD DUP2 PUSH20 0xFFFFFFFFFFFFFFFFFFFFFFFFFFFFFFFFFFFFFFFF MUL NOT AND SWAP1 DUP4 PUSH20 0xFFFFFFFFFFFFFFFFFFFFFFFFFFFFFFFFFFFFFFFF AND MUL OR SWAP1 SSTORE POP POP JUMP JUMPDEST PUSH1 0x2 DUP2 DUP2 SLOAD DUP2 LT PUSH2 0x622 JUMPI PUSH0 DUP1 REVERT JUMPDEST SWAP1 PUSH0 MSTORE PUSH1 0x20 PUSH0 KECCAK256 ADD PUSH0 SWAP2 POP SLOAD SWAP1 PUSH2 0x100 EXP SWAP1 DIV PUSH20 0xFFFFFFFFFFFFFFFFFFFFFFFFFFFFFFFFFFFFFFFF AND DUP2 JUMP JUMPDEST DUP3 DUP1 SLOAD DUP3 DUP3 SSTORE SWAP1 PUSH0 MSTORE PUSH1 0x20 PUSH0 KECCAK256 SWAP1 DUP2 ADD SWAP3 DUP3 ISZERO PUSH2 0x6C4 JUMPI SWAP2 PUSH1 0x20 MUL DUP3 ADD JUMPDEST DUP3 DUP2 GT ISZERO PUSH2 0x6C3 JUMPI DUP3 MLOAD DUP3 PUSH0 PUSH2 0x100 EXP DUP2 SLOAD DUP2 PUSH20 0xFFFFFFFFFFFFFFFFFFFFFFFFFFFFFFFFFFFFFFFF MUL NOT AND SWAP1 DUP4 PUSH20 0xFFFFFFFFFFFFFFFFFFFFFFFFFFFFFFFFFFFFFFFF AND MUL OR SWAP1 SSTORE POP SWAP2 PUSH1 0x20 ADD SWAP2 SWAP1 PUSH1 0x1 ADD SWAP1 PUSH2 0x66C JUMP JUMPDEST JUMPDEST POP SWAP1 POP PUSH2 0x6D1 SWAP2 SWAP1 PUSH2 0x6D5 JUMP JUMPDEST POP SWAP1 JUMP JUMPDEST JUMPDEST DUP1 DUP3 GT ISZERO PUSH2 0x6EC JUMPI PUSH0 DUP2 PUSH0 SWAP1 SSTORE POP PUSH1 0x1 ADD PUSH2 0x6D6 JUMP JUMPDEST POP SWAP1 JUMP JUMPDEST PUSH0 DUP2 SWAP1 POP SWAP2 SWAP1 POP JUMP JUMPDEST PUSH2 0x702 DUP2 PUSH2 0x6F0 JUMP JUMPDEST DUP3 MSTORE POP POP JUMP JUMPDEST PUSH0 PUSH1 0x20 DUP3 ADD SWAP1 POP PUSH2 0x71B PUSH0 DUP4 ADD DUP5 PUSH2 0x6F9 JUMP JUMPDEST SWAP3 SWAP2 POP POP JUMP JUMPDEST PUSH0 DUP1 REVERT JUMPDEST PUSH0 PUSH20 0xFFFFFFFFFFFFFFFFFFFFFFFFFFFFFFFFFFFFFFFF DUP3 AND SWAP1 POP SWAP2 SWAP1 POP JUMP JUMPDEST PUSH0 PUSH2 0x74E DUP3 PUSH2 0x725 JUMP JUMPDEST SWAP1 POP SWAP2 SWAP1 POP JUMP JUMPDEST PUSH2 0x75E DUP2 PUSH2 0x744 JUMP JUMPDEST DUP2 EQ PUSH2 0x768 JUMPI PUSH0 DUP1 REVERT JUMPDEST POP JUMP JUMPDEST PUSH0 DUP2 CALLDATALOAD SWAP1 POP PUSH2 0x779 DUP2 PUSH2 0x755 JUMP JUMPDEST SWAP3 SWAP2 POP POP JUMP JUMPDEST PUSH0 PUSH1 0x20 DUP3 DUP5 SUB SLT ISZERO PUSH2 0x794 JUMPI PUSH2 0x793 PUSH2 0x721 JUMP JUMPDEST JUMPDEST PUSH0 PUSH2 0x7A1 DUP5 DUP3 DUP6 ADD PUSH2 0x76B JUMP JUMPDEST SWAP2 POP POP SWAP3 SWAP2 POP POP JUMP JUMPDEST PUSH2 0x7B3 DUP2 PUSH2 0x6F0 JUMP JUMPDEST DUP2 EQ PUSH2 0x7BD JUMPI PUSH0 DUP1 REVERT JUMPDEST POP JUMP JUMPDEST PUSH0 DUP2 CALLDATALOAD SWAP1 POP PUSH2 0x7CE DUP2 PUSH2 0x7AA JUMP JUMPDEST SWAP3 SWAP2 POP POP JUMP JUMPDEST PUSH0 PUSH1 0x20 DUP3 DUP5 SUB SLT ISZERO PUSH2 0x7E9 JUMPI PUSH2 0x7E8 PUSH2 0x721 JUMP JUMPDEST JUMPDEST PUSH0 PUSH2 0x7F6 DUP5 DUP3 DUP6 ADD PUSH2 0x7C0 JUMP JUMPDEST SWAP2 POP POP SWAP3 SWAP2 POP POP JUMP JUMPDEST PUSH2 0x808 DUP2 PUSH2 0x744 JUMP JUMPDEST DUP3 MSTORE POP POP JUMP JUMPDEST PUSH0 PUSH1 0x20 DUP3 ADD SWAP1 POP PUSH2 0x821 PUSH0 DUP4 ADD DUP5 PUSH2 0x7FF JUMP JUMPDEST SWAP3 SWAP2 POP POP JUMP JUMPDEST PUSH0 DUP2 MLOAD SWAP1 POP PUSH2 0x835 DUP2 PUSH2 0x7AA JUMP JUMPDEST SWAP3 SWAP2 POP POP JUMP JUMPDEST PUSH0 PUSH1 0x20 DUP3 DUP5 SUB SLT ISZERO PUSH2 0x850 JUMPI PUSH2 0x84F PUSH2 0x721 JUMP JUMPDEST JUMPDEST PUSH0 PUSH2 0x85D DUP5 DUP3 DUP6 ADD PUSH2 0x827 JUMP JUMPDEST SWAP2 POP POP SWAP3 SWAP2 POP POP JUMP JUMPDEST PUSH32 0x4E487B7100000000000000000000000000000000000000000000000000000000 PUSH0 MSTORE PUSH1 0x32 PUSH1 0x4 MSTORE PUSH1 0x24 PUSH0 REVERT JUMPDEST PUSH32 0x4E487B7100000000000000000000000000000000000000000000000000000000 PUSH0 MSTORE PUSH1 0x41 PUSH1 0x4 MSTORE PUSH1 0x24 PUSH0 REVERT JUMPDEST PUSH32 0x4E487B7100000000000000000000000000000000000000000000000000000000 PUSH0 MSTORE PUSH1 0x11 PUSH1 0x4 MSTORE PUSH1 0x24 PUSH0 REVERT JUMPDEST PUSH0 PUSH2 0x8F7 DUP3 PUSH2 0x6F0 JUMP JUMPDEST SWAP2 POP PUSH2 0x902 DUP4 PUSH2 0x6F0 JUMP JUMPDEST SWAP3 POP DUP3 DUP3 MUL PUSH2 0x910 DUP2 PUSH2 0x6F0 JUMP JUMPDEST SWAP2 POP DUP3 DUP3 DIV DUP5 EQ DUP4 ISZERO OR PUSH2 0x927 JUMPI PUSH2 0x926 PUSH2 0x8C0 JUMP JUMPDEST JUMPDEST POP SWAP3 SWAP2 POP POP JUMP JUMPDEST PUSH0 PUSH10 0xFFFFFFFFFFFFFFFFFFFF DUP3 AND SWAP1 POP SWAP2 SWAP1 POP JUMP JUMPDEST PUSH2 0x94C DUP2 PUSH2 0x92E JUMP JUMPDEST DUP2 EQ PUSH2 0x956 JUMPI PUSH0 DUP1 REVERT JUMPDEST POP JUMP JUMPDEST PUSH0 DUP2 MLOAD SWAP1 POP PUSH2 0x967 DUP2 PUSH2 0x943 JUMP JUMPDEST SWAP3 SWAP2 POP POP JUMP JUMPDEST PUSH0 DUP2 SWAP1 POP SWAP2 SWAP1 POP JUMP JUMPDEST PUSH2 0x97F DUP2 PUSH2 0x96D JUMP JUMPDEST DUP2 EQ PUSH2 0x989 JUMPI PUSH0 DUP1 REVERT JUMPDEST POP JUMP JUMPDEST PUSH0 DUP2 MLOAD SWAP1 POP PUSH2 0x99A DUP2 PUSH2 0x976 JUMP JUMPDEST SWAP3 SWAP2 POP POP JUMP JUMPDEST PUSH0 DUP1 PUSH0 DUP1 PUSH0 PUSH1 0xA0 DUP7 DUP9 SUB SLT ISZERO PUSH2 0x9B9 JUMPI PUSH2 0x9B8 PUSH2 0x721 JUMP JUMPDEST JUMPDEST PUSH0 PUSH2 0x9C6 DUP9 DUP3 DUP10 ADD PUSH2 0x959 JUMP JUMPDEST SWAP6 POP POP PUSH1 0x20 PUSH2 0x9D7 DUP9 DUP3 DUP10 ADD PUSH2 0x98C JUMP JUMPDEST SWAP5 POP POP PUSH1 0x40 PUSH2 0x9E8 DUP9 DUP3 DUP10 ADD PUSH2 0x827 JUMP JUMPDEST SWAP4 POP POP PUSH1 0x60 PUSH2 0x9F9 DUP9 DUP3 DUP10 ADD PUSH2 0x827 JUMP JUMPDEST SWAP3 POP POP PUSH1 0x80 PUSH2 0xA0A DUP9 DUP3 DUP10 ADD PUSH2 0x959 JUMP JUMPDEST SWAP2 POP POP SWAP3 SWAP6 POP SWAP3 SWAP6 SWAP1 SWAP4 POP JUMP JUMPDEST PUSH0 PUSH2 0xA21 DUP3 PUSH2 0x96D JUMP JUMPDEST SWAP2 POP PUSH2 0xA2C DUP4 PUSH2 0x96D JUMP JUMPDEST SWAP3 POP DUP3 DUP3 MUL PUSH2 0xA3A DUP2 PUSH2 0x96D JUMP JUMPDEST SWAP2 POP PUSH32 0x8000000000000000000000000000000000000000000000000000000000000000 DUP5 EQ PUSH0 DUP5 SLT AND ISZERO PUSH2 0xA71 JUMPI PUSH2 0xA70 PUSH2 0x8C0 JUMP JUMPDEST JUMPDEST DUP3 DUP3 SDIV DUP5 EQ DUP4 ISZERO OR PUSH2 0xA86 JUMPI PUSH2 0xA85 PUSH2 0x8C0 JUMP JUMPDEST JUMPDEST POP SWAP3 SWAP2 POP POP JUMP JUMPDEST PUSH0 DUP3 DUP3 MSTORE PUSH1 0x20 DUP3 ADD SWAP1 POP SWAP3 SWAP2 POP POP JUMP JUMPDEST PUSH32 0x4D696E696D756D20416D6F756E74206973203530555344000000000000000000 PUSH0 DUP3 ADD MSTORE POP JUMP JUMPDEST PUSH0 PUSH2 0xAD1 PUSH1 0x17 DUP4 PUSH2 0xA8D JUMP JUMPDEST SWAP2 POP PUSH2 0xADC DUP3 PUSH2 0xA9D JUMP JUMPDEST PUSH1 0x20 DUP3 ADD SWAP1 POP SWAP2 SWAP1 POP JUMP JUMPDEST PUSH0 PUSH1 0x20 DUP3 ADD SWAP1 POP DUP2 DUP2 SUB PUSH0 DUP4 ADD MSTORE PUSH2 0xAFE DUP2 PUSH2 0xAC5 JUMP JUMPDEST SWAP1 POP SWAP2 SWAP1 POP JUMP JUMPDEST PUSH0 PUSH2 0xB0F DUP3 PUSH2 0x6F0 JUMP JUMPDEST SWAP2 POP PUSH2 0xB1A DUP4 PUSH2 0x6F0 JUMP JUMPDEST SWAP3 POP DUP3 DUP3 ADD SWAP1 POP DUP1 DUP3 GT ISZERO PUSH2 0xB32 JUMPI PUSH2 0xB31 PUSH2 0x8C0 JUMP JUMPDEST JUMPDEST SWAP3 SWAP2 POP POP JUMP INVALID LOG2 PUSH5 0x6970667358 0x22 SLT KECCAK256 CREATE2 PUSH9 0x1DEEA9B36FAF7B6BD4 MULMOD 0xB6 PUSH11 0x433B87E52E9DF486A2F2AA LT 0xBD 0x2B SWAP4 CALL 0xD9 SWAP13 PUSH5 0x736F6C6343 STOP ADDMOD AND STOP CALLER "
				},
				"gasEstimates": {
					"creation": {
						"codeDepositCost": "585200",
						"executionCost": "24882",
						"totalCost": "610082"
					},
					"external": {
						"addressToAmountFunded(address)": "2846",
						"fund()": "infinite",
						"funders(uint256)": "5010",
						"getAmountInUsd(uint256)": "infinite",
						"getPrice()": "infinite",
						"getVersion()": "infinite",
						"owner()": "2508",
						"withdraw()": "infinite"
					}
				},
				"methodIdentifiers": {
					"addressToAmountFunded(address)": "3e47d6f3",
					"fund()": "b60d4288",
					"funders(uint256)": "dc0d3dff",
					"getAmountInUsd(uint256)": "55527423",
					"getPrice()": "98d5fdca",
					"getVersion()": "0d8e6e2c",
					"owner()": "8da5cb5b",
					"withdraw()": "3ccfd60b"
				}
			},
			"storageLayout": {
				"storage": [
					{
						"astId": 52,
						"contract": "contracts/CrowdfundMe.sol:CrowdfundMe",
						"label": "addressToAmountFunded",
						"offset": 0,
						"slot": "0",
						"type": "t_mapping(t_address,t_uint256)"
					},
					{
						"astId": 54,
						"contract": "contracts/CrowdfundMe.sol:CrowdfundMe",
						"label": "owner",
						"offset": 0,
						"slot": "1",
						"type": "t_address"
					},
					{
						"astId": 57,
						"contract": "contracts/CrowdfundMe.sol:CrowdfundMe",
						"label": "funders",
						"offset": 0,
						"slot": "2",
						"type": "t_array(t_address)dyn_storage"
					}
				],
				"types": {
					"t_address": {
						"encoding": "inplace",
						"label": "address",
						"numberOfBytes": "20"
					},
					"t_array(t_address)dyn_storage": {
						"base": "t_address",
						"encoding": "dynamic_array",
						"label": "address[]",
						"numberOfBytes": "32"
					},
					"t_mapping(t_address,t_uint256)": {
						"encoding": "mapping",
						"key": "t_address",
						"label": "mapping(address => uint256)",
						"numberOfBytes": "32",
						"value": "t_uint256"
					},
					"t_uint256": {
						"encoding": "inplace",
						"label": "uint256",
						"numberOfBytes": "32"
					}
				}
			},
			"userdoc": {
				"kind": "user",
				"methods": {},
				"version": 1
			}
		}
	}
}