{
	"data": {
		"bytecode": {
			"linkReferences": {},
			"object": "608060405234801562000010575f80fd5b505f80819055506040518060400160405280600a81526020017f486f6c61204d756e646f00000000000000000000000000000000000000000000815250600190816200005d919062000323565b50600160025f6101000a81548160ff02191690831515021790555033600260016101000a81548173ffffffffffffffffffffffffffffffffffffffff021916908373ffffffffffffffffffffffffffffffffffffffff16021790555062000407565b5f81519050919050565b7f4e487b71000000000000000000000000000000000000000000000000000000005f52604160045260245ffd5b7f4e487b71000000000000000000000000000000000000000000000000000000005f52602260045260245ffd5b5f60028204905060018216806200013b57607f821691505b602082108103620001515762000150620000f6565b5b50919050565b5f819050815f5260205f209050919050565b5f6020601f8301049050919050565b5f82821b905092915050565b5f60088302620001b57fffffffffffffffffffffffffffffffffffffffffffffffffffffffffffffffff8262000178565b620001c1868362000178565b95508019841693508086168417925050509392505050565b5f819050919050565b5f819050919050565b5f6200020b62000205620001ff84620001d9565b620001e2565b620001d9565b9050919050565b5f819050919050565b6200022683620001eb565b6200023e620002358262000212565b84845462000184565b825550505050565b5f90565b6200025462000246565b620002618184846200021b565b505050565b5b8181101562000288576200027c5f826200024a565b60018101905062000267565b5050565b601f821115620002d757620002a18162000157565b620002ac8462000169565b81016020851015620002bc578190505b620002d4620002cb8562000169565b83018262000266565b50505b505050565b5f82821c905092915050565b5f620002f95f1984600802620002dc565b1980831691505092915050565b5f620003138383620002e8565b9150826002028217905092915050565b6200032e82620000bf565b67ffffffffffffffff8111156200034a5762000349620000c9565b5b62000356825462000123565b620003638282856200028c565b5f60209050601f83116001811462000399575f841562000384578287015190505b62000390858262000306565b865550620003ff565b601f198416620003a98662000157565b5f5b82811015620003d257848901518255600182019150602085019450602081019050620003ab565b86831015620003f25784890151620003ee601f891682620002e8565b8355505b6001600288020188555050505b505050505050565b6108c680620004155f395ff3fe608060405234801561000f575f80fd5b506004361061004a575f3560e01c806306661abd1461004e5780635a701bcc1461006c5780638da5cb5b14610088578063ce6d41de146100a6575b5f80fd5b6100566100c4565b6040516100639190610291565b60405180910390f35b61008660048036038101906100819190610313565b6100c9565b005b6100906101c3565b60405161009d919061039d565b60405180910390f35b6100ae6101e9565b6040516100bb9190610440565b60405180910390f35b5f5481565b600260019054906101000a900473ffffffffffffffffffffffffffffffffffffffff1673ffffffffffffffffffffffffffffffffffffffff163373ffffffffffffffffffffffffffffffffffffffff1614610159576040517f08c379a0000000000000000000000000000000000000000000000000000000008152600401610150906104aa565b60405180910390fd5b60015f8082825461016a91906104f5565b92505081905550818160019182610182929190610759565b507f30377890b2dd82dc28f8c982096fcd8d85abd7678481c38052711da9890a60e05f5483836040516101b793929190610860565b60405180910390a15050565b600260019054906101000a900473ffffffffffffffffffffffffffffffffffffffff1681565b6060600180546101f89061058c565b80601f01602080910402602001604051908101604052809291908181526020018280546102249061058c565b801561026f5780601f106102465761010080835404028352916020019161026f565b820191905f5260205f20905b81548152906001019060200180831161025257829003601f168201915b5050505050905090565b5f819050919050565b61028b81610279565b82525050565b5f6020820190506102a45f830184610282565b92915050565b5f80fd5b5f80fd5b5f80fd5b5f80fd5b5f80fd5b5f8083601f8401126102d3576102d26102b2565b5b8235905067ffffffffffffffff8111156102f0576102ef6102b6565b5b60208301915083600182028301111561030c5761030b6102ba565b5b9250929050565b5f8060208385031215610329576103286102aa565b5b5f83013567ffffffffffffffff811115610346576103456102ae565b5b610352858286016102be565b92509250509250929050565b5f73ffffffffffffffffffffffffffffffffffffffff82169050919050565b5f6103878261035e565b9050919050565b6103978161037d565b82525050565b5f6020820190506103b05f83018461038e565b92915050565b5f81519050919050565b5f82825260208201905092915050565b5f5b838110156103ed5780820151818401526020810190506103d2565b5f8484015250505050565b5f601f19601f8301169050919050565b5f610412826103b6565b61041c81856103c0565b935061042c8185602086016103d0565b610435816103f8565b840191505092915050565b5f6020820190508181035f8301526104588184610408565b905092915050565b7f596f75277265206e6f7420746865206f776e6572206f66207468652053432e005f82015250565b5f610494601f836103c0565b915061049f82610460565b602082019050919050565b5f6020820190508181035f8301526104c181610488565b9050919050565b7f4e487b71000000000000000000000000000000000000000000000000000000005f52601160045260245ffd5b5f6104ff82610279565b915061050a83610279565b9250828201905080821115610522576105216104c8565b5b92915050565b5f82905092915050565b7f4e487b71000000000000000000000000000000000000000000000000000000005f52604160045260245ffd5b7f4e487b71000000000000000000000000000000000000000000000000000000005f52602260045260245ffd5b5f60028204905060018216806105a357607f821691505b6020821081036105b6576105b561055f565b5b50919050565b5f819050815f5260205f209050919050565b5f6020601f8301049050919050565b5f82821b905092915050565b5f600883026106187fffffffffffffffffffffffffffffffffffffffffffffffffffffffffffffffff826105dd565b61062286836105dd565b95508019841693508086168417925050509392505050565b5f819050919050565b5f61065d61065861065384610279565b61063a565b610279565b9050919050565b5f819050919050565b61067683610643565b61068a61068282610664565b8484546105e9565b825550505050565b5f90565b61069e610692565b6106a981848461066d565b505050565b5b818110156106cc576106c15f82610696565b6001810190506106af565b5050565b601f821115610711576106e2816105bc565b6106eb846105ce565b810160208510156106fa578190505b61070e610706856105ce565b8301826106ae565b50505b505050565b5f82821c905092915050565b5f6107315f1984600802610716565b1980831691505092915050565b5f6107498383610722565b9150826002028217905092915050565b6107638383610528565b67ffffffffffffffff81111561077c5761077b610532565b5b610786825461058c565b6107918282856106d0565b5f601f8311600181146107be575f84156107ac578287013590505b6107b6858261073e565b86555061081d565b601f1984166107cc866105bc565b5f5b828110156107f3578489013582556001820191506020850194506020810190506107ce565b86831015610810578489013561080c601f891682610722565b8355505b6001600288020188555050505b50505050505050565b828183375f83830152505050565b5f61083f83856103c0565b935061084c838584610826565b610855836103f8565b840190509392505050565b5f6040820190506108735f830186610282565b8181036020830152610886818486610834565b905094935050505056fea26469706673582212205149acbeb2b85f5533c63678add017f6bc4aef9e72d6f8ae26404f58cc45f2ed64736f6c63430008160033",
			"opcodes": "PUSH1 0x80 PUSH1 0x40 MSTORE CALLVALUE DUP1 ISZERO PUSH3 0x10 JUMPI PUSH0 DUP1 REVERT JUMPDEST POP PUSH0 DUP1 DUP2 SWAP1 SSTORE POP PUSH1 0x40 MLOAD DUP1 PUSH1 0x40 ADD PUSH1 0x40 MSTORE DUP1 PUSH1 0xA DUP2 MSTORE PUSH1 0x20 ADD PUSH32 0x486F6C61204D756E646F00000000000000000000000000000000000000000000 DUP2 MSTORE POP PUSH1 0x1 SWAP1 DUP2 PUSH3 0x5D SWAP2 SWAP1 PUSH3 0x323 JUMP JUMPDEST POP PUSH1 0x1 PUSH1 0x2 PUSH0 PUSH2 0x100 EXP DUP2 SLOAD DUP2 PUSH1 0xFF MUL NOT AND SWAP1 DUP4 ISZERO ISZERO MUL OR SWAP1 SSTORE POP CALLER PUSH1 0x2 PUSH1 0x1 PUSH2 0x100 EXP DUP2 SLOAD DUP2 PUSH20 0xFFFFFFFFFFFFFFFFFFFFFFFFFFFFFFFFFFFFFFFF MUL NOT AND SWAP1 DUP4 PUSH20 0xFFFFFFFFFFFFFFFFFFFFFFFFFFFFFFFFFFFFFFFF AND MUL OR SWAP1 SSTORE POP PUSH3 0x407 JUMP JUMPDEST PUSH0 DUP2 MLOAD SWAP1 POP SWAP2 SWAP1 POP JUMP JUMPDEST PUSH32 0x4E487B7100000000000000000000000000000000000000000000000000000000 PUSH0 MSTORE PUSH1 0x41 PUSH1 0x4 MSTORE PUSH1 0x24 PUSH0 REVERT JUMPDEST PUSH32 0x4E487B7100000000000000000000000000000000000000000000000000000000 PUSH0 MSTORE PUSH1 0x22 PUSH1 0x4 MSTORE PUSH1 0x24 PUSH0 REVERT JUMPDEST PUSH0 PUSH1 0x2 DUP3 DIV SWAP1 POP PUSH1 0x1 DUP3 AND DUP1 PUSH3 0x13B JUMPI PUSH1 0x7F DUP3 AND SWAP2 POP JUMPDEST PUSH1 0x20 DUP3 LT DUP2 SUB PUSH3 0x151 JUMPI PUSH3 0x150 PUSH3 0xF6 JUMP JUMPDEST JUMPDEST POP SWAP2 SWAP1 POP JUMP JUMPDEST PUSH0 DUP2 SWAP1 POP DUP2 PUSH0 MSTORE PUSH1 0x20 PUSH0 KECCAK256 SWAP1 POP SWAP2 SWAP1 POP JUMP JUMPDEST PUSH0 PUSH1 0x20 PUSH1 0x1F DUP4 ADD DIV SWAP1 POP SWAP2 SWAP1 POP JUMP JUMPDEST PUSH0 DUP3 DUP3 SHL SWAP1 POP SWAP3 SWAP2 POP POP JUMP JUMPDEST PUSH0 PUSH1 0x8 DUP4 MUL PUSH3 0x1B5 PUSH32 0xFFFFFFFFFFFFFFFFFFFFFFFFFFFFFFFFFFFFFFFFFFFFFFFFFFFFFFFFFFFFFFFF DUP3 PUSH3 0x178 JUMP JUMPDEST PUSH3 0x1C1 DUP7 DUP4 PUSH3 0x178 JUMP JUMPDEST SWAP6 POP DUP1 NOT DUP5 AND SWAP4 POP DUP1 DUP7 AND DUP5 OR SWAP3 POP POP POP SWAP4 SWAP3 POP POP POP JUMP JUMPDEST PUSH0 DUP2 SWAP1 POP SWAP2 SWAP1 POP JUMP JUMPDEST PUSH0 DUP2 SWAP1 POP SWAP2 SWAP1 POP JUMP JUMPDEST PUSH0 PUSH3 0x20B PUSH3 0x205 PUSH3 0x1FF DUP5 PUSH3 0x1D9 JUMP JUMPDEST PUSH3 0x1E2 JUMP JUMPDEST PUSH3 0x1D9 JUMP JUMPDEST SWAP1 POP SWAP2 SWAP1 POP JUMP JUMPDEST PUSH0 DUP2 SWAP1 POP SWAP2 SWAP1 POP JUMP JUMPDEST PUSH3 0x226 DUP4 PUSH3 0x1EB JUMP JUMPDEST PUSH3 0x23E PUSH3 0x235 DUP3 PUSH3 0x212 JUMP JUMPDEST DUP5 DUP5 SLOAD PUSH3 0x184 JUMP JUMPDEST DUP3 SSTORE POP POP POP POP JUMP JUMPDEST PUSH0 SWAP1 JUMP JUMPDEST PUSH3 0x254 PUSH3 0x246 JUMP JUMPDEST PUSH3 0x261 DUP2 DUP5 DUP5 PUSH3 0x21B JUMP JUMPDEST POP POP POP JUMP JUMPDEST JUMPDEST DUP2 DUP2 LT ISZERO PUSH3 0x288 JUMPI PUSH3 0x27C PUSH0 DUP3 PUSH3 0x24A JUMP JUMPDEST PUSH1 0x1 DUP2 ADD SWAP1 POP PUSH3 0x267 JUMP JUMPDEST POP POP JUMP JUMPDEST PUSH1 0x1F DUP3 GT ISZERO PUSH3 0x2D7 JUMPI PUSH3 0x2A1 DUP2 PUSH3 0x157 JUMP JUMPDEST PUSH3 0x2AC DUP5 PUSH3 0x169 JUMP JUMPDEST DUP2 ADD PUSH1 0x20 DUP6 LT ISZERO PUSH3 0x2BC JUMPI DUP2 SWAP1 POP JUMPDEST PUSH3 0x2D4 PUSH3 0x2CB DUP6 PUSH3 0x169 JUMP JUMPDEST DUP4 ADD DUP3 PUSH3 0x266 JUMP JUMPDEST POP POP JUMPDEST POP POP POP JUMP JUMPDEST PUSH0 DUP3 DUP3 SHR SWAP1 POP SWAP3 SWAP2 POP POP JUMP JUMPDEST PUSH0 PUSH3 0x2F9 PUSH0 NOT DUP5 PUSH1 0x8 MUL PUSH3 0x2DC JUMP JUMPDEST NOT DUP1 DUP4 AND SWAP2 POP POP SWAP3 SWAP2 POP POP JUMP JUMPDEST PUSH0 PUSH3 0x313 DUP4 DUP4 PUSH3 0x2E8 JUMP JUMPDEST SWAP2 POP DUP3 PUSH1 0x2 MUL DUP3 OR SWAP1 POP SWAP3 SWAP2 POP POP JUMP JUMPDEST PUSH3 0x32E DUP3 PUSH3 0xBF JUMP JUMPDEST PUSH8 0xFFFFFFFFFFFFFFFF DUP2 GT ISZERO PUSH3 0x34A JUMPI PUSH3 0x349 PUSH3 0xC9 JUMP JUMPDEST JUMPDEST PUSH3 0x356 DUP3 SLOAD PUSH3 0x123 JUMP JUMPDEST PUSH3 0x363 DUP3 DUP3 DUP6 PUSH3 0x28C JUMP JUMPDEST PUSH0 PUSH1 0x20 SWAP1 POP PUSH1 0x1F DUP4 GT PUSH1 0x1 DUP2 EQ PUSH3 0x399 JUMPI PUSH0 DUP5 ISZERO PUSH3 0x384 JUMPI DUP3 DUP8 ADD MLOAD SWAP1 POP JUMPDEST PUSH3 0x390 DUP6 DUP3 PUSH3 0x306 JUMP JUMPDEST DUP7 SSTORE POP PUSH3 0x3FF JUMP JUMPDEST PUSH1 0x1F NOT DUP5 AND PUSH3 0x3A9 DUP7 PUSH3 0x157 JUMP JUMPDEST PUSH0 JUMPDEST DUP3 DUP2 LT ISZERO PUSH3 0x3D2 JUMPI DUP5 DUP10 ADD MLOAD DUP3 SSTORE PUSH1 0x1 DUP3 ADD SWAP2 POP PUSH1 0x20 DUP6 ADD SWAP5 POP PUSH1 0x20 DUP2 ADD SWAP1 POP PUSH3 0x3AB JUMP JUMPDEST DUP7 DUP4 LT ISZERO PUSH3 0x3F2 JUMPI DUP5 DUP10 ADD MLOAD PUSH3 0x3EE PUSH1 0x1F DUP10 AND DUP3 PUSH3 0x2E8 JUMP JUMPDEST DUP4 SSTORE POP JUMPDEST PUSH1 0x1 PUSH1 0x2 DUP9 MUL ADD DUP9 SSTORE POP POP POP JUMPDEST POP POP POP POP POP POP JUMP JUMPDEST PUSH2 0x8C6 DUP1 PUSH3 0x415 PUSH0 CODECOPY PUSH0 RETURN INVALID PUSH1 0x80 PUSH1 0x40 MSTORE CALLVALUE DUP1 ISZERO PUSH2 0xF JUMPI PUSH0 DUP1 REVERT JUMPDEST POP PUSH1 0x4 CALLDATASIZE LT PUSH2 0x4A JUMPI PUSH0 CALLDATALOAD PUSH1 0xE0 SHR DUP1 PUSH4 0x6661ABD EQ PUSH2 0x4E JUMPI DUP1 PUSH4 0x5A701BCC EQ PUSH2 0x6C JUMPI DUP1 PUSH4 0x8DA5CB5B EQ PUSH2 0x88 JUMPI DUP1 PUSH4 0xCE6D41DE EQ PUSH2 0xA6 JUMPI JUMPDEST PUSH0 DUP1 REVERT JUMPDEST PUSH2 0x56 PUSH2 0xC4 JUMP JUMPDEST PUSH1 0x40 MLOAD PUSH2 0x63 SWAP2 SWAP1 PUSH2 0x291 JUMP JUMPDEST PUSH1 0x40 MLOAD DUP1 SWAP2 SUB SWAP1 RETURN JUMPDEST PUSH2 0x86 PUSH1 0x4 DUP1 CALLDATASIZE SUB DUP2 ADD SWAP1 PUSH2 0x81 SWAP2 SWAP1 PUSH2 0x313 JUMP JUMPDEST PUSH2 0xC9 JUMP JUMPDEST STOP JUMPDEST PUSH2 0x90 PUSH2 0x1C3 JUMP JUMPDEST PUSH1 0x40 MLOAD PUSH2 0x9D SWAP2 SWAP1 PUSH2 0x39D JUMP JUMPDEST PUSH1 0x40 MLOAD DUP1 SWAP2 SUB SWAP1 RETURN JUMPDEST PUSH2 0xAE PUSH2 0x1E9 JUMP JUMPDEST PUSH1 0x40 MLOAD PUSH2 0xBB SWAP2 SWAP1 PUSH2 0x440 JUMP JUMPDEST PUSH1 0x40 MLOAD DUP1 SWAP2 SUB SWAP1 RETURN JUMPDEST PUSH0 SLOAD DUP2 JUMP JUMPDEST PUSH1 0x2 PUSH1 0x1 SWAP1 SLOAD SWAP1 PUSH2 0x100 EXP SWAP1 DIV PUSH20 0xFFFFFFFFFFFFFFFFFFFFFFFFFFFFFFFFFFFFFFFF AND PUSH20 0xFFFFFFFFFFFFFFFFFFFFFFFFFFFFFFFFFFFFFFFF AND CALLER PUSH20 0xFFFFFFFFFFFFFFFFFFFFFFFFFFFFFFFFFFFFFFFF AND EQ PUSH2 0x159 JUMPI PUSH1 0x40 MLOAD PUSH32 0x8C379A000000000000000000000000000000000000000000000000000000000 DUP2 MSTORE PUSH1 0x4 ADD PUSH2 0x150 SWAP1 PUSH2 0x4AA JUMP JUMPDEST PUSH1 0x40 MLOAD DUP1 SWAP2 SUB SWAP1 REVERT JUMPDEST PUSH1 0x1 PUSH0 DUP1 DUP3 DUP3 SLOAD PUSH2 0x16A SWAP2 SWAP1 PUSH2 0x4F5 JUMP JUMPDEST SWAP3 POP POP DUP2 SWAP1 SSTORE POP DUP2 DUP2 PUSH1 0x1 SWAP2 DUP3 PUSH2 0x182 SWAP3 SWAP2 SWAP1 PUSH2 0x759 JUMP JUMPDEST POP PUSH32 0x30377890B2DD82DC28F8C982096FCD8D85ABD7678481C38052711DA9890A60E0 PUSH0 SLOAD DUP4 DUP4 PUSH1 0x40 MLOAD PUSH2 0x1B7 SWAP4 SWAP3 SWAP2 SWAP1 PUSH2 0x860 JUMP JUMPDEST PUSH1 0x40 MLOAD DUP1 SWAP2 SUB SWAP1 LOG1 POP POP JUMP JUMPDEST PUSH1 0x2 PUSH1 0x1 SWAP1 SLOAD SWAP1 PUSH2 0x100 EXP SWAP1 DIV PUSH20 0xFFFFFFFFFFFFFFFFFFFFFFFFFFFFFFFFFFFFFFFF AND DUP2 JUMP JUMPDEST PUSH1 0x60 PUSH1 0x1 DUP1 SLOAD PUSH2 0x1F8 SWAP1 PUSH2 0x58C JUMP JUMPDEST DUP1 PUSH1 0x1F ADD PUSH1 0x20 DUP1 SWAP2 DIV MUL PUSH1 0x20 ADD PUSH1 0x40 MLOAD SWAP1 DUP2 ADD PUSH1 0x40 MSTORE DUP1 SWAP3 SWAP2 SWAP1 DUP2 DUP2 MSTORE PUSH1 0x20 ADD DUP3 DUP1 SLOAD PUSH2 0x224 SWAP1 PUSH2 0x58C JUMP JUMPDEST DUP1 ISZERO PUSH2 0x26F JUMPI DUP1 PUSH1 0x1F LT PUSH2 0x246 JUMPI PUSH2 0x100 DUP1 DUP4 SLOAD DIV MUL DUP4 MSTORE SWAP2 PUSH1 0x20 ADD SWAP2 PUSH2 0x26F JUMP JUMPDEST DUP3 ADD SWAP2 SWAP1 PUSH0 MSTORE PUSH1 0x20 PUSH0 KECCAK256 SWAP1 JUMPDEST DUP2 SLOAD DUP2 MSTORE SWAP1 PUSH1 0x1 ADD SWAP1 PUSH1 0x20 ADD DUP1 DUP4 GT PUSH2 0x252 JUMPI DUP3 SWAP1 SUB PUSH1 0x1F AND DUP3 ADD SWAP2 JUMPDEST POP POP POP POP POP SWAP1 POP SWAP1 JUMP JUMPDEST PUSH0 DUP2 SWAP1 POP SWAP2 SWAP1 POP JUMP JUMPDEST PUSH2 0x28B DUP2 PUSH2 0x279 JUMP JUMPDEST DUP3 MSTORE POP POP JUMP JUMPDEST PUSH0 PUSH1 0x20 DUP3 ADD SWAP1 POP PUSH2 0x2A4 PUSH0 DUP4 ADD DUP5 PUSH2 0x282 JUMP JUMPDEST SWAP3 SWAP2 POP POP JUMP JUMPDEST PUSH0 DUP1 REVERT JUMPDEST PUSH0 DUP1 REVERT JUMPDEST PUSH0 DUP1 REVERT JUMPDEST PUSH0 DUP1 REVERT JUMPDEST PUSH0 DUP1 REVERT JUMPDEST PUSH0 DUP1 DUP4 PUSH1 0x1F DUP5 ADD SLT PUSH2 0x2D3 JUMPI PUSH2 0x2D2 PUSH2 0x2B2 JUMP JUMPDEST JUMPDEST DUP3 CALLDATALOAD SWAP1 POP PUSH8 0xFFFFFFFFFFFFFFFF DUP2 GT ISZERO PUSH2 0x2F0 JUMPI PUSH2 0x2EF PUSH2 0x2B6 JUMP JUMPDEST JUMPDEST PUSH1 0x20 DUP4 ADD SWAP2 POP DUP4 PUSH1 0x1 DUP3 MUL DUP4 ADD GT ISZERO PUSH2 0x30C JUMPI PUSH2 0x30B PUSH2 0x2BA JUMP JUMPDEST JUMPDEST SWAP3 POP SWAP3 SWAP1 POP JUMP JUMPDEST PUSH0 DUP1 PUSH1 0x20 DUP4 DUP6 SUB SLT ISZERO PUSH2 0x329 JUMPI PUSH2 0x328 PUSH2 0x2AA JUMP JUMPDEST JUMPDEST PUSH0 DUP4 ADD CALLDATALOAD PUSH8 0xFFFFFFFFFFFFFFFF DUP2 GT ISZERO PUSH2 0x346 JUMPI PUSH2 0x345 PUSH2 0x2AE JUMP JUMPDEST JUMPDEST PUSH2 0x352 DUP6 DUP3 DUP7 ADD PUSH2 0x2BE JUMP JUMPDEST SWAP3 POP SWAP3 POP POP SWAP3 POP SWAP3 SWAP1 POP JUMP JUMPDEST PUSH0 PUSH20 0xFFFFFFFFFFFFFFFFFFFFFFFFFFFFFFFFFFFFFFFF DUP3 AND SWAP1 POP SWAP2 SWAP1 POP JUMP JUMPDEST PUSH0 PUSH2 0x387 DUP3 PUSH2 0x35E JUMP JUMPDEST SWAP1 POP SWAP2 SWAP1 POP JUMP JUMPDEST PUSH2 0x397 DUP2 PUSH2 0x37D JUMP JUMPDEST DUP3 MSTORE POP POP JUMP JUMPDEST PUSH0 PUSH1 0x20 DUP3 ADD SWAP1 POP PUSH2 0x3B0 PUSH0 DUP4 ADD DUP5 PUSH2 0x38E JUMP JUMPDEST SWAP3 SWAP2 POP POP JUMP JUMPDEST PUSH0 DUP2 MLOAD SWAP1 POP SWAP2 SWAP1 POP JUMP JUMPDEST PUSH0 DUP3 DUP3 MSTORE PUSH1 0x20 DUP3 ADD SWAP1 POP SWAP3 SWAP2 POP POP JUMP JUMPDEST PUSH0 JUMPDEST DUP4 DUP2 LT ISZERO PUSH2 0x3ED JUMPI DUP1 DUP3 ADD MLOAD DUP2 DUP5 ADD MSTORE PUSH1 0x20 DUP2 ADD SWAP1 POP PUSH2 0x3D2 JUMP JUMPDEST PUSH0 DUP5 DUP5 ADD MSTORE POP POP POP POP JUMP JUMPDEST PUSH0 PUSH1 0x1F NOT PUSH1 0x1F DUP4 ADD AND SWAP1 POP SWAP2 SWAP1 POP JUMP JUMPDEST PUSH0 PUSH2 0x412 DUP3 PUSH2 0x3B6 JUMP JUMPDEST PUSH2 0x41C DUP2 DUP6 PUSH2 0x3C0 JUMP JUMPDEST SWAP4 POP PUSH2 0x42C DUP2 DUP6 PUSH1 0x20 DUP7 ADD PUSH2 0x3D0 JUMP JUMPDEST PUSH2 0x435 DUP2 PUSH2 0x3F8 JUMP JUMPDEST DUP5 ADD SWAP2 POP POP SWAP3 SWAP2 POP POP JUMP JUMPDEST PUSH0 PUSH1 0x20 DUP3 ADD SWAP1 POP DUP2 DUP2 SUB PUSH0 DUP4 ADD MSTORE PUSH2 0x458 DUP2 DUP5 PUSH2 0x408 JUMP JUMPDEST SWAP1 POP SWAP3 SWAP2 POP POP JUMP JUMPDEST PUSH32 0x596F75277265206E6F7420746865206F776E6572206F66207468652053432E00 PUSH0 DUP3 ADD MSTORE POP JUMP JUMPDEST PUSH0 PUSH2 0x494 PUSH1 0x1F DUP4 PUSH2 0x3C0 JUMP JUMPDEST SWAP2 POP PUSH2 0x49F DUP3 PUSH2 0x460 JUMP JUMPDEST PUSH1 0x20 DUP3 ADD SWAP1 POP SWAP2 SWAP1 POP JUMP JUMPDEST PUSH0 PUSH1 0x20 DUP3 ADD SWAP1 POP DUP2 DUP2 SUB PUSH0 DUP4 ADD MSTORE PUSH2 0x4C1 DUP2 PUSH2 0x488 JUMP JUMPDEST SWAP1 POP SWAP2 SWAP1 POP JUMP JUMPDEST PUSH32 0x4E487B7100000000000000000000000000000000000000000000000000000000 PUSH0 MSTORE PUSH1 0x11 PUSH1 0x4 MSTORE PUSH1 0x24 PUSH0 REVERT JUMPDEST PUSH0 PUSH2 0x4FF DUP3 PUSH2 0x279 JUMP JUMPDEST SWAP2 POP PUSH2 0x50A DUP4 PUSH2 0x279 JUMP JUMPDEST SWAP3 POP DUP3 DUP3 ADD SWAP1 POP DUP1 DUP3 GT ISZERO PUSH2 0x522 JUMPI PUSH2 0x521 PUSH2 0x4C8 JUMP JUMPDEST JUMPDEST SWAP3 SWAP2 POP POP JUMP JUMPDEST PUSH0 DUP3 SWAP1 POP SWAP3 SWAP2 POP POP JUMP JUMPDEST PUSH32 0x4E487B7100000000000000000000000000000000000000000000000000000000 PUSH0 MSTORE PUSH1 0x41 PUSH1 0x4 MSTORE PUSH1 0x24 PUSH0 REVERT JUMPDEST PUSH32 0x4E487B7100000000000000000000000000000000000000000000000000000000 PUSH0 MSTORE PUSH1 0x22 PUSH1 0x4 MSTORE PUSH1 0x24 PUSH0 REVERT JUMPDEST PUSH0 PUSH1 0x2 DUP3 DIV SWAP1 POP PUSH1 0x1 DUP3 AND DUP1 PUSH2 0x5A3 JUMPI PUSH1 0x7F DUP3 AND SWAP2 POP JUMPDEST PUSH1 0x20 DUP3 LT DUP2 SUB PUSH2 0x5B6 JUMPI PUSH2 0x5B5 PUSH2 0x55F JUMP JUMPDEST JUMPDEST POP SWAP2 SWAP1 POP JUMP JUMPDEST PUSH0 DUP2 SWAP1 POP DUP2 PUSH0 MSTORE PUSH1 0x20 PUSH0 KECCAK256 SWAP1 POP SWAP2 SWAP1 POP JUMP JUMPDEST PUSH0 PUSH1 0x20 PUSH1 0x1F DUP4 ADD DIV SWAP1 POP SWAP2 SWAP1 POP JUMP JUMPDEST PUSH0 DUP3 DUP3 SHL SWAP1 POP SWAP3 SWAP2 POP POP JUMP JUMPDEST PUSH0 PUSH1 0x8 DUP4 MUL PUSH2 0x618 PUSH32 0xFFFFFFFFFFFFFFFFFFFFFFFFFFFFFFFFFFFFFFFFFFFFFFFFFFFFFFFFFFFFFFFF DUP3 PUSH2 0x5DD JUMP JUMPDEST PUSH2 0x622 DUP7 DUP4 PUSH2 0x5DD JUMP JUMPDEST SWAP6 POP DUP1 NOT DUP5 AND SWAP4 POP DUP1 DUP7 AND DUP5 OR SWAP3 POP POP POP SWAP4 SWAP3 POP POP POP JUMP JUMPDEST PUSH0 DUP2 SWAP1 POP SWAP2 SWAP1 POP JUMP JUMPDEST PUSH0 PUSH2 0x65D PUSH2 0x658 PUSH2 0x653 DUP5 PUSH2 0x279 JUMP JUMPDEST PUSH2 0x63A JUMP JUMPDEST PUSH2 0x279 JUMP JUMPDEST SWAP1 POP SWAP2 SWAP1 POP JUMP JUMPDEST PUSH0 DUP2 SWAP1 POP SWAP2 SWAP1 POP JUMP JUMPDEST PUSH2 0x676 DUP4 PUSH2 0x643 JUMP JUMPDEST PUSH2 0x68A PUSH2 0x682 DUP3 PUSH2 0x664 JUMP JUMPDEST DUP5 DUP5 SLOAD PUSH2 0x5E9 JUMP JUMPDEST DUP3 SSTORE POP POP POP POP JUMP JUMPDEST PUSH0 SWAP1 JUMP JUMPDEST PUSH2 0x69E PUSH2 0x692 JUMP JUMPDEST PUSH2 0x6A9 DUP2 DUP5 DUP5 PUSH2 0x66D JUMP JUMPDEST POP POP POP JUMP JUMPDEST JUMPDEST DUP2 DUP2 LT ISZERO PUSH2 0x6CC JUMPI PUSH2 0x6C1 PUSH0 DUP3 PUSH2 0x696 JUMP JUMPDEST PUSH1 0x1 DUP2 ADD SWAP1 POP PUSH2 0x6AF JUMP JUMPDEST POP POP JUMP JUMPDEST PUSH1 0x1F DUP3 GT ISZERO PUSH2 0x711 JUMPI PUSH2 0x6E2 DUP2 PUSH2 0x5BC JUMP JUMPDEST PUSH2 0x6EB DUP5 PUSH2 0x5CE JUMP JUMPDEST DUP2 ADD PUSH1 0x20 DUP6 LT ISZERO PUSH2 0x6FA JUMPI DUP2 SWAP1 POP JUMPDEST PUSH2 0x70E PUSH2 0x706 DUP6 PUSH2 0x5CE JUMP JUMPDEST DUP4 ADD DUP3 PUSH2 0x6AE JUMP JUMPDEST POP POP JUMPDEST POP POP POP JUMP JUMPDEST PUSH0 DUP3 DUP3 SHR SWAP1 POP SWAP3 SWAP2 POP POP JUMP JUMPDEST PUSH0 PUSH2 0x731 PUSH0 NOT DUP5 PUSH1 0x8 MUL PUSH2 0x716 JUMP JUMPDEST NOT DUP1 DUP4 AND SWAP2 POP POP SWAP3 SWAP2 POP POP JUMP JUMPDEST PUSH0 PUSH2 0x749 DUP4 DUP4 PUSH2 0x722 JUMP JUMPDEST SWAP2 POP DUP3 PUSH1 0x2 MUL DUP3 OR SWAP1 POP SWAP3 SWAP2 POP POP JUMP JUMPDEST PUSH2 0x763 DUP4 DUP4 PUSH2 0x528 JUMP JUMPDEST PUSH8 0xFFFFFFFFFFFFFFFF DUP2 GT ISZERO PUSH2 0x77C JUMPI PUSH2 0x77B PUSH2 0x532 JUMP JUMPDEST JUMPDEST PUSH2 0x786 DUP3 SLOAD PUSH2 0x58C JUMP JUMPDEST PUSH2 0x791 DUP3 DUP3 DUP6 PUSH2 0x6D0 JUMP JUMPDEST PUSH0 PUSH1 0x1F DUP4 GT PUSH1 0x1 DUP2 EQ PUSH2 0x7BE JUMPI PUSH0 DUP5 ISZERO PUSH2 0x7AC JUMPI DUP3 DUP8 ADD CALLDATALOAD SWAP1 POP JUMPDEST PUSH2 0x7B6 DUP6 DUP3 PUSH2 0x73E JUMP JUMPDEST DUP7 SSTORE POP PUSH2 0x81D JUMP JUMPDEST PUSH1 0x1F NOT DUP5 AND PUSH2 0x7CC DUP7 PUSH2 0x5BC JUMP JUMPDEST PUSH0 JUMPDEST DUP3 DUP2 LT ISZERO PUSH2 0x7F3 JUMPI DUP5 DUP10 ADD CALLDATALOAD DUP3 SSTORE PUSH1 0x1 DUP3 ADD SWAP2 POP PUSH1 0x20 DUP6 ADD SWAP5 POP PUSH1 0x20 DUP2 ADD SWAP1 POP PUSH2 0x7CE JUMP JUMPDEST DUP7 DUP4 LT ISZERO PUSH2 0x810 JUMPI DUP5 DUP10 ADD CALLDATALOAD PUSH2 0x80C PUSH1 0x1F DUP10 AND DUP3 PUSH2 0x722 JUMP JUMPDEST DUP4 SSTORE POP JUMPDEST PUSH1 0x1 PUSH1 0x2 DUP9 MUL ADD DUP9 SSTORE POP POP POP JUMPDEST POP POP POP POP POP POP POP JUMP JUMPDEST DUP3 DUP2 DUP4 CALLDATACOPY PUSH0 DUP4 DUP4 ADD MSTORE POP POP POP JUMP JUMPDEST PUSH0 PUSH2 0x83F DUP4 DUP6 PUSH2 0x3C0 JUMP JUMPDEST SWAP4 POP PUSH2 0x84C DUP4 DUP6 DUP5 PUSH2 0x826 JUMP JUMPDEST PUSH2 0x855 DUP4 PUSH2 0x3F8 JUMP JUMPDEST DUP5 ADD SWAP1 POP SWAP4 SWAP3 POP POP POP JUMP JUMPDEST PUSH0 PUSH1 0x40 DUP3 ADD SWAP1 POP PUSH2 0x873 PUSH0 DUP4 ADD DUP7 PUSH2 0x282 JUMP JUMPDEST DUP2 DUP2 SUB PUSH1 0x20 DUP4 ADD MSTORE PUSH2 0x886 DUP2 DUP5 DUP7 PUSH2 0x834 JUMP JUMPDEST SWAP1 POP SWAP5 SWAP4 POP POP POP POP JUMP INVALID LOG2 PUSH5 0x6970667358 0x22 SLT KECCAK256 MLOAD 0x49 0xAC 0xBE 0xB2 0xB8 PUSH0 SSTORE CALLER 0xC6 CALLDATASIZE PUSH25 0xADD017F6BC4AEF9E72D6F8AE26404F58CC45F2ED64736F6C63 NUMBER STOP ADDMOD AND STOP CALLER "
		},
		"gasEstimates": {
			"creation": {
				"codeDepositCost": "449200",
				"executionCost": "infinite",
				"totalCost": "infinite"
			},
			"external": {
				"actualizar(string)": "infinite",
				"count()": "2402",
				"getMessage()": "infinite",
				"owner()": "2581"
			}
		},
		"methodIdentifiers": {
			"actualizar(string)": "5a701bcc",
			"count()": "06661abd",
			"getMessage()": "ce6d41de",
			"owner()": "8da5cb5b"
		}
	},
	"abi": [
		{
			"inputs": [],
			"stateMutability": "nonpayable",
			"type": "constructor"
		},
		{
			"anonymous": false,
			"inputs": [
				{
					"indexed": false,
					"internalType": "string",
					"name": "errorMessage",
					"type": "string"
				}
			],
			"name": "ErrorMessage",
			"type": "event"
		},
		{
			"anonymous": false,
			"inputs": [
				{
					"indexed": false,
					"internalType": "uint256",
					"name": "count",
					"type": "uint256"
				},
				{
					"indexed": false,
					"internalType": "string",
					"name": "newMessage",
					"type": "string"
				}
			],
			"name": "MessageUpdated",
			"type": "event"
		},
		{
			"inputs": [
				{
					"internalType": "string",
					"name": "_message",
					"type": "string"
				}
			],
			"name": "actualizar",
			"outputs": [],
			"stateMutability": "nonpayable",
			"type": "function"
		},
		{
			"inputs": [],
			"name": "count",
			"outputs": [
				{
					"internalType": "uint256",
					"name": "",
					"type": "uint256"
				}
			],
			"stateMutability": "view",
			"type": "function"
		},
		{
			"inputs": [],
			"name": "getMessage",
			"outputs": [
				{
					"internalType": "string",
					"name": "",
					"type": "string"
				}
			],
			"stateMutability": "view",
			"type": "function"
		},
		{
			"inputs": [],
			"name": "owner",
			"outputs": [
				{
					"internalType": "address",
					"name": "",
					"type": "address"
				}
			],
			"stateMutability": "view",
			"type": "function"
		}
	]
}